:020000040800F2
:1000000088050020B1010008EB1B00084914000816
:10001000E91B0008BD020008931F00080000000053
:100020000000000000000000000000008B1C000821
:10003000BF02000800000000891C00088D1C000899
:10004000CB010008CB010008CB010008CB01000860
:10005000CB010008CB010008CB010008CB01000850
:10006000CB010008CB010008CB010008CB01000840
:10007000CB010008CB010008CB010008CB01000830
:10008000CB010008CB010008CB01000800000000F4
:10009000000000000000000000000000CB0100088C
:1000A000CB010008CB010008CB010008CB01000800
:1000B000CB010008CB010008CB010008CB010008F0
:1000C000CB010008CB010008CB010008CB010008E0
:1000D000CB010008CB010008CB01000800000000A4
:1000E000CB010008CB010008CB0100080000000094
:1000F000000000000000000000000000CB0100082C
:1001000000000000CB010008CB010008CB01000873
:1001100000000000000000000000000000000000DF
:10012000CB010008CB010008CB010008CB0100087F
:10013000CB010008000000000000000000000000EB
:10014000000000000000000000000000CB010008DB
:10015000CB010008CB010008CB010008CB0100084F
:10016000CB010008CB0100080000000000000000E7
:10017000000000000000000000000000000000007F
:1001800000000000CB01000800000000000000009B
:10019000CB010008CB010008DFF810D000F07CF89C
:1001A00000480047CD220008AFF3008088050020FA
:1001B0000648804706480047FEE7FEE7FEE7FEE701
:1001C000FEE7FEE7FEE7FEE7FEE7FEE7211D00088B
:1001D000990100082DE9F05F0546002092469B46F4
:1001E00088460646814640241BE02846414647464D
:1001F000224600F041F853465A46C01A914110D3A6
:1002000011461846224600F028F82D1A67EB01081F
:100210004F4622460120002100F01FF817EB00098D
:100220004E41201EA4F10104DFDC484631462A4637
:100230004346BDE8F09FD2B201E000F8012B491E11
:10024000FBD270470022F6E710B513460A46044673
:100250001946FFF7F0FF204610BD202A04DB203AA4
:1002600000FA02F1002070479140C2F1200320FA09
:1002700003F3194390407047202A04DB203A21FA07
:1002800002F00021704721FA02F3D040C2F12002AF
:100290009140084319467047064C074D06E0E06858
:1002A00040F0010394E8070098471034AC42F6D3BD
:1002B000FFF776FFAC240008CC240008FEE7704767
:1002C0002DE9F84FDFF8B4A1002201240AF1040B54
:1002D00003254FF00F090BF1040E00BF0B6804FA61
:1002E00002F63340B34272D10F7907F00307012FB2
:1002F00001D0022F16D187684FEA420805FA08FCA0
:1003000027EA0C07D1F80CC00CFA08FC4CEA070CE1
:10031000C0F808C04768B7430E79C6F30016964088
:100320003E4346600E79F643B6070DD0C7685600C7
:1003300005FA06FC27EA0C07D1F808C00CFA06FCFF
:100340004CEA070CC0F80CC00E7906F00306022E2A
:1003500010D1D60800EB8608D8F8206057074FEA7E
:10036000D76C09FA0CF7BE430F6907FA0CF737434D
:10037000C8F8207006684FEA420C05FA0CF7BE4335
:100380000F7907F0030707FA0CF7374307604E6849
:10039000F6006DD53A4E376847F4804737603668C7
:1003A00022F0030706F480460096364E07EB060C53
:1003B000DCF8086897073F0F09FA07F826EA0806ED
:1003C000DFF8C480404503D14FF000081EE04FE045
:1003D000DFF8B880404502D14FF0010816E0DFF8A1
:1003E000B080404502D14FF002080FE0DFF8A48052
:1003F000404502D14FF0030808E0DFF89C804045FB
:1004000002D14FF0040801E04FF0070808FA07F89E
:1004100048EA0608CCF80888DAF800605746D1F8B0
:1004200004C09E435FEACC3C00D51E433E60DBF82F
:1004300000605F46D1F804C09E435FEA8C3C00D563
:100440001E433E60DEF800607746D1F804C09E434C
:100450005FEACC2C00D51E433E60084F0C373E6847
:10046000D1F804C09E435FEA8C2C00D51E433E6049
:10047000521C102AFFF432AFBDE8F88F003C014057
:1004800044380240003001400000024000040240B5
:1004900000080240000C0240001002400AB18161D5
:1004A00070470904FBE700000148806870470000BE
:1004B0007C00002070B5040025D094F83D00002594
:1004C00020B984F83C50204600F04CFA242084F8EF
:1004D0003D002068016821F0010101602068016889
:1004E00041F4004101602068016821F4004101608D
:1004F00000F094FB4D4A6168914201D84C4900E0FC
:100500004C49884201D2012070BD4B492368B0FBA1
:10051000F1F15E6826F03F060E435E606368934229
:1005200006D94FF4967359434FF47A73B1FBF3F144
:100530002368491C1E6A26F03F0631431962616830
:10054000914210D84900401EB0FBF1F2521CC2F398
:100550000B02042A01D2042022E0B0FBF1F0401C7F
:10056000C0F30B001CE0A268F2B301EBC10303EB84
:100570000116431EB3FBF6F35B1C43F480431B05DB
:1005800049D092B301EBC10202EB0111401EB0FB56
:10059000F1F0401CC0F30B0040F4804040F40040F8
:1005A0002168CA694CF6FF739A431043C861D4E9C5
:1005B000071001432068026822F0C0021143016065
:1005C000D4E9030101432068826848F2FF339A436B
:1005D00011438160D4E9050108432168CA6822F00B
:1005E000FF021043C86001E00EE016E020680168D9
:1005F00041F0010101602564202084F83D0025635D
:1006000084F83E50002070BD01EB4106431EB3FB51
:10061000F6F35B1CB3E70120C2E701EB4101401E8A
:10062000B0FBF1F0401CC0F30B00B7E7A08601005F
:1006300080841E0000093D0040420F002DE9FF4F5D
:1006400083B09A46DDE9119793460446DDF8408071
:10065000FFF72AFF054694F83D00202870D11923A2
:10066000012271492046009500F0FEFF0028F5D1D7
:1006700094F83C00012863D0012084F83C002068F5
:100680000168C90703D1016841F0010101602068D8
:10069000016821F400610160222084F83D004020BF
:1006A00084F83E0000262664C4F82480A4F82A902A
:1006B000608D20855D48E062CDE9007553465A465D
:1006C0002046049900F0D8FE00287CD1208DD0B1BE
:1006D000012821D00228206824D041698069009037
:1006E000208D032869D801282BD0514902283B4688
:1006F0004FF00002009559D08846204600F0B4FF24
:10070000002860D13CE0206841698169009101685E
:1007100041F40071016077E02068016821F4806194
:100720000160F0E7016821F48061016020680168E0
:1007300041F400610160206841698069009063E0D4
:100740006FE02A463946204601F00DF898BB206834
:100750000069616A08704EE02068016841F4007128
:10076000016020680069616A0870606A401C60620C
:10077000218D491E2185618D491E6185216838E0E2
:100780002068016821F48061016020680069616A65
:100790000870606A401C6062208D401E2085608D5C
:1007A000401E60853B46002241460095204600F0F1
:1007B0005BFF00B9D0E706E0FFE72A46394620464E
:1007C00000F0D1FF18B1012007B0BDE8F08F20681C
:1007D0000069616A0870606A401C6062218D491E70
:1007E0002185618D491E618521684A69D24352077E
:1007F0000AD409690170606A401C6062208D401E45
:100800002085608D401E6085208D00287FF468AFB4
:10081000202084F83D0084F83E6084F83C6000208D
:10082000D2E70220D0E70000020010000000FFFF26
:10083000040001002DE9FF4F83B09A46DDE91197CE
:1008400093460446DDF84080FFF72EFE054694F8F7
:100850003D0020287FD119230122404920460095E0
:1008600000F002FF002876D194F83C00012872D0F5
:10087000012084F83C0020680168C90703D10168A1
:1008800041F0010101602068016821F4006101600C
:10089000212084F83D00402084F83E000026266494
:1008A000C4F82480A4F82A90608D20852C48E0624A
:1008B000CDE9007553465A462046049900F05AFE89
:1008C00070B930E02A463946204600F07FFF58B123
:1008D000206C042804D12068016841F40071016093
:1008E000012007B0BDE8F08F606A216800780861D8
:1008F000606A401C6062218D491E89B22185628D2B
:10090000521E628522685369DB435B070BD469B1D1
:1009100000781061606A401C6062208D401E208556
:10092000608D401E6085208D0028CBD12A46394637
:10093000204600F073FE0028CAD154F83D0B016830
:1009400041F400710160202004F81E09E677667703
:100950000020C6E7FFE70220C3E700000200100006
:100960000000FFFF10B586B0044614216846FFF76B
:1009700069FC14492068884221D11348016841F07C
:10098000020101600068694600F0020005904FF422
:1009900040700090122001900120029003200390EB
:1009A000042004900948FFF78BFC074810300168C9
:1009B00041F400110160006800F40010059006B0D9
:1009C00010BD0000005400403038024000040240D6
:1009D0000248816802781144816070477C000020E1
:1009E0000B4810B5016841F400710160016841F4E1
:1009F00080610160016841F480710160032000F0B2
:100A000061F8002000F006F800F024F8002010BD86
:100A1000003C024070B50D4D04464FF47A712878C1
:100A2000B1FBF0F00A490968B1FBF0F000F0ECFA14
:100A300048B9102C07D200222146501E00F022F89F
:100A400000206C6070BD012070BD00007C000020A3
:100A5000880000200A4808B5016841F4804101601F
:100A6000006800F4804000900548001F016841F0D4
:100A700080510160006800F08050009008BD0000C7
:100A800044380240F0B40E4B1B680C46C3F30223FB
:100A9000C3F10705042D00D90425191D072901D22A
:100AA000002300E0DB1E012606FA05F1491E214065
:100AB00099409E40761E16403143F0BC01F07DBA4D
:100AC0000CED00E0064900F0070208684FF6FF034E
:100AD000184040EA0220034A1043086070470000B3
:100AE0000CED00E00000FA052DE9F0470E46050088
:100AF00065D0DFF81481D8F80000F7B200F00700E5
:100B0000B04207D288F80070D8F8000000F0070063
:100B1000B04254D128683D4C810712D5400703D517
:100B2000206840F4E05020602878000703D5206852
:100B300040F4604020602068A96820F0F00008437D
:100B400020602878C0072DD030496868083901280E
:100B500012D0022813D0032811D009688907002970
:100B60002DDA216821F0030101432160FFF79CFC8D
:100B7000814641F2883A0EE009688903EFE7096887
:100B80008901ECE7FFF790FCA0EB0901514502D980
:100B90000320BDE8F0872068696800F00C00B0EB26
:100BA000810FEFD1D8F80010404601F00701B142A3
:100BB00007D90770006800F00700B04201D001209B
:100BC000E7E72878400705D52068E96820F4E05079
:100BD000084320602878000706D52068296920F49A
:100BE000604040EAC100206000F028F82168084A0F
:100BF000C1F30311515CC84006490860064800680B
:100C0000FFF708FF0020C4E7003C0240083802401C
:100C10009424000888000020800000200448054932
:100C200000680968044AC1F38221515CC8407047DA
:100C30008800002008380240A4240008154810B598
:100C4000006810F00C02144813D04110042A0FD091
:100C5000082A0ED10F4C241F2268236802F03F029D
:100C60005B0207D52068C0F38810A0FB010106E0F5
:100C7000084610BD2168C1F38811A1FB00010023C3
:100C8000FFF7A8FA2168C1F30141491C4900B0FBF4
:100C9000F1F010BD083802400024F4002DE9F84FAF
:100CA00004006ED02078DFF84C93C007A9F104054A
:100CB0004AD009F104000168C1F38101012908D07B
:100CC0000068C0F3810002280AD1D9F80000400270
:100CD00006D52868800337D560680028E1D033E066
:100CE0006068B0F5803F10D0B0F5A02F286810D014
:100CF00020F480302860286820F480202860606814
:100D0000A8B1FFF7D1FB06460DE0286840F480301B
:100D1000F4E740F480202860F7E700BFFFF7C4FB4A
:100D2000801B642873D828688003F7D50CE0FFF790
:100D3000BBFB064605E000BFFFF7B6FB801B64283F
:100D4000F0D828688003F7D42078DFF8AC828007D9
:100D50004FF0000A3ED5A748001D016811F00C0FA6
:100D600008D00068C0F3810002280BD1D9F8000038
:100D7000400207D42868800716D5E068012800D112
:100D800012E033E1E068B8B10120C8F80000FFF7D5
:100D90008BFB064605E000BFFFF786FB801B0228A1
:100DA000C0D828688007F7D52868216920F0F800A6
:100DB00040EAC10028600DE0C8F800A0FFF774FB0E
:100DC000064604E0FFF770FB801B02281FD8286846
:100DD0008007F7D42078000722D5864F87486169BD
:100DE000703771B101210160FFF75EFB064604E038
:100DF000FFF75AFB801B022809D838688007F7D50F
:100E00000EE0C0F800A0FFF74FFB064605E082E0C9
:100E1000FFF74AFB801B02287DD838688007F7D48B
:100E20002078400768D5DFF8CCB100270BF13C0BE8
:100E3000DBF80000C0000BD4DBF8001041F080515B
:100E4000CBF80010DBF80000012700F08050009084
:100E50006B4E3068C00510D4306840F4807030604C
:100E6000FFF722FB009005E0FFF71EFB0099401AF8
:100E7000022850D83068C005F6D55E4EA0686C36A2
:100E800001280FD00528306810D020F00100306014
:100E9000306820F004003060A068B8B1FFF704FBB0
:100EA00000900FE0306840F00100F4E740F00400EB
:100EB0003060F7E7FFF7F8FA0099411A41F28830FD
:100EC000814266D830688007F4D50EE0FFF7ECFA6F
:100ED000009007E0FFF7E8FA0099411A41F28830E4
:100EE000814256D830688007F4D42FB1DBF8001067
:100EF00021F08051CBF80010A069C8B33D49091D0D
:100F00000968C1F3810102294AD00228504607D05E
:100F1000C8F8600000E03CE0FFF7C6FA04463BE09A
:100F20004746C8F86000FFF7BFFA064605E000BF75
:100F3000FFF7BAFA801B02282BD828688001F7D463
:100F4000D4E907010843A16A2E4A490802EB01418E
:100F5000626A41EA8211084394F82C1040EA016168
:100F6000C9F8001001203866FFF79EFA044606E033
:100F70003EE000BFFFF798FA001B022809D8286856
:100F80008001F7D534E000BFFFF78EFA001B02287E
:100F900002D90320BDE8F88F28688001F4D427E047
:100FA0000128F7D0D9F80000E26900F480019142ED
:100FB0001CD1226A00F03F01914217D147F6C0715F
:100FC000626A0140B1EB821F10D1A26A4FF0FF3379
:100FD00000F4403103EB5202B1EB024F06D194F81A
:100FE0002C1000F07060B0EB016F01D00120D1E750
:100FF0000020CFE70438024000004742800E4742FD
:10100000007000400000FFFF10B5401EB0F1807F6F
:1010100001D3012010BD4FF0E02460610F21601763
:1010200000F0CBFF0020A06107202061002010BD50
:1010300070B590F83C20012A2CD0012480F83C4067
:10104000022280F83D2003685A689D6822F07006ED
:101050000A6832435A60104B02689A420ED0B2F1CD
:10106000804F0BD00D4B9A4208D00D4B9A4205D0C1
:101070000C4B9A4202D00C4B9A4204D1496825F09D
:1010800080031943916080F83D40002180F83C10B6
:10109000084670BD022070BD000001400004004001
:1010A00000080040000C00400040014010B5040062
:1010B00003D094F83D0010B107E0012010BD0020DE
:1010C00084F83C00204600F01FF8022084F83D0020
:1010D000211D206800F02CFE012084F8460084F8D1
:1010E0003E0084F83F0084F8400084F8410084F812
:1010F000420084F8430084F8440084F8450084F8F2
:101100003D00002010BD000008B50C4A01680C48E5
:10111000914207D1016841F002010160006800F0CE
:10112000020009E0074A914207D1016841F0040139
:101130000160006800F00400009008BD0004004059
:10114000403802400008004070B5044690F83C006A
:10115000012817D0012584F83C50022084F83D0076
:101160002068826822F0770222F47F428260086859
:10117000502830D00DDC20284DD005DC98B3102845
:101180003BD148E0022070BD302844D0402834D103
:1011900039E0602828D0702806D0B0F5805F2CD0C8
:1011A000B0F5005F29D10AE0CB68D1E901212068C0
:1011B00000F017FE2068816841F0770109E0CB68F4
:1011C000D1E90121206800F00CFE2068816841F41B
:1011D0008041816011E0CA684968206800F0B6FE6D
:1011E0005021206807E016E0CA684968206800F0CE
:1011F000BEFE6021206800F0FEFD84F83D50002016
:1012000084F83C0070BDCA684968206800F09EFE02
:1012100040212068EFE7226801461046EBE7000016
:1012200010B586B0044614216846FFF70BF80E4946
:101230002068884215D10D480021026842F008025A
:101240000260006800F0080005904FF440500090E4
:101250000220CDE90101CDE9031069460448FFF7FA
:101260002FF806B010BD00000008004030380240E2
:10127000000C024070B5044690F83C000D46012871
:101280000AD0012084F83C0042B1042A18D0082A70
:101290002AD00C2A4DD139E0022070BD206800F020
:1012A000B3FD2068816941F008018161206881698E
:1012B00021F004018161206881692A69114311E0EC
:1012C000206800F0C9FD2068816941F400618161F6
:1012D0002068816921F480618161206881692A69BF
:1012E00041EA0221816124E0206800F0E1FD2068EC
:1012F000C16941F00801C1612068C16921F00401A0
:10130000C1612068C1692A69114311E0206800F0B9
:10131000FBFD2068C16941F40061C1612068C169B9
:1013200021F48061C1612068C1692A6941EA022112
:10133000C161002084F83C0070BD10B5040003D0EA
:1013400094F83D0010B107E0012010BD002084F8A2
:101350003C00204600F01EF8022084F83D00211DCC
:10136000206800F0E5FC012084F8460084F83E0087
:1013700084F83F0084F8400084F8410084F842007B
:1013800084F8430084F8440084F8450084F83D0064
:10139000002010BD7047000010B50446022249B17C
:1013A00004290ED0082913D094F84100012816D042
:1013B000012010BD94F83E000128F9D184F83E20A8
:1013C0000FE094F83F000128F2D184F83F2008E0B4
:1013D00094F840000128EBD184F8402001E084F823
:1013E00041200122206800F0EFFC12492068884269
:1013F00003D1426C42F400424264206888420ED01D
:10140000B0F1804F0BD00C49884208D00B4988427C
:1014100005D00B49884202D00A49884204D181682C
:1014200001F00701062903D0016841F001010160C4
:10143000002010BD000001400004004000080040F2
:10144000000C004000400140FEE701684A69D243B9
:1014500052050FD46FF480624A61002140F8301FBA
:10146000202242738173026942F004020261017317
:1014700001207047002070472DE9F84F04460068AE
:1014800089460B9D01689846174641F480610160CA
:101490002068016841F48071016000954FF0011BE4
:1014A0000022594620460A9B00F0DEF84FF4007AED
:1014B00040B120680068C00501D5C4F840A00320F1
:1014C000BDE8F88F216809F0FE0008612B46284925
:1014D00020460A9A00F0FCF8F0BB20684169806958
:1014E00000902A4620460A9900F070F940B1206C1D
:1014F00004283AD12068016841F40071016034E0A9
:10150000FEB2B8F1010F09D02168380A08612A46F5
:1015100020460A9900F05AF90028E8D120680661AF
:101520002A4620460A9900F051F90028DFD12068A8
:10153000016841F4807101600095002259462046FF
:101540000A9B00F091F80028B3D1216809F0FF0050
:1015500040F00100086100E007E02B460449204606
:101560000A9A00F0B5F80028AAD00120A8E70000E8
:10157000020001002DE9F843044600680D46DDE94C
:10158000089701689846164641F4807101604B4601
:1015900000224FF001112046009700F065F848B195
:1015A00020680068C00502D54FF400702064032055
:1015B000BDE8F883216805F0FE0008613B464A4615
:1015C0001549204600F084F888B92068416980698F
:1015D00000903A464946204600F0F8F848B1206CA1
:1015E000042804D12068016841F4007101600120E1
:1015F000DEE7F5B2B8F1010F09D02168300A0861C1
:101600003A464946204600F0E1F80028E7D1206834
:1016100005610020CCE700000200010070B516460D
:101620000D4604460DE02046FFF70FFF08B10120EC
:1016300070BD681C05D0FEF737FF801BA84207D895
:1016400035B120684069C0434007ECD4002070BD2C
:10165000002044F8300F20216173A073216941F00C
:10166000200121612073E2E72DE9F0471E469046F4
:101670000D460446C1F30747DDF8209008E0701CD2
:1016800006D0FEF711FFA0EB0900B0420FD876B1EB
:101690002068012F18D0806925EA00000004000CA2
:1016A00014D000214145EAD00020BDE8F087002099
:1016B00044F8300F20216173A073216941F02001AB
:1016C000216120730120F0E74069E5E70121E9E7A6
:1016D0002DE9F0479A4691460E46044600254FF004
:1016E0002008C1F3074725E020684069C043400552
:1016F00014D42068016841F40071016021686FF41E
:1017000080604861256384F83D8084F83E50206CF9
:1017100040F00400206484F83C501FE0B9F1FF3F22
:1017200008D0FEF7C1FEA0EB0A0149450CD8B9F17B
:10173000000F09D02068012F13D0806926EA00002D
:101740000004000C0BD0CFE744F8305F84F80D8024
:10175000A573206940F02000206125730120BDE8B9
:10176000F0874069EAE72DE9F041002590460E46F2
:101770000446202717E04069C043C0060CD454F843
:10178000301B6FF01000486144F810596777A57757
:10179000206A2062257717E0FEF786FEA0EB08009E
:1017A000B04208D83EB120684169C9434906E2D435
:1017B0000020BDE8F08144F8305F6773A5732069AD
:1017C00040F02000206125730120F2E770B5164635
:1017D0000D4604460DE02046FFF737FE08B1012014
:1017E00070BD681C05D0FEF75FFE801BA84207D8BD
:1017F00035B120684069C0430006ECD4002070BDBC
:10180000002044F8300F20216173A073216941F05A
:10181000200121612073E2E72749284891ED143A1D
:10182000D1ED133A90ED032A70EEC30AD0ED022AEF
:1018300091ED104A41EE203AD0ED010AF0EE601A27
:1018400041EE420A51EE021A71EEE21A41EE422ACC
:1018500031EE844AD0ED001A41EE041A91ED114A9E
:1018600004EE012A91ED121A31EE811A81EE814ABD
:10187000C2EE814A30EE631A44EE013AC1ED133AEA
:10188000B0EE630A04EE813AB0EE611A44EEE12A4A
:1018900004EE611A04EEE02A81ED143A80ED001A9C
:1018A000B0EE601A04EE601A80ED011AC0ED022A53
:1018B00080ED032A70470000000000209000002007
:1018C000F0B585B0012504A8CDE900054FF47A7480
:1018D0002B467522D02102941B48FEF7AFFE9DF8DF
:1018E000100068282ED1002703AE8DF80C700096EA
:1018F000CDE9015401236B22D0211348FEF79AFF52
:1019000007208DF80C000096CDE90154012319221F
:10191000D0210D48FEF78EFF8DF80C700096CDE9B2
:10192000015401231C22D0210748FEF783FF8DF8C4
:101930000C700096CDE9015401231B22D0210248EE
:10194000FEF778FF05B0F0BDA000002000B585B01F
:101950004FF47A72062103A88DE8070001233B2289
:10196000D0211748FEF76AFEBDF80C0040BA02B25B
:10197000144800EE102A0280BDF80E10F8EEC00ADE
:1019800049BA09B241809FED100ABDF810305BBA28
:1019900060EE800A1BB28380C0ED080A00EE901A48
:1019A000F8EEE00A60EE800AC0ED090A00EE903A17
:1019B000F8EEE00A20EE800A80ED0A0A05B000BDCC
:1019C000A0000020000000200000803800B585B095
:1019D0004FF47A72062103A88DE807000123432201
:1019E000D0211748FEF72AFEBDF80C0040BA02B21B
:1019F00000EE102A1348F8EEC00A9FED130AC280C9
:101A0000BDF80E1080EE801A49BA09B2018100EECD
:101A1000901ABDF810305BBAF8EEE00A1BB24381B1
:101A200080ED0B1A80EE801A00EE903AF8EEE00A94
:101A300080ED0C1A80EE801A80ED0D1A05B000BD05
:101A4000A0000020000000200000034310B586B075
:101A500014216846FEF7F6FB1D48016841F080013D
:101A60000160016801F080010591016841F0080101
:101A70000160016801F008010591016841F0010170
:101A80000160016801F001010591016841F0020166
:101A9000016000680F4C00F00200059001224FF435
:101AA000A0612046FEF7FAFC00224FF42061204698
:101AB000FEF7F4FC4FF470600121CDE90001032032
:101AC000CDE9021069462046FEF7FAFB06B010BDCC
:101AD00030380240000C024010B586B00024174890
:101AE00000940194029403940494134905940160B2
:101AF0004CF25031C0E901140121C0E903148461A2
:101B0000FFF7D4FA08B172B6FEE74FF480500090A8
:101B100069460A48FFF718FB08B172B6FEE704945D
:101B200004A906480594FFF783FA002801D072B68D
:101B3000FEE706B010BD000000040040F4000020E5
:101B400010B58EB000240794089409940A940B945D
:101B50001C2168460C94FEF775FB22482049016061
:101B60006421C0E9011440F2E731C0E90314846143
:101B7000FFF79CFA08B172B6FEE74FF48050079069
:101B800007A91848FFF7E0FA08B172B6FEE7154852
:101B9000FFF7D3FB08B172B6FEE70B940BA911480F
:101BA0000C94FFF745FA08B172B6FEE76020CDE964
:101BB00000040294002269460A480494FFF75AFB85
:101BC00008B172B6FEE7042269460648FFF752FBE9
:101BD00008B172B6FEE70348FFF722FB0EB010BD56
:101BE000000800403C010020FEE7FEE721489FED91
:101BF000201A9FED210A80ED161A80ED170A80ED5C
:101C0000180AD0ED070AD0ED1E1A70EEE10AC0EDF9
:101C10001D0A21EE201A80ED191AD0ED1C1A30EEA3
:101C2000A12A70EEE11A22EE002A21EE800A80ED50
:101C30001A2A80ED1B0AC0ED1C0A71EE020A30EE72
:101C4000800A80ED150AFDEEC00A10EE901A81633D
:101C500010EE101A094ADFED0A0A914204DC10EE78
:101C6000101A084A914201D9C0ED150A70470000C8
:101C700000002F43000000200000000000C0794455
:101C800000C0794400C079C470477047FEF7A0BE19
:101C900030B593B030216846FEF7D4FA14210CA871
:101CA000FEF7D0FA1C480025016841F08051016020
:101CB000006800F0805011901848016841F44041DC
:101CC00001600068022400F440401190012000905F
:101CD000000401908001CDE9064008AA0420642197
:101CE00082E813000B906846FEF7D8FF08B172B681
:101CF000FEE70CA90F2081E831004FF48050CDE9B8
:101D00000F0503210CA8FEF7EFFE002801D072B6E4
:101D1000FEE713B030BD00004038024000700040C4
:101D20000248016841F470010160704788ED00E0ED
:101D3000F0B502681D4B1E4C9F031E4D1E4E98426F
:101D400007D0B84205D0A04203D0A84201D0B0428B
:101D500004D122F0700C4A6842EA0C02984210D07A
:101D6000B8420ED0A0420CD0A8420AD0B04208D04F
:101D7000124CA04205D0124CA04202D0114CA042FD
:101D800003D122F44074CA6822434C6922F08002D5
:101D9000224302608A68C2620A688262984201D164
:101DA0000969016301214161F0BD000000000140AB
:101DB0000004004000080040000C004000400140CA
:101DC000004401400048014010B501F01F0301210B
:101DD000046A99408C430462016A9A40114301628B
:101DE00010BD10B5846842EA032224F47F440A43FC
:101DF0002243826010BD826822F070020A4342F0E2
:101E0000070181607047000030B5026A22F00102CC
:101E10000262026A4368846924F073050C682C43EB
:101E200022F002058A682A430A4DA8420BD122F00B
:101E30000805CA6823F440732A434D6922F004025E
:101E40001D438B692B43436084614968416302628F
:101E500030BD00000000014030B5026A22F01002DF
:101E60000262026A436884690D6824F4E64444EA25
:101E700005248D6822F0200242EA05120B4DA8428B
:101E80000ED1CD6822F0800242EA05124D6923F49A
:101E9000406343EA85038D6922F0400243EA8503EB
:101EA0004360846149688163026230BD0000014083
:101EB00030B5026A22F480720262036A4268C46921
:101EC00023F4007324F073050C682C438D6843EAF7
:101ED00005230C4DA8420ED1CD6823F4006343EADC
:101EE00005234D6922F4405242EA05128D6923F41C
:101EF000806342EA05124260C4614968C1630362BB
:101F000030BD00000000014030B5026A22F480526A
:101F10000262046A4268C3690D6823F4E64343EA37
:101F200005238D6824F4005444EA0534064DA84284
:101F300004D14D6922F4804242EA85124260C361B5
:101F400049680164046230BD0000014010B5036AB5
:101F5000046A24F001040462846924F0F00444EA71
:101F6000021423F00A020A438461026210BD10B514
:101F7000036A23F0100303628369046A23F4704345
:101F800043EA023224F0A00343EA011182610162B4
:101F900010BDFEE74100080218BF04200A0E18BF5A
:101FA00040F001004FF07F4232EA010108BF40F0EB
:101FB0000200012808BF052070470907090E002804
:101FC00004DB00F1E02080F80014704700F00F00FF
:101FD00000F1E02080F8141D7047000070B54FF04C
:101FE00068422DED048BF0EE408A18EE900AB0EEB8
:101FF000608A18EE101A02EB4003B3F1654F3CBF44
:1020000002EB4102B2F1654F7DD200BFC0F3C7536E
:10201000C1F3C7529A1A1B2A09DD10F0004F14BFF2
:102020009FED830A9FED830ABDEC048B70BD12F116
:102030001A0F36DA11F0004F09D010F0004F0CBF24
:102040009FED7D0A9FED7D0ABDEC048B70BD88EE8F
:10205000889A19EE100AFFF79DFF042808BF00F0C8
:1020600017F918EE900AFFF795FF054618EE100ACB
:10207000FFF790FF044619EE100AFFF78BFF042DBF
:1020800018BF052D08D1042C18BF052C04D1002839
:1020900004BF022000F014F9B0EE490ABDEC048B35
:1020A00070BD4200B2EB410F3AD910F0004F19BF9A
:1020B000DFED630A9FED630ADFED630A9FED630ABC
:1020C000B0EE481A0A46B1EE688A80F00041F0EEA0
:1020D000418A10460A1A5200B2F1807F34D2484039
:1020E00010F0004FDFED5A1A9FED5A2A1DBFBEEEC9
:1020F000001A70EEE10A30EE420AB6EE001A08BF8E
:1021000070EEA10A00E040E008BF30EE020AB0EE37
:10211000682A01EE482A08EE818AC2EE081A15E004
:1021200011F0004F04BF9FED4C0AF0EE400AD1D0F1
:1021300010F0004F19BFDFED490A9FED490ADFEDAE
:10214000490A9FED490AC5E7C8EE881A21EEA11A8F
:102150009FED462ADFED462A41EE022A9FED452AF1
:1021600001EE222ADFED442A41EE022A9FED432AA6
:10217000BDEC048B01EE222A21EE811A01EE020A47
:1021800030EE210A30EE200A70BD4FF07F42B2EBF4
:10219000400F28BFB2EB410F09D2F0EE480AB0EE73
:1021A000680ABDEC048BBDE8704000F06DB840EAF1
:1021B00001035B0008BF41F0FF410BD0B2EB400FC1
:1021C00008BFB2EB410F08D120F0804008EE900A22
:1021D00021F0804108EE101A18E7B2EB400F12BF51
:1021E0005FEA410340F0FF4001F000413FF40EAFD1
:1021F000B2EB410F12BF5FEA400200F0004041F035
:10220000FF413FF403AF4A0092EA40033FF5FEAEC0
:10221000002AACBF9FED1A0A9FED1A0A68EE808A69
:1022200028EE008A18EE900A18EE101AEEE600006A
:10223000DB0FC9BFDB0FC93FDB0F4940DB0F49C0D4
:102240000000C9BF22AAFDB90000C93F22AAFD397A
:102250000060ED3EC30ACE3700000000000049C018
:1022600022AA7DBA0000494022AA7D3A2DAD65BD63
:102270008FB8D53D0FB511BE61C84C3EA8AAAABE05
:102280000000804F0000802F30EE200A70470000D1
:102290009FED020A20EE000A7047000000000010C7
:1022A00002E008C8121F08C1002AFAD1704770471F
:1022B000002001E001C1121F002AFBD1704700007D
:1022C00001490860704700008C0000202DED028B52
:1022D000FEF786FBFFF7DCFCFFF7B8FB61486049BF
:1022E0004FF4804201606049416000218160C0E993
:1022F000031241618161C1610162FEF7DBF808B13F
:1023000072B6FEE7FFF7E8FBFFF71AFCFFF7D8FA13
:102310009FED560A564C84ED140A84ED130A9FED86
:10232000550A84ED100A9FED540A84ED110A9FEDC1
:10233000530A4C4884ED120A00219C30FFF72CF818
:10234000484804219C30FFF727F89FED4D8ADFEDC8
:102350004D8A444D4FF480779C354B4E4FF40078B6
:102360004FF480694FF4006AFFF7F0FAFFF72EFB95
:10237000FEF79AF800EE100AB8EE400A84ED050A5E
:10238000D4ED060A70EE600A80EE881A84ED0F1A0A
:1023900084ED060A94ED080AD4ED0A0AB1EE400A6B
:1023A000FFF71CFED4ED040A30EE200A20EE281AB6
:1023B00081EE200A84ED030A94ED0F1AD4ED0C0A85
:1023C000FFF72AFA84ED1E0AFFF710FC94ED150AB8
:1023D000B5EEC00AF1EE10FA1CD2B1EE400A84ED5F
:1023E000150A012239463046FEF758F800224146C8
:1023F0003046FEF753F8012249463046FEF74EF8C4
:10240000002251463046FEF749F8D4ED150A9FEDFB
:102410001F0A17E0002239463046FEF73FF8012236
:1024200041463046FEF73AF8002249463046FEF76C
:1024300035F8012251463046FEF730F8D4ED150A42
:102440009FED130A296830EE800ABCEEC00A10EE38
:10245000100A4863296810EE100A886384E70000B8
:1024600000540040A0000020A086010000000000F1
:10247000000000206F12833AA69B443B8FC2F53CBC
:1024800000007A4400003443000C02400000E642A1
:102490000000DC4200000000000000000102030414
:1024A000060708090000000001020304CC2400080C
:1024B0000000002090000000A02200085C25000819
:1024C00090000020F8040000B02200080000000086
:1024D000000000000000000000000000DB0F494089
:1024E0000000000000000000CDCC3D4300000000D3
:1024F00000000000000000000000000000000000DC
:1025000000000000000000000000000000000000CB
:1025100000000000000000000000000000000000BB
:1025200000000000000000000000000000000000AB
:10253000000000000000000000000000000000009B
:10254000000000000000000001000000100000007A
:0C255000000000000024F4000000000067
:040000050800019955
:00000001FF
