:020000040800F2
:100000002807002089010008AF16000841100008E9
:10001000AD160008AF020008191700080000000024
:10002000000000000000000000000000B3160008FF
:10003000B102000800000000B1160008B516000863
:10004000A3010008A3010008A3010008A301000800
:10005000A3010008A3010008A3010008A3010008F0
:10006000A3010008A3010008A3010008A3010008E0
:10007000A3010008A3010008A3010008A3010008D0
:10008000A3010008A3010008A3010008A3010008C0
:10009000A3010008A3010008A3010008A3010008B0
:1000A000A3010008A3010008A3010008A3010008A0
:1000B000A3010008A3010008A3010008A301000890
:1000C000A3010008A3010008A3010008A301000880
:1000D000A3010008A3010008A3010008A301000870
:1000E000A3010008A3010008A301000800F002F822
:1000F00000F03AF80AA090E8000C82448344AAF188
:100100000107DA4501D100F02FF8AFF2090EBAE885
:100110000F0013F0010F18BFFB1A43F0010318473B
:100120000024000020240000103A24BF78C878C1C1
:10013000FAD8520724BF30C830C144BF04680C60ED
:10014000704700000023002400250026103A28BF35
:1001500078C1FBD8520728BF30C148BF0B60704739
:100160001FB51FBD10B510BD00F06CF81146FFF7AC
:10017000F7FF01F04FFC00F08AF803B4FFF7F2FF3D
:1001800003BC00F08DF8000009488047094800478B
:10019000FEE7FEE7FEE7FEE7FEE7FEE7FEE7FEE737
:1001A000FEE7FEE704480549054A064B7047000094
:1001B00017170008ED00000828010020280700207C
:1001C00028030020280300204FF0000200B513464A
:1001D00094469646203922BFA0E80C50A0E80C5067
:1001E000B1F12001BFF4F7AF090728BFA0E80C5018
:1001F00048BF0CC05DF804EB890028BF40F8042B11
:1002000008BF704748BF20F8022B11F0804F18BF7D
:1002100000F8012B704770477047704710B500F029
:1002200009F8006810BD10B5044600F003F804603A
:1002300010BD000000487047C4000020004870470F
:10024000C40000207546FFF7F9FFAE460500694679
:10025000534620F00700854618B020B5FFF7A2FFEF
:10026000BDE820404FF000064FF000074FF00008B7
:100270004FF0000B21F00701AC46ACE8C009ACE838
:10028000C009ACE8C009ACE8C0098D46704710B59C
:100290000446AFF300802046BDE81040FFF76DBF75
:1002A00001491820ABBEFEE7260002007047FEE7BA
:1002B0007047000070B5044600F0FEF80546601C6B
:1002C00002D004480078044400F0F6F8401BA04235
:1002D000FAD370BD500000202DE9F84FDFF8B89137
:1002E000002409F1040A0AF1040B23460F270BF13D
:1002F000040EC9E00125A5402A40AA427DD1674EDF
:10030000D1F804C0ACEB0608B44532D014DCBCF123
:10031000030F3AD009DCBCF1000F2AD0BCF1010F69
:100320001CD0BCF1020F31D11DE0BCF1110F17D070
:10033000BCF1120F2AD119E0B8F5881F19D006DCDC
:10034000B8F5803F15D0B8F5801F1FD111E0B8F582
:10035000001F0ED0B8F5041F18D10AE0CB6815E0D5
:10036000CB681B1D12E0CB6808330FE0CB680C3361
:100370000CE08B682BB1012B4FF0080303D04561D3
:1003800004E0042302E0056100E00023FF2A01D815
:10039000064601E000F104064FEA840501D9A5F103
:1003A0002005D6F8008007FA05FC28EA0C0803FAB5
:1003B00005F548EA0508C6F800804D68ED0062D5ED
:1003C000374DAE6946F00106AE61AD6924F0030613
:1003D00005F001050095334D06EB050CDCF80850DF
:1003E000A607360F07FA06F825EA0805DFF8B880F1
:1003F000404503D14FF0000817E044E0DFF8AC803F
:10040000404502D14FF001080FE0DFF8A4804045DD
:1004100002D14FF0020808E0DFF89880404502D191
:100420004FF0030801E04FF0040808FA06F848EA24
:100430000508CCF808804D68D9F80060ED034D46FA
:1004400001D5164300E096432E604D68DAF800604F
:10045000AD03554601D5164300E096432E604D6826
:10046000DBF80060ED025D4601D5164300E09643DF
:100470002E604D68DEF80060AD02754601D516436A
:1004800000E096432E60641C0D682A46E5407FF428
:1004900031AFBDE8F88F00000004014000001110EA
:1004A000001002400000014000080140000C014023
:1004B00000100140001401400148806870470000AE
:1004C0005000002070B5040025D094F83D000025B0
:1004D00020B984F83C50204600F078FA242084F8B3
:1004E0003D002068016821F0010101602068016879
:1004F00041F4004101602068016821F4004101607D
:1005000000F0B4FB4D4A6168914201D84C4900E0CB
:100510004C49884201D2012070BD4B492368B0FB91
:10052000F1F15E6826F03F060E435E606368934219
:1005300006D94FF4967359434FF47A73B1FBF3F134
:100540002368491C1E6A26F03F0631431962616820
:10055000914210D84900401EB0FBF1F2521CC2F388
:100560000B02042A01D2042022E0B0FBF1F0401C6F
:10057000C0F30B001CE0A268F2B301EBC10303EB74
:100580000116431EB3FBF6F35B1C43F480431B05CB
:1005900049D092B301EBC10202EB0111401EB0FB46
:1005A000F1F0401CC0F30B0040F4804040F40040E8
:1005B0002168CA694CF6FF739A431043C861D4E9B5
:1005C000071001432068026822F0C0021143016055
:1005D000D4E9030101432068826848F2FF339A435B
:1005E00011438160D4E9050108432168CA6822F0FB
:1005F000FF021043C86001E00EE016E020680168C9
:1006000041F0010101602564202084F83D0025634C
:1006100084F83E50002070BD01EB4106431EB3FB41
:10062000F6F35B1CB3E70120C2E701EB4101401E7A
:10063000B0FBF1F0401CC0F30B00B7E7A08601004F
:1006400080841E0000093D0040420F002DE9FF4F4D
:1006500083B00025DDE910799A4693460446DDF81B
:1006600048800095FFF728FF064694F83D002028B3
:100670007CD11923012285492046009600F0F0FD27
:100680000028F5D194F83C0001286FD0012084F8AF
:100690003C0020680168C90703D1016841F00101ED
:1006A00001602068016821F400610160222084F863
:1006B0003D00402084F83E0025646762A4F82A903B
:1006C000608D20857248E062CDE9008653465A4627
:1006D0002046049900F0CCFC00287DD1208DDFF865
:1006E000B491202768B1012814D00228206801683D
:1006F0001ED041F4806101602068416980690090EA
:10070000B6E02068416981690091016841F4007197
:100710000160ADE02068016821F48061016072B67B
:100720002068416981690091016841F400710AE023
:1007300041F40061016072B62068416981690091ED
:10074000016821F48061016062B691E0032868D8F5
:1007500001280CD0022843464FF0000249462046AB
:1007600000960FD000F07CFDB0BB10E08BE032466D
:100770004146204600F0F3FD70BB20680069616AC5
:1007800008706CE000F06CFD30BB72B634E020689D
:10079000016821F48061016072B620680069616AB5
:1007A0000870606A401C6062208D401E2085608D4C
:1007B000401E6085384846F2A8110068B0FBF1F091
:1007C000C0EBC00000EB80000090401E009008D0FD
:1007D00020684069C04300E029E040070CD500983C
:1007E000F3E744F8305F6773A573206940F0200099
:1007F000206162B625731AE02068016841F4007137
:10080000016020680069616A0870606A401C60626B
:10081000218D491E2185618D491E618562B6216841
:100820001BE032464146204600F099FD18B10120F8
:1008300007B0BDE8F08F20680069616A0870606ADF
:10084000401C6062218D491E2185618D491E618594
:1008500021684A69D24352070AD409690170606A63
:10086000401C6062208D401E2085608D401E60858A
:10087000208D00287FF46AAF84F83D7084F83E50E4
:1008800084F83C50D4E70220D2E7000002001000B8
:100890000000FFFF040001005C0000202DE9FF4F75
:1008A00083B09A46DDE9119793460446DDF840800F
:1008B000FFF702FE054694F83D0020287FD119235A
:1008C000012240492046009500F0CAFC002876D15C
:1008D00094F83C00012872D0012084F83C00206884
:1008E0000168C90703D1016841F001010160206876
:1008F000016821F400610160212084F83D0040205E
:1009000084F83E0000262664C4F82480A4F82A90C7
:10091000608D20852C48E062CDE9007553465A462B
:100920002046049900F022FC70B930E02A4639468E
:10093000204600F047FD58B1206C042804D12068FF
:10094000016841F400710160012007B0BDE8F08F3B
:10095000606A216800780861606A401C6062218DCD
:10096000491E89B22185628D521E628522685369B3
:10097000DB435B070BD469B100781061606A401CEF
:100980006062208D401E2085608D401E6085208D18
:100990000028CBD12A463946204600F03BFC0028EF
:1009A000CAD154F83D0B016841F400710160202068
:1009B00004F81E09E67766770020C6E7FFE7022005
:1009C000C3E70000020010000000FFFF10B586B072
:1009D0000021009101910291039100681049884221
:1009E0001BD1104CA06940F00800A061A0696946C5
:1009F00000F0080004904FF4406000901220019035
:100A0000032003900848FFF767FCE06940F480008A
:100A1000E061E06900F48000049006B010BD0000C1
:100A20000058004000100240000C0140024881685C
:100A3000027811448160704750000020074810B5CB
:100A4000016841F010010160032000F067F80F20F9
:100A500000F006F800F024F8002010BD002002404D
:100A600070B50D4D04464FF47A712878B1FBF0F063
:100A70000A490968B1FBF0F000F0CEFA48B9102C31
:100A800007D200222146501E00F028F800206C609A
:100A900070BD012070BD0000500000205C000020EF
:100AA0000C4808B5816941F001018161816901F05B
:100AB00001010091C16941F08051C161C06900F03C
:100AC000805000900448416821F0E06141F00071DD
:100AD000416008BD0010024000000140F0B40E4B20
:100AE0001B680C46C3F30223C3F10705042D00D98C
:100AF0000425191D072901D2002300E0DB1E012671
:100B000006FA05F1491E214099409E40761E164086
:100B10003143F0BC00F014BE0CED00E0064900F0DB
:100B2000070208684FF6FF03184040EA0220034A14
:100B300010430860704700000CED00E00000FA056B
:100B40002DE9F0470F46050061D0434E306800F0B4
:100B50000700B84209D2306820F0070038433060FF
:100B6000306800F00700B84251D128683B4C81073B
:100B700012D5400703D5606840F4E06060602878D3
:100B8000000703D5606840F4605060606068A96841
:100B900020F0F000084360602878C00728D068681B
:100BA000012810D02168022810D0890700292EDAE8
:100BB000616821F0030101436160FFF77DFC80461D
:100BC00041F288390DE021688903EFE78901EDE7FB
:100BD000FFF772FCA0EB0801494502D90320BDE8EC
:100BE000F0876068696800F00C00B0EB810FEFD10E
:100BF000306800F00700B8420BD9306820F00700D9
:100C000038433060306800F00700B84201D001205E
:100C1000E5E72878400705D56068E96820F4E060DA
:100C2000084360602878000706D56068296920F4C9
:100C3000605040EAC100606000F028F86168084A2E
:100C4000C1F30311515CC8400649086006480068BA
:100C5000FFF706FF0020C2E700200240001002401C
:100C6000062500085C0000205400002004480549C7
:100C700000684968044AC1F30221515CC8407047CA
:100C80005C000020001002401625000812A185B06B
:100C90000FC98DE80F0014A0144A00680490516831
:100CA000134801F00C03042B10D0082B0ED1C1F314
:100CB0008343C9031DF803000AD5516804AAC1F390
:100CC0004041515C0A4A5043B0FBF1F005B0704717
:100CD00008494843FAE7000002030405060708092B
:100CE0000A0B0C0D0E0F1010010200000010024044
:100CF00000127A0000093D002DE9F84F040070D081
:100D00002078C04DC00749D06868C0F38100012831
:100D100007D06868C0F38100022809D16868C00361
:100D200006D52868800339D560680028E7D035E00B
:100D30006068B0F5803F0BD010B1B0F5A02F11D096
:100D4000286820F480302860286820F4802002E0A1
:100D5000286840F480302860606890B1FFF7ACFBF1
:100D600006460AE0286840F480202860F0E700BFCB
:100D7000FFF7A2FB801B642873D828688003F7D58F
:100D80000CE0FFF799FB064605E000BFFFF794FB78
:100D9000801B6428F0D828688003F7D420789A4E06
:100DA00080074FF001094FF0000839D5686810F04E
:100DB0000C0F07D06868C0F38100022809D1686869
:100DC000C00306D42868800714D52069012808D1FB
:100DD00010E02069B0B1C6F80090FFF76DFB074640
:100DE00005E00AE1FFF768FBC01B0228C4D82868A9
:100DF0008007F7D52868616920F0F80040EAC10053
:100E000028600DE0C6F80080FFF756FB074604E0B7
:100E1000FFF752FBC01B022823D828688007F7D4AD
:100E2000207800072CD57948A169D9B1C0F8009085
:100E3000FFF742FB074604E0FFF73EFBC01B02281A
:100E40000FD8686A8007F7D571484FF4FA510068E7
:100E5000B0FBF1F0009000BF0098411E0091FAD263
:100E60000EE080E0C0F80080FFF726FB074604E0B4
:100E7000FFF722FBC01B022875D8686A8007F7D4E9
:100E80002078400760D5E8690027C00008D4E869E9
:100E900040F08050E861E869012700F08050009040
:100EA0005C480168C90513D40168834641F4807128
:100EB0000160FFF701FB824606E000BFFFF7FCFA86
:100EC000A0EB0A0064284ED8DBF80000C005F5D579
:100ED000E06801280AD008B1052813D0286A20F05C
:100EE00001002862286A20F0040002E0286A40F02D
:100EF00001002862E06841F2883B98B1FFF7DCFA14
:100F000082460BE0286A40F004002862EEE700BF4A
:100F1000FFF7D2FAA0EB0A0159455AD8286A800790
:100F2000F6D50CE0FFF7C8FA824605E0FFF7C4FAF1
:100F3000A0EB0A0159454CD8286A8007F6D41FB1A6
:100F4000E86920F08050E861E06988B36968C1F31E
:100F50008101022944D00228C6F8608004D0FFF73E
:100F6000ABFA044638E034E0FFF7A6FA074604E09F
:100F7000FFF7A2FAC01B02282BD828688001F7D4FB
:100F8000206AB0F5803F05D16868A16820F4003080
:100F900008436860D4E908010843696821F47411C2
:100FA00008436860C6F86090FFF786FA044606E0DA
:100FB00025E000BFFFF780FA001B022809D8286847
:100FC0008001F7D51BE000BFFFF776FA001B02286F
:100FD00002D90320BDE8F88F28688001F4D40EE020
:100FE0000128F7D06868226A00F48031914204D168
:100FF000616A00F47010884201D00120EAE7002005
:10100000E8E7000000100240000042428004424233
:101010005C0000200070004010B5401EB0F1807FE1
:1010200001D3012010BD4FF0E02460610F21601753
:1010300000F086FB0020A06107202061002010BD89
:10104000FEE701684A69D24352050FD46FF480620B
:101050004A61002140F8301F2022427381730269E7
:1010600042F00402026101730120704700207047C2
:101070002DE9F84F0446006889460B9D01689846A3
:10108000174641F4806101602068016841F4807175
:10109000016000954FF0011B0022594620460A9B33
:1010A00000F0DEF84FF4007A40B120680068C00517
:1010B00001D5C4F840A00320BDE8F88F216809F0ED
:1010C000FE0008612B46284920460A9A00F0FCF8E9
:1010D000F0BB20684169806900902A4620460A9941
:1010E00000F070F940B1206C04283AD12068016802
:1010F00041F40071016034E0FEB2B8F1010F09D093
:101100002168380A08612A4620460A9900F05AF9EF
:101110000028E8D1206806612A4620460A9900F096
:1011200051F90028DFD12068016841F48071016025
:1011300000950022594620460A9B00F091F80028AD
:10114000B3D1216809F0FF0040F00100086100E020
:1011500007E02B46044920460A9A00F0B5F800281B
:10116000AAD00120A8E70000020001002DE9F84301
:10117000044600680D46DDE9089701689846164662
:1011800041F4807101604B4600224FF0011120466E
:10119000009700F065F848B120680068C00502D5E6
:1011A0004FF4007020640320BDE8F883216805F047
:1011B000FE0008613B464A461549204600F084F887
:1011C00088B920684169806900903A4649462046BE
:1011D00000F0F8F848B1206C042804D120680168B8
:1011E00041F4007101600120DEE7F5B2B8F1010FB2
:1011F00009D02168300A08613A464946204600F085
:10120000E1F80028E7D1206805610020CCE7000064
:101210000200010070B516460D4604460DE020465A
:10122000FFF70FFF08B1012070BD681C05D0FFF764
:1012300043F9801BA84207D835B120684069C043F4
:101240004007ECD4002070BD002044F8300F20216E
:101250006173A073216941F0200121612073E2E7ED
:101260002DE9F0471E4690460D460446C1F3074758
:10127000DDF8209008E0701C06D0FFF71DF9A0EB08
:101280000900B0420FD876B12068012F18D08069CC
:1012900025EA00000004000C14D000214145EAD0EA
:1012A0000020BDE8F087002044F8300F2021617352
:1012B000A073216941F02001216120730120F0E732
:1012C0004069E5E70121E9E72DE9F0479A469146B3
:1012D0000E46044600254FF02008C1F3074725E0DD
:1012E00020684069C043400514D42068016841F477
:1012F0000071016021686FF480604861256384F8A3
:101300003D8084F83E50206C40F00400206484F856
:101310003C501FE0B9F1FF3F08D0FFF7CDF8A0EB3C
:101320000A0149450CD8B9F1000F09D02068012FF6
:1013300013D0806926EA00000004000C0BD0CFE730
:1013400044F8305F84F80D80A573206940F02000D8
:10135000206125730120BDE8F0874069EAE72DE9A7
:10136000F041002590460E460446202717E04069CC
:10137000C043C0060CD454F8301B6FF01000486115
:1013800044F810596777A577206A2062257717E01F
:10139000FFF792F8A0EB0800B04208D83EB12068F1
:1013A0004169C9434906E2D40020BDE8F08144F810
:1013B000305F6773A573206940F0200020612573BA
:1013C0000120F2E770B516460D4604460DE02046B2
:1013D000FFF737FE08B1012070BD681C05D0FFF78C
:1013E0006BF8801BA84207D835B120684069C0431C
:1013F0000006ECD4002070BD002044F8300F2021FE
:101400006173A073216941F0200121612073E2E73B
:101410002DE9F74F414F84B00846796A019100F0F9
:101420008DFF0146069800F0B3FEB96A00F05AFD40
:101430003B4C83460698D4F80CA0514600F0A8FE19
:1014400000906668314600F079FFA568294600F0F3
:1014500075FFF96A00F046FD069900F099FE2168D3
:1014600000F040FD81463146009800F05DFF804667
:101470002946009800F058FF02900699386B00F05A
:1014800087FE514600F02EFD82464846796B00F0FB
:1014900029FD06460146484600F08CFD05463146CA
:1014A000029800F087FD06465946049800F046FF72
:1014B00000902846009900F06BFE594600F012FD9E
:1014C000B86283463046009900F062FE019900F050
:1014D00009FD78622846494600F05AFE494600F068
:1014E00023FF20602846414600F052FE414600F0AE
:1014F0001BFF60603046494600F04AFE029900F04A
:1015000013FFA0603046414600F042FE514600F015
:101510000BFFE06007B05846BDE8F08F00000020E8
:1015200060000020F0B585B0012504A8CDE90005D4
:1015300064242B467522D02102941C48FFF786F8BC
:101540009DF8100068282ED1002703AE8DF80C708E
:101550000096CDE9015401236B22D0211348FFF7F7
:101560009DF907208DF80C000096CDE90154012368
:101570001922D0210D48FFF791F98DF80C700096D3
:10158000CDE9015401231C22D0210848FFF786F938
:101590008DF80C700096CDE9015401231B22D02157
:1015A0000248FFF77BF905B0F0BD00007000002095
:1015B000F0B585B06422062103A88DE80700012359
:1015C0003B22D0211548FFF741F8BDF80C00144C20
:1015D00040BA00B22080BDF80E1049BA0EB2668043
:1015E000BDF8101049BA0DB2A58000F0A5FD6FF04E
:1015F0000D07394600F049FFE060304600F09CFDE1
:10160000394600F042FF2061284600F095FD39463A
:1016100000F03BFF606105B0F0BD000070000020ED
:1016200000000020F0B585B06422062103A88DE8F3
:10163000070001234322D0211948FFF707F8BDF81E
:101640000C00184C40BA00B2E080BDF80E1049BA48
:101650000EB22681BDF8101049BA0DB2658100F0B6
:10166000D5FB114F00223B4600F078FA00F044FA17
:10167000A061304600F0CAFB00223B4600F06EFA43
:1016800000F03AFAE061284600F0C0FB00223B4639
:1016900000F064FA00F030FA206205B0F0BD0000FE
:1016A000700000200000002000606040FEE7FEE7C0
:1016B00070477047FFF7BAB930B58FB02821684638
:1016C000FEF782FD14210AA8FEF77EFD0121080421
:1016D000CDE900100024029402250491CDE90750C1
:1016E0004FF4E01009906846FFF706FB08B172B6A8
:1016F000FEE70F20CDE90A054FF48060CDE90C40EC
:1017000002210AA80E94FFF71BFA002801D072B636
:10171000FEE70FB030BD7047FEE74100080218BF7A
:1017200004200A0E18BF40F001004FF07F4232EA59
:10173000010108BF40F00200012808BF05207047E2
:101740000907090E002804DB00F1E02080F80014EE
:10175000704700F00F0000F1E02080F8141D704782
:1017600000F0C0BB6FF05E01080700F08EBE000005
:101770002DE9F0474FF0684202EB40030C46054666
:10178000B3F1654F3CBF02EB4102B2F1654F80F00F
:10179000CD8000BFC0F3C752C1F3C753D21A1B2A72
:1017A00006DD10F0004F14BF87488848BDE8F08779
:1017B00012F11A0F2FDA11F0004F06D010F0004F7F
:1017C0000CBF83488348BDE8F0872146284600F0D7
:1017D000F1FB0646FFF7A1FF042808BFFFF7C2FF91
:1017E0002846FFF79AFF05462046FFF796FF044676
:1017F0003046FFF792FF042D18BF052D08D1042CA9
:1018000018BF052C04D1002804BF0220FEF70BFDF1
:101810003046BDE8F0874200B2EB410F25D910F009
:10182000004F19BF6C4F6D4E6D4F6E4E224685F0C6
:10183000004415460A4680F0004110460A1A52003C
:10184000B2F1807F3ED248406749DFF8A0A110F096
:10185000004F18D04FF03F48384600F06FFD074664
:101860005146304600F06AFD17E011F0004F04BF0A
:1018700000263746E2D010F0004F19BF5C4F5D4E96
:101880005D4F5E4EDAE74FF07C58384600F02AFB99
:1018900007465146304600F025FB0646414628469D
:1018A00000F076FC214600F01DFB824621464046B2
:1018B00000F06EFC294600F037FD514600F07AFB3F
:1018C000044604E02146284600F074FB0446014625
:1018D00000F05EFC80464A4900F05AFC494900F09D
:1018E00001FB414600F054FC474900F0FBFA414639
:1018F00000F04EFC454900F0F5FA414600F048FC86
:10190000434900F0EFFA05464146204600F040FC0E
:10191000294600F03DFC314600F0E4FA214600F093
:10192000E1FA3946BDE8F04700F0DCBA4FF07F42FB
:10193000B2EB400F28BFB2EB410F03D2BDE8F04736
:10194000FFF70EBF40EA01035B0008BF44F0FF4110
:101950000AD0B2EB400F08BFB2EB410F06D125F021
:10196000804024F0804105460C4613E7B2EB400F5F
:1019700012BF5FEA410345F0FF4004F000413FF42D
:1019800009AFB2EB410F12BF5FEA400205F0004021
:1019900044F0FF413FF4FEAE4A0092EA40033FF5B7
:1019A000F9AE002AACBF4FF09F464FF03E5631468D
:1019B00000F0EEFB05463146204600F0E9FB044608
:1019C00028462146E6E60000DB0FC9BFDB0FC93F12
:1019D000DB0F4940DB0F49C00000C9BF22AAFDB997
:1019E0000000C93F22AAFD390060ED3EC30ACE3790
:1019F000000049C022AA7DBA0000494022AA7D3ACF
:101A00002DAD65BD8FB8D53D0FB511BE61C84C3E3B
:101A1000A8AAAABE08B5FFF711F8FFF74DFE2F4898
:101A2000816941F020018161816901F0200100910B
:101A3000816941F008018161816901F0080100912B
:101A4000816941F0040181618069254900F0040049
:101A5000009024484FF480420160234941600021F6
:101A60008160C0E9031241618161C1610162FEF7D9
:101A700029FD08B172B6FEE7FFF754FD1B4C1C4E62
:101A80001C4F00BFFFF794FDFFF7CCFDFEF714FDE0
:101A900000F06AFB20640546616C00F04FFC3146A3
:101AA00000F088FAC4E91150E068616980F00040F4
:101AB000FFF75EFEE16B0D4600F014FA394600F0C8
:101AC00067FB294600F076FAA063A26CE169FFF794
:101AD0009FFCE0646420FEF7EDFBD3E700100240BA
:101AE0000058004070000020A08601000000002087
:101AF00000007A440000344321F00042A2F1605219
:101B0000B2F5801F01F0004328BFD2F17F6C0BD9E2
:101B10005FEA001C43EAC20242EB507018BF7047F4
:101B200028BF20F001007047B2F5801FBCBF1846E7
:101B300070474FEA410C1CF5001F02D2084600F026
:101B4000EEBB70B500F079F900000089FFF7F6BF31
:101B50004FF00040A0F58000704700002DE9C04123
:101B600030B4DFF8A0C23CEA111418BF3CEA1314E9
:101B700000F0EC8081EA03051CEA111444EAD574F4
:101B800018BF1CEA131500F0C780A4EB05044FF042
:101B9000004545EAC12145EAC32341EA505143EAE1
:101BA000525304F17F74994204F500344FEAC02087
:101BB0004FEAC22208BF904200F09C804FEA1365B2
:101BC0000FF24016765D4FEA134506FB05F7C7F1A5
:101BD000807706FB07F74FEAD737A7FB0368764203
:101BE000C8F58038A7FB06CE38BFA8F1010807FB6F
:101BF00008E64FF0000EA6FB028CE6FB03CEDCF1FC
:101C0000000CCEF1004E38BFAEF1010EA6FB0C5811
:101C10004FF000074FF00005E6FB0E87A1FB08C65A
:101C2000A0FB07CE16EB0E0645F10005E1FB0765AC
:101C300015F1E04E7EBFA4F580345FEA46066D41A3
:101C400016F1800745F100054FEA17274FEA0666AF
:101C500047EA0567A6F1DE46B6F1805F4FEA152533
:101C60001FD9384624F0010C05EBC471BCF1FE6F9E
:101C700001EB0C1102D8F0BCBDE8008124425CBF2E
:101C800001F5801E9EEAC47F02D4F0BCBDE800814D
:101C9000244238D4F0BCA1F1C041BDE8004100F0BD
:101CA0001AB94FEAD22242EA43524FEAD323A7FBA2
:101CB00002864FEAD02040EA415007FB03661EEA45
:101CC0000E0F4FEAD12105FB026658BFA6EB005666
:101CD000B6EB00564FEA520E4EEAC37E18EB0E0EDC
:101CE00056EB530EBDD518EB02085E417F1C55F133
:101CF0000005B6E74FF480154FF000074FF00006DF
:101D00004FF00008ADE7F0BC4FF0000001F1C0411A
:101D100001F00041BDE8008111EA0C1F0CEA131527
:101D200000D00CE013EA0C1F00F025804FF00000FB
:101D3000F0BC81EA030101F00041BDE80081F0BC84
:101D4000BDE8004181EA030100F0C5B8F0BCBDE880
:101D5000004170B500F071F8097EFC3E00F007B854
:101D600081EA03014FF0000001F00041704781EA71
:101D7000030100F0B0B8F0BCBDE800414FF0000036
:101D800021497047FFFDFBF9F7F5F4F2F0EEEDEBBA
:101D9000E9E8E6E4E3E1E0DEDDDBDAD8D7D5D4D369
:101DA000D1D0CFCDCCCBCAC8C7C6C5C4C2C1C0BFB5
:101DB000BEBDBCBBBAB9B8B7B6B5B4B3B2B1B0AFBB
:101DC000AEADACABAAA9A8A8A7A6A5A4A3A3A2A19F
:101DD000A09F9F9E9D9C9C9B9A999998979796955A
:101DE00095949393929191908F8F8E8E8D8C8C8BF6
:101DF0008B8A89898888878786858584848383827E
:101E0000828181800000FF070000F87F10F000420F
:101E100048BF4042B0FA80F310FA03F10AD0C3F190
:101E20001D0303F580634FEA415002EB035202EBBE
:101E3000D12170474FF0000070470EF1020E2EF0D6
:101E4000030E5EF8046B364205D4012A43EB03050A
:101E500015F5001F12D8012841EB010C1CF5001FDD
:101E60000CD80ED14FEAD17C15F5001F0CEB4C0CB1
:101E70000CF1020C08BF4CEBD37C04E04FF0080CD3
:101E800001E04FEAD37C0CEB4C0526FA05F606F090
:101E90000706B6F1040C06D20EEB860CBDE87040C6
:101EA0004CF0010C6047DFE80CF0090B02024FF028
:101EB00000414FF00000A1F5002170BD1946104609
:101EC000012851EB010418BFD4F5001484BF002091
:101ED00001F0004170BD0808A0F500114FEA310182
:101EE0007047000090EA010F48BF81F0004100F107
:101EF0002C82421A3CBF801A89184FEAD0524FF008
:101F00007F4C1CEA410FA2EBD15318BF9CEA026F31
:101F100000F03B804FF0004C4CEA00204CEA0121DD
:101F200021FA03FC10EB0C0C1ED202F1FF325FEA27
:101F30001C2040EBC25038BF70471CF07F0F4FEAA7
:101F4000400C18BFBCF17F4F38BF7047C3F120036E
:101F5000994008BF20F00100BCF17F4F38BF7047A7
:101F6000A0F1C04000F0DBB94FEA3C00000A40EBB2
:101F7000C25028BF1CF0FF0F4FEA400CE6D018BF3C
:101F8000BCF17F4F38BF7047EAE79CEA026F05D08B
:101F900010EA5C0F08BF00F00040704710B500F079
:101FA00078F900BF64FBBE3E014800F03CBA00BFB8
:101FB0000000C07F4FF47F0C1CEAD0121EBF1CEA49
:101FC000D11392EA0C0F93EA0C0F00F0858090EA8F
:101FD000010F48BF42F4807240F4000C41F400004D
:101FE0002CF07F4120F07F4000B58142A2EB03023C
:101FF0000FF2081CACEB504EC0F100009EF800E060
:102000004FEA4E0E00FB0EFC38BF49004FEA2C1C75
:1020100002F5FA020CFB0EF34FEACE1E4FEA112C2A
:102020004FEAC1210EEB635E42EB22420EFB0CFC39
:102030004FEA1C5300FB03114FEA112C4FEA013108
:102040000EFB0CFC4FEADC4C00FB0C11C14228BF1C
:1020500009184CEB03335DF804EB10EB410143EB43
:10206000C250B2F57C0F38BF704729D512F0F00F7F
:102070001CBF00F1C04000F0004070470081828327
:102080008485868788898B8C8D8E8F919293959687
:1020900097999A9C9D9FA0A2A3A5A7A8AAACAEB011
:1020A000B2B3B5B7B9BCBEC0C2C5C7C9CCCED1D416
:1020B000D7D9DCDFE2E6E9ECF0F3F7FAFE00000046
:1020C0004FEA400C0CF1807CBCF17E4F28BF70477A
:1020D000B0F1C04000F023B990EA010F0CEAD1132F
:1020E00048BF42F48072624538BF634507D213F49B
:1020F0007F0F16D080EA010000F00040704710B555
:1021000000F0C7F8097EFC3E00F005B880EA010047
:1021100000F00040704780EA010000F0004000F04D
:10212000FEB812F47F0F04BF0248704780EA010036
:1021300000F0F5B80000C07F10F0004148BF4042F9
:10214000B0FA80F310FA03F2C3F19D030BD051EA09
:10215000C35101EB1220530638BF704700F1010054
:1021600008BF20F001007047B0FA80F310FA03F2C4
:10217000C3F19D030AD0D90501EB1220530638BFE5
:10218000704700F1010008BF20F001007047000017
:102190004FF47F0C1CEAD0121EBF1CEAD11392EA46
:1021A0000C0F93EA0C0F00F0478090EA010F48BF34
:1021B00042F480724FF0004C4CEA00204CEA0121BE
:1021C00002EB0302A0FB0113A2F50002002918BFD5
:1021D00043F001035B0028BF4FEA330342EB224286
:1021E0005FEA132C4CEBC2502EBFBCEB436FB2F531
:1021F0007C0F70474FEA036CBCF1004F08BF20F022
:102200000100B2F57C0F38BF70470BD582F0FF029A
:1022100012F5803FC8BF704700F1C040D8BF00F042
:102220000040704700F5000C5FEA4C0C48BF704757
:10223000B0F1C04000F073B890EA010F0CEAD1137E
:1022400048BF42F48072624538BF634504D280EAD9
:10225000010000F00040704710B500F01AF800BF10
:102260008900013E00F007B800F009B85FEA410CB0
:102270005FEA1C6C08D080EA010000F050B85FEA09
:10228000400C5FEA1C6CF6D14FF00040A0F58000D6
:1022900070470EF1020E2EF0030E5EF8044B24423E
:1022A00004D44FEA4102B2F17F4F11D84FEA400304
:1022B000B3F17F4F0CD80ED14FEAD07CB2F17F4FF3
:1022C0000CEB4C0C0CF1020C08BF4CEBD17C04E085
:1022D0004FF0080C01E04FEAD17C0CEB4C0324FAE0
:1022E00003F404F00704B4F1040C06D20EEB840CE2
:1022F000BDE810404CF0010C6047DFE80CF0070827
:1023000002024FF00040A0F5800010BD08464200D8
:1023100018BFD2F1807288BF00F0004010BDFF21CD
:1023200041EAD050C005704780F0004090EA010FAC
:102330007FF5DFAD81F0004100F007B890EA010FB2
:1023400048BF81F000413FF5D4AD421A04D882F075
:102350000042A0EB020011444FEAD0524FF07F4CF4
:102360001CEA410FA2EBD15318BF9CEA026F4AD07E
:102370004FF0004C4CEA00204CEA012121FA03FC0A
:10238000B0EB0C0C0FD412F0FE0F36D05FEA4C000D
:102390001DD5001240EBC25038BF70471CF03F0FF4
:1023A00018BF70470BE0A2F101025FEA1C2040EB6E
:1023B000C25038BF70471CF07F0F18BF7047C3F181
:1023C0002003994014BF401E20F001007047800890
:1023D0004FEA122308BF7047B0FA80FCA2EB0C0250
:1023E000CCF1280C60FA0CF093EA122F04BF00EB3A
:1023F000C25070474FEAC3707047130A5FEADC109F
:1024000008BF7047F6E79CEA026F04D010EA5C0F41
:1024100008BF0020704710B5FFF73BFF40DFF63ED6
:1024200081F0004070470CF00F03092B08BF082013
:1024300000F051800A2B0BD0082B18BF704708BF43
:102440001CF0400F0AD04FF000004FF00001704721
:102450001CF0400F18BF4FF0004070471CF0100FE9
:1024600008D020F0704300F07F4242EAD3014FEAE7
:102470004370704700F0604021F07F4242EA000262
:1024800001F07F4040EA727070474FF0FF0212EA9D
:10249000D0521CBF92F0FF038B42C2BFD14200EB6F
:1024A000C1507047002A0AD0002B0BD0002900F041
:1024B0000040A4BF40F0FE4040F40000704700F030
:1024C0000040704743024FF00B0C18BF4CF0806C7B
:1024D0007FF46AAD70471CF4801F11D01CF4E02F0C
:1024E00003D06FEACC31490070474FF04050EFF312
:1024F000008222F0704242EA000282F300887047B4
:102500004FF00000704700000000000000000102D2
:10251000030406070809000000000102030400008C
:10252000402500080000002060000000280100088D
:10253000A025000860000020C80600004401000833
:10254000000000000000000000000000000000008B
:10255000000000000000000000000000000000007B
:1025600000000000A69B443B000000006F12833A6D
:10257000A69B443B8FC2F53C00000000DB0F4940A6
:10258000000000000000000000000000000000004B
:102590000100000010000000000000000024F40012
:04000005080000ED02
:00000001FF
