:020000040800F2
:10000000380900208901000897240008FB1B00081C
:1000100095240008AF020008AD2900080000000088
:100020000000000000000000000000001325000890
:10003000D302000800000000112500081525000863
:10004000A3010008A3010008A3010008A301000800
:10005000A3010008A3010008A3010008A3010008F0
:10006000A3010008A3010008A3010008A3010008E0
:10007000A3010008A3010008A3010008A3010008D0
:10008000A3010008A3010008A3010008A3010008C0
:10009000A3010008A3010008A3010008A3010008B0
:1000A000A3010008A3010008A3010008A3010008A0
:1000B000A3010008A301000879250008A301000896
:1000C000A3010008A3010008A3010008A301000880
:1000D000A3010008A3010008A3010008A12900084A
:1000E000A3010008A3010008A301000800F002F822
:1000F00000F03AF80AA090E8000C82448344AAF188
:100100000107DA4501D100F02FF8AFF2090EBAE885
:100110000F0013F0010F18BFFB1A43F0010318473B
:10012000303C0000503C0000103A24BF78C878C131
:10013000FAD8520724BF30C830C144BF04680C60ED
:10014000704700000023002400250026103A28BF35
:1001500078C1FBD8520728BF30C148BF0B60704739
:100160001FB51FBD10B510BD00F06CF81146FFF7AC
:10017000F7FF02F099FD00F08AF803B4FFF7F2FFF1
:1001800003BC00F08DF8000009488047094800478B
:10019000FEE7FEE7FEE7FEE7FEE7FEE7FEE7FEE737
:1001A000FEE7FEE704480549054A064B7047000094
:1001B00077250008ED0000083803002038090020EA
:1001C00038050020380500204FF0000200B5134626
:1001D00094469646203922BFA0E80C50A0E80C5067
:1001E000B1F12001BFF4F7AF090728BFA0E80C5018
:1001F00048BF0CC05DF804EB890028BF40F8042B11
:1002000008BF704748BF20F8022B11F0804F18BF7D
:1002100000F8012B704770477047704710B500F029
:1002200009F8006810BD10B5044600F003F804603A
:1002300010BD000000487047D802002000487047F9
:10024000D80200207546FFF7F9FFAE460500694663
:10025000534620F00700854618B020B5FFF7A2FFEF
:10026000BDE820404FF000064FF000074FF00008B7
:100270004FF0000B21F00701AC46ACE8C009ACE838
:10028000C009ACE8C009ACE8C0098D46704710B59C
:100290000446AFF300802046BDE81040FFF76DBF75
:1002A00001491820ABBEFEE7260002007047FEE7BA
:1002B00070B5044615460E46006803F01BFC01D2DB
:1002C000266070BD2946206803F014FBF9D2256032
:1002D00070BD704710B590F821100022022905D09A
:1002E0000421816380F82020012010BD01680B6883
:1002F00023F00E030B6001680B6823F001030B6011
:1003000090F84030C46B012101FA03F3636080F878
:10031000211080F82020104610BD000010B590F884
:1003200021100024022903D00421816301243DE02F
:1003300001680A6822F00E020A6001680A6822F069
:1003400001020A601A4A0168914201D1012121E0AB
:10035000174A1432914201D110211BE0144A28326D
:10036000914201D1891515E0114A3C32914201D1E7
:1003700089140FE00E4A5032914202D14FF480317D
:1003800008E00B4A6432914202D14FF4801101E03F
:100390004FF08071064A083A5160012180F821101F
:1003A000002180F82010416B01B18847204610BD24
:1003B000080002402DE9F84FDFF8B891002409F158
:1003C000040A0AF1040B23460F270BF1040EC9E0BF
:1003D0000125A5402A40AA427DD1674ED1F804C02C
:1003E000ACEB0608B44532D014DCBCF1030F3AD0B4
:1003F00009DCBCF1000F2AD0BCF1010F1CD0BCF10C
:10040000020F31D11DE0BCF1110F17D0BCF1120F5A
:100410002AD119E0B8F5881F19D006DCB8F5803F5D
:1004200015D0B8F5801F1FD111E0B8F5001F0ED010
:10043000B8F5041F18D10AE0CB6815E0CB681B1D86
:1004400012E0CB6808330FE0CB680C330CE08B680C
:100450002BB1012B4FF0080303D0456104E00423C6
:1004600002E0056100E00023FF2A01D8064601E012
:1004700000F104064FEA840501D9A5F12005D6F85C
:10048000008007FA05FC28EA0C0803FA05F548EA9B
:100490000508C6F800804D68ED0062D5374DAE699D
:1004A00046F00106AE61AD6924F0030605F00105D2
:1004B0000095334D06EB050CDCF80850A607360F07
:1004C00007FA06F825EA0805DFF8B880404503D1A9
:1004D0004FF0000817E044E0DFF8AC80404502D15F
:1004E0004FF001080FE0DFF8A480404502D14FF043
:1004F000020808E0DFF89880404502D14FF0030879
:1005000001E04FF0040808FA06F848EA0508CCF8BC
:1005100008804D68D9F80060ED034D4601D51643BB
:1005200000E096432E604D68DAF80060AD03554652
:1005300001D5164300E096432E604D68DBF800605D
:10054000ED025D4601D5164300E096432E604D68EE
:10055000DEF80060AD02754601D5164300E0964313
:100560002E60641C0D682A46E5407FF431AFBDE87B
:10057000F88F00000004014000001110001002403C
:100580000000014000080140000C01400010014043
:10059000001401400AB1016170470904FBE7000043
:1005A00001488068704700008800002070B5040092
:1005B00025D094F83D00002520B984F83C50204611
:1005C00000F078FA242084F83D002068016821F0CA
:1005D000010101602068016841F400410160206868
:1005E000016821F40041016000F0C0FB4D4A6168E0
:1005F000914201D84C4900E04C49884201D2012087
:1006000070BD4B492368B0FBF1F15E6826F03F06F0
:100610000E435E606368934206D94FF49673594364
:100620004FF47A73B1FBF3F12368491C1E6A26F07C
:100630003F06314319626168914210D84900401E5B
:10064000B0FBF1F2521CC2F30B02042A01D20420C7
:1006500022E0B0FBF1F0401CC0F30B001CE0A268EC
:10066000F2B301EBC10303EB0116431EB3FBF6F338
:100670005B1C43F480431B0549D092B301EBC102DC
:1006800002EB0111401EB0FBF1F0401CC0F30B0067
:1006900040F4804040F400402168CA694CF6FF7382
:1006A0009A431043C861D4E90710014320680268E7
:1006B00022F0C00211430160D4E903010143206824
:1006C000826848F2FF339A4311438160D4E90501FF
:1006D00008432168CA6822F0FF021043C86001E0A5
:1006E0000EE016E02068016841F001010160256418
:1006F000202084F83D00256384F83E50002070BD22
:1007000001EB4106431EB3FBF6F35B1CB3E701208C
:10071000C2E701EB4101401EB0FBF1F0401CC0F309
:100720000B00B7E7A086010080841E0000093D0091
:1007300040420F002DE9FF4F83B00025DDE910791D
:100740009A4693460446DDF848800095FFF728FF57
:10075000064694F83D0020287CD1192301228549C2
:100760002046009601F05AFB0028F5D194F83C0091
:1007700001286FD0012084F83C0020680168C90777
:1007800003D1016841F0010101602068016821F492
:1007900000610160222084F83D00402084F83E0082
:1007A00025646762A4F82A90608D20857248E06213
:1007B000CDE9008653465A462046049901F036FAA0
:1007C00000287DD1208DDFF8B491202768B1012861
:1007D00014D00228206801681ED041F480610160B5
:1007E0002068416980690090B6E0206841698169AC
:1007F0000091016841F400710160ADE0206801687A
:1008000021F48061016072B62068416981690091BC
:10081000016841F400710AE041F40061016072B6C0
:100820002068416981690091016821F4806101605B
:1008300062B691E0032868D801280CD0022843460C
:100840004FF000024946204600960FD001F0E6FA2C
:10085000B0BB10E08BE032464146204601F05DFB24
:1008600070BB20680069616A08706CE001F0D6FA1C
:1008700030BB72B634E02068016821F48061016009
:1008800072B620680069616A0870606A401C606224
:10089000208D401E2085608D401E6085384846F2C0
:1008A000A8110068B0FBF1F0C0EBC00000EB8000C5
:1008B0000090401E009008D020684069C04300E0CE
:1008C00029E040070CD50098F3E744F8305F6773E0
:1008D000A573206940F02000206162B625731AE0FC
:1008E0002068016841F40071016020680069616A54
:1008F0000870606A401C6062218D491E2185618DEF
:10090000491E618562B621681BE032464146204699
:1009100001F003FB18B1012007B0BDE8F08F20689B
:100920000069616A0870606A401C6062218D491E1E
:100930002185618D491E618521684A69D24352072C
:100940000AD409690170606A401C6062208D401EF3
:100950002085608D401E6085208D00287FF46AAF61
:1009600084F83D7084F83E5084F83C50D4E702206F
:10097000D2E70000020010000000FFFF04000100A9
:10098000940000202DE9FF4F83B09A46DDE91197CE
:1009900093460446DDF84080FFF702FE054694F8D2
:1009A0003D0020287FD1192301224049204600958F
:1009B00001F034FA002876D194F83C00012872D076
:1009C000012084F83C0020680168C90703D1016850
:1009D00041F0010101602068016821F400610160BB
:1009E000212084F83D00402084F83E000026266443
:1009F000C4F82480A4F82A90608D20852C48E062F9
:100A0000CDE9007553465A462046049901F08CF909
:100A100070B930E02A463946204601F0B1FA58B1A3
:100A2000206C042804D12068016841F40071016041
:100A3000012007B0BDE8F08F606A21680078086186
:100A4000606A401C6062218D491E89B22185628DD9
:100A5000521E628522685369DB435B070BD469B180
:100A600000781061606A401C6062208D401E208505
:100A7000608D401E6085208D0028CBD12A463946E6
:100A8000204601F0A5F90028CAD154F83D0B0168B1
:100A900041F400710160202004F81E09E6776677B2
:100AA0000020C6E7FFE70220C3E7000002001000B5
:100AB0000000FFFF10B586B0002100910191029166
:100AC000039100680F4988421AD10F4CA06940F089
:100AD0000800A061A069694600F008000490C020E9
:100AE000009012200190032003900848FFF762FC59
:100AF000E06940F40010E061E06900F40010049047
:100B000006B010BD0054004000100240000C01402F
:100B10000248816802781144816070478800002093
:100B2000074810B5016841F010010160032000F092
:100B300075F80F2000F006F800F024F8002010BD32
:100B40000020024070B50D4D04464FF47A712878AC
:100B5000B1FBF0F00A490968B1FBF0F000F0ECFAE3
:100B600048B9102C07D200222146501E00F036F85A
:100B700000206C6070BD012070BD00008800002066
:100B8000940000200C4808B5816941F001018161A1
:100B9000816901F001010091C16941F08051C16199
:100BA000C06900F0805000900448416821F0E06185
:100BB00041F00071416008BD00100240000001409A
:100BC000002809DB00F01F0201219140400980004C
:100BD00000F1E020C0F8001170470000F0B40E4BA7
:100BE0001B680C46C3F30223C3F10705042D00D98B
:100BF0000425191D072901D2002300E0DB1E012670
:100C000006FA05F1491E214099409E40761E164085
:100C10003143F0BC01F0DEBE0CED00E0064900F00F
:100C2000070208684FF6FF03184040EA0220034A13
:100C300010430860704700000CED00E00000FA056A
:100C40002DE9F0470F46050061D0434E306800F0B3
:100C50000700B84209D2306820F0070038433060FE
:100C6000306800F00700B84251D128683B4C81073A
:100C700012D5400703D5606840F4E06060602878D2
:100C8000000703D5606840F4605060606068A96840
:100C900020F0F000084360602878C00728D068681A
:100CA000012810D02168022810D0890700292EDAE7
:100CB000616821F0030101436160FFF771FC804628
:100CC00041F288390DE021688903EFE78901EDE7FA
:100CD000FFF766FCA0EB0801494502D90320BDE8F7
:100CE000F0876068696800F00C00B0EB810FEFD10D
:100CF000306800F00700B8420BD9306820F00700D8
:100D000038433060306800F00700B84201D001205D
:100D1000E5E72878400705D56068E96820F4E060D9
:100D2000084360602878000706D56068296920F4C8
:100D3000605040EAC100606000F038F86168084A1D
:100D4000C1F30311515CC8400649086006480068B9
:100D5000FFF7F8FE0020C2E700200240001002402A
:100D6000363D0008940000208C000020044805490E
:100D700000684968044AC1F30221515CC8407047C9
:100D80009400002000100240463D00080448054938
:100D900000684968044AC1F3C221515CC8407047E9
:100DA0009400002000100240463D000812A185B0CA
:100DB0000FC98DE80F0014A0144A00680490516810
:100DC000134801F00C03042B10D0082B0ED1C1F3F3
:100DD0008343C9031DF803000AD5516804AAC1F36F
:100DE0004041515C0A4A5043B0FBF1F005B07047F6
:100DF00008494843FAE7000002030405060708090A
:100E00000A0B0C0D0E0F1010010200000010024022
:100E100000127A0000093D002DE9F84F040070D05F
:100E20002078C04DC00749D06868C0F38100012810
:100E300007D06868C0F38100022809D16868C00340
:100E400006D52868800339D560680028E7D035E0EA
:100E50006068B0F5803F0BD010B1B0F5A02F11D075
:100E6000286820F480302860286820F4802002E080
:100E7000286840F480302860606890B1FFF790FBEC
:100E800006460AE0286840F480202860F0E700BFAA
:100E9000FFF786FB801B642873D828688003F7D58A
:100EA0000CE0FFF77DFB064605E000BFFFF778FB8F
:100EB000801B6428F0D828688003F7D420789A4EE5
:100EC00080074FF001094FF0000839D5686810F02D
:100ED0000C0F07D06868C0F38100022809D1686848
:100EE000C00306D42868800714D52069012808D1DA
:100EF00010E02069B0B1C6F80090FFF751FB07463B
:100F000005E00AE1FFF74CFBC01B0228C4D82868A3
:100F10008007F7D52868616920F0F80040EAC10031
:100F200028600DE0C6F80080FFF73AFB074604E0B2
:100F3000FFF736FBC01B022823D828688007F7D4A8
:100F4000207800072CD57948A169D9B1C0F8009064
:100F5000FFF726FB074604E0FFF722FBC01B022831
:100F60000FD8686A8007F7D571484FF4FA510068C6
:100F7000B0FBF1F0009000BF0098411E0091FAD242
:100F80000EE080E0C0F80080FFF70AFB074604E0AF
:100F9000FFF706FBC01B022875D8686A8007F7D4E4
:100FA0002078400760D5E8690027C00008D4E869C8
:100FB00040F08050E861E869012700F0805000901F
:100FC0005C480168C90513D40168834641F4807107
:100FD0000160FFF7E5FA824606E000BFFFF7E0FA9E
:100FE000A0EB0A0064284ED8DBF80000C005F5D558
:100FF000E06801280AD008B1052813D0286A20F03B
:1010000001002862286A20F0040002E0286A40F00B
:1010100001002862E06841F2883B98B1FFF7C0FA0E
:1010200082460BE0286A40F004002862EEE700BF29
:10103000FFF7B6FAA0EB0A0159455AD8286A80078B
:10104000F6D50CE0FFF7ACFA824605E0FFF7A8FA08
:10105000A0EB0A0159454CD8286A8007F6D41FB185
:10106000E86920F08050E861E06988B36968C1F3FD
:101070008101022944D00228C6F8608004D0FFF71D
:101080008FFA044638E034E0FFF78AFA074604E0B6
:10109000FFF786FAC01B02282BD828688001F7D4F6
:1010A000206AB0F5803F05D16868A16820F400305F
:1010B00008436860D4E908010843696821F47411A1
:1010C00008436860C6F86090FFF76AFA044606E0D5
:1010D00025E000BFFFF764FA001B022809D8286842
:1010E0008001F7D51BE000BFFFF75AFA001B02286A
:1010F00002D90320BDE8F88F28688001F4D40EE0FF
:101100000128F7D06868226A00F48031914204D146
:10111000616A00F47010884201D00120EAE70020E3
:10112000E8E7000000100240000042428004424212
:10113000940000200070004010B5401EB0F1807F88
:1011400001D3012010BD4FF0E02460610F21601732
:1011500001F040FC0020A06107202061002010BDAC
:101160007047704770B590F83C20012A26D00124C2
:1011700080F83C40022280F83D2003685A689D6850
:1011800022F070060A6832435A600D4B02689A4298
:1011900008D0B2F1804F05D00A4B9A4202D00A4BD8
:1011A0009A4204D1496825F080031943916080F880
:1011B0003D40002180F83C10084670BD022070BD03
:1011C000002C0140000400400008004010B504005D
:1011D00003D094F83D0010B107E0012010BD0020BD
:1011E00084F83C00204600F01FF8022084F83D00FF
:1011F000211D206801F0C6F9012084F8460084F81A
:101200003E0084F83F0084F8400084F8410084F8F0
:10121000420084F8430084F8440084F8450084F8D0
:101220003D00002010BD000008B501681048B1F174
:10123000804F14D00F4A914219D1C16941F0040185
:10124000C161C069002200F00400009011461E2018
:10125000FFF7C4FCBDE808401E20FFF7B1BCC16920
:1012600041F00101C161C06900F00100009008BDBA
:10127000001002400008004090F83D10012901D004
:1012800001207047022180F83D100168CA6842F0D1
:101290000102CA6000680B49884208D0B0F1804F53
:1012A00005D00949884202D00849884204D18168A2
:1012B00001F00701062903D0016841F00101016036
:1012C00000207047002C014000040040000800404E
:1012D00070B5044690F83C00012817D0012584F829
:1012E0003C50022084F83D002068826822F077029A
:1012F00022F47F4282600868502830D00DDC20281C
:101300004DD005DC98B310283BD148E0022070BDD9
:10131000302844D0402834D139E0602828D07028C3
:1013200006D0B0F5805F2CD0B0F5005F29D10AE07F
:10133000CB68D1E90121206801F067F92068816854
:1013400041F0770109E0CB68D1E90121206801F083
:101350005CF92068816841F48041816011E0CA68CD
:101360004968206801F006FA5021206807E016E07D
:10137000CA684968206801F00EFA6021206801F00F
:101380004EF984F83D50002084F83C0070BDCA68D6
:101390004968206801F0EEF940212068EFE72268F3
:1013A00001461046EBE7704770B5044600680169D6
:1013B0004FF00005C943890715D4C168C94389079F
:1013C00011D4E91E0161012020772068806980071F
:1013D000204602D0FFF7E7FF04E000F0BDF820460A
:1013E00000F04CF9257720680169C943490717D4F3
:1013F000C168C943490713D46FF004010161022099
:1014000020772068806910F4407F204602D0FFF7E3
:10141000CAFF04E000F0A0F8204600F02FF925777D
:1014200020680169C943090716D4C168C94309077F
:1014300012D46FF008010161042020772068C06990
:101440008007204602D0FFF7AEFF04E000F084F8EA
:10145000204600F013F9257720680169C943C906C1
:1014600017D4C168C943C90613D46FF010010161D4
:10147000082020772068C06910F4407F204602D001
:10148000FFF791FF04E000F067F8204600F0F6F85F
:10149000257720680169C943C90708D1C168C943D4
:1014A000C90704D1891E0161204600F037F9206880
:1014B0000169C943090609D4C168C943090605D4AD
:1014C0006FF0800101612046FFF74AFE2068016944
:1014D000C943490609D4C168C943490605D46FF018
:1014E00040010161204600F0F5F920680169C94317
:1014F00089060BD4C168C943890607D46FF020015F
:1015000001612046BDE87040FFF72BBE70BD0000B2
:1015100000B585B00021009101910291039100680E
:10152000B0F1804F11D10A48816941F00401816115
:101530008069694600F004000490032000900220B6
:10154000019003900348FEF735FF05B000BD000091
:101550000010024000080140704770B5044690F842
:101560003C000D4601280AD0012084F83C0042B11D
:10157000042A18D0082A2AD00C2A4DD139E002209A
:1015800070BD206801F054F82068816941F00801BD
:1015900081612068816921F004018161206881698D
:1015A0002A69114311E0206801F06AF82068816916
:1015B00041F4006181612068816921F48061816169
:1015C000206881692A6941EA0221816124E020685A
:1015D00001F082F82068C16941F00801C16120680A
:1015E000C16921F00401C1612068C1692A69114300
:1015F00011E0206801F09CF82068C16941F40061A5
:10160000C1612068C16921F48061C1612068C1693C
:101610002A6941EA0221C161002084F83C0070BDC2
:1016200010B5040003D094F83D0010B107E001208C
:1016300010BD002084F83C00204600F01EF8022077
:1016400084F83D00211D206800F09CFF012084F8F3
:10165000460084F83E0084F83F0084F8400084F897
:10166000410084F8420084F8430084F8440084F880
:10167000450084F83D00002010BD70477047000011
:1016800010B50446022249B104290ED0082913D00E
:1016900094F84100012816D0012010BD94F83E00B6
:1016A0000128F9D184F83E200FE094F83F0001288A
:1016B000F2D184F83F2008E094F840000128EBD1F3
:1016C00084F8402001E084F841200122206800F0E5
:1016D0008FFF0F492068884203D1426C42F40042D8
:1016E00042642068884208D0B0F1804F05D0094993
:1016F000884202D00849884204D1816801F007017C
:10170000062903D0016841F001010160002010BDED
:10171000002C01400004004000080040F0B55F4983
:10172000006887B0096888427ED15C4801225C4924
:10173000483000F04BFA5A4C5A480021E161C4E9A4
:101740000810207855280AD044280AD0522810D0F2
:101750004C2810D0752811D0642811D012E0A16354
:1017600010E0E06BB0F5000F01DB4F4804E04F489C
:1017700002E04F4800E04F48A06303E04E4800E01D
:101780004E4860624E480090454A44483C32A2F1BF
:1017900014019C38E36C00F0A3FC414B02AD5833BC
:1017A0001A1F111F181D85E80F00011D606BCDE980
:1017B000000104F124000FC800F06EFE384B606099
:1017C0006C331A1F111F181D85E80F00011DA06C36
:1017D000CDE9000104F138000FC800F05DFEA06003
:1017E00080F00045C4E9030501466068064601F043
:1017F00013FF60612946304601F00EFFA061314DB4
:10180000314E27482A4631461430FEF751FD244810
:101810002A4631461830FEF74BFD204E2B4F6069AB
:10182000483E2B4DB84200E035E009D380F000403F
:101830006061012210212846FEF7ACFE002205E07F
:10184000002210212846FEF7A5FE0122202128466D
:10185000FEF7A0FE606902F015F831684863A069E0
:10186000B84209D380F00040A061012240212846FF
:10187000FEF790FE002205E0002240212846FEF7F8
:1018800089FE012280212846FEF784FEA06901F02E
:10189000F9FF3168886307B0F0BD00003C0200200A
:1018A000000000200080344300003443000034C3B3
:1018B0000000B4420000B4C20080364300803243CE
:1018C0006F12833A00C079C400C079440000808060
:1018D000000801407047704770470000F8B5026883
:1018E00004461068D168536910F00F0F4FF00005DF
:1018F00053D003F0010601F4907737435FD0C2075D
:1019000005D0CA0503D5226C42F0010222644207C9
:1019100005D5DA0703D0226C42F002022264820766
:1019200005D5DA0703D0226C42F0040222640207D4
:1019300007D501F02002324303D0226C42F00802A6
:101940002264226C002A34D0800604D5880602D591
:10195000204600F052FF20684069216CC0F38010DF
:10196000090700D430B3204600F02FFF20684169FA
:1019700049061BD5416921F040014161A06BA8B126
:1019800058494163A06BFEF7C9FC002811D0A06B39
:10199000416B01B0BDE8F040084783060FD58B06C8
:1019A0000DD52046BDE8F84000F027BF2046FFF7E0
:1019B00093FFF8BD2046FFF78FFF2564F8BD266B27
:1019C0002023012E52D1C60650D5CE064ED5106822
:1019D00050680090506940062AD5A16B086840689D
:1019E0000004000CEAD0A68D8642E7D9E08588691C
:1019F000202818D0D06820F48070D0602068416919
:101A000021F0010141612068416921F040014161FB
:101A100084F83E3025632068C16821F01001C16060
:101A2000A06BFEF757FCA08DE18D401A81B219E042
:101A3000A08DE18D401A81B2E08D0028BED0002932
:101A4000BCD0D06820F49070D0602068426922F049
:101A50000102426184F83E3025632068C26822F0AA
:101A60001002C2602046FFF736FFF8BD05062BD5F1
:101A70000D0629D594F83D002128F6D1A068B0F5CF
:101A8000805F01D12069B0B1206A411C21622168C8
:101A900000784860E08C401E0004000CE084E4D133
:101AA0002068C16821F08001C1602068C16841F0F0
:101AB0004001C160F8BD206A0088C0F30800506092
:101AC000206A801C2062E5E74006F3D54806F1D580
:101AD000D168204621F04001D16084F83D3000F00B
:101AE0008BF8F8BDBB27000870B5040004D094F84B
:101AF0003D00002510B106E0012070BD84F83C5087
:101B0000204600F023F8242084F83D002068C168B6
:101B100021F40051C160204600F0CAFE206801692E
:101B200021F4904101612068416921F02A0141615D
:101B30002068C16841F40051C1602564202084F808
:101B40003D0084F83E00002070BD000030B585B037
:101B50000024009401940294039400681849884278
:101B60002CD11848C16941F48021C161C16901F4D7
:101B700080210491816941F0080181618069124DE1
:101B800000F0080004904FF4806000900220019063
:101B90000320039069462846FEF70CFCE814CDE9C3
:101BA0000004694628460294FEF704FC0022012145
:101BB0002720FFF713F82720FFF702F805B030BD04
:101BC0000048004000100240000C014090F83E30F8
:101BD000202B0ED159B152B190F83C30012B08D0D6
:101BE000012380F83C300023036300F0BDBE0120D8
:101BF00070470220704770477047FEE701684A69E6
:101C0000D24352050FD46FF480624A61002140F83C
:101C1000301F202242738173026942F00402026184
:101C20000173012070470020704700002DE9F84F34
:101C30000446006889460B9D01689846174641F4A2
:101C4000806101602068016841F480710160009545
:101C50004FF0011B0022594620460A9B00F0DEF897
:101C60004FF4007A40B120680068C00501D5C4F87F
:101C700040A00320BDE8F88F216809F0FE0008614C
:101C80002B46284920460A9A00F0FCF8F0BB206851
:101C90004169806900902A4620460A9900F070F94F
:101CA00040B1206C04283AD12068016841F40071E9
:101CB000016034E0FEB2B8F1010F09D02168380AA2
:101CC00008612A4620460A9900F05AF90028E8D10E
:101CD000206806612A4620460A9900F051F900283A
:101CE000DFD12068016841F4807101600095002215
:101CF000594620460A9B00F091F80028B3D121688C
:101D000009F0FF0040F00100086100E007E02B4609
:101D1000044920460A9A00F0B5F80028AAD001200C
:101D2000A8E70000020001002DE9F843044600681E
:101D30000D46DDE9089701689846164641F4807122
:101D400001604B4600224FF001112046009700F041
:101D500065F848B120680068C00502D54FF40070EE
:101D600020640320BDE8F883216805F0FE000861C7
:101D70003B464A461549204600F084F888B9206859
:101D80004169806900903A464946204600F0F8F8DB
:101D900048B1206C042804D12068016841F4007126
:101DA00001600120DEE7F5B2B8F1010F09D021682A
:101DB000300A08613A464946204600F0E1F800281A
:101DC000E7D1206805610020CCE700000200010097
:101DD00070B516460D4604460DE02046FFF70EFF8F
:101DE00008B1012070BD681C05D0FEF7D9FB801B2F
:101DF000A84207D835B120684069C0434007ECD4F9
:101E0000002070BD002044F8300F20216173A073C2
:101E1000216941F0200121612073E2E72DE9F047BB
:101E20001E4690460D460446C1F30747DDF8209054
:101E300008E0701C06D0FEF7B3FBA0EB0900B0422F
:101E40000FD876B12068012F18D0806925EA0000EC
:101E50000004000C14D000214145EAD00020BDE868
:101E6000F087002044F8300F20216173A0732169AE
:101E700041F02001216120730120F0E74069E5E78E
:101E80000121E9E72DE9F0479A4691460E460446BE
:101E900000254FF02008C1F3074725E0206840697E
:101EA000C043400514D42068016841F4007101600A
:101EB00021686FF480604861256384F83D8084F870
:101EC0003E50206C40F00400206484F83C501FE039
:101ED000B9F1FF3F08D0FEF763FBA0EB0A014945CB
:101EE0000CD8B9F1000F09D02068012F13D08069F8
:101EF00026EA00000004000C0BD0CFE744F8305F66
:101F000084F80D80A573206940F0200020612573BE
:101F10000120BDE8F0874069EAE72DE9F04100259E
:101F200090460E460446202717E04069C043C0068D
:101F30000CD454F8301B6FF01000486144F810596D
:101F40006777A577206A2062257717E0FEF728FBE0
:101F5000A0EB0800B04208D83EB120684169C943EF
:101F60004906E2D40020BDE8F08144F8305F677391
:101F7000A573206940F02000206125730120F2E75D
:101F800070B516460D4604460DE02046FFF736FEB6
:101F900008B1012070BD681C05D0FEF701FB801B55
:101FA000A84207D835B120684069C0430006ECD488
:101FB000002070BD002044F8300F20216173A07311
:101FC000216941F0200121612073E2E72DE9F74FFB
:101FD000414F84B00846796A019101F0C7FD01467E
:101FE000069801F0BBFCB96A01F016FB3B4C834636
:101FF0000698D4F80CA0514601F0B0FC0090666839
:10200000314601F0B3FDA568294601F0AFFDF96A3C
:1020100001F002FB069901F0A1FC216801F0FCFA35
:1020200081463146009801F096FD80462946009889
:1020300001F091FD02900699386B01F08FFC51463A
:1020400001F0EAFA82464846796B01F0E5FA064665
:102050000146484601F054FB05463146029801F01E
:102060004FFB06465946049801F080FD0090284633
:10207000009901F073FC594601F0CEFAB86283462C
:102080003046009901F06AFC019901F0C5FA7862C6
:102090002846494601F062FC494601F05CFD20609B
:1020A0002846414601F05AFC414601F054FD60606B
:1020B0003046494601F052FC029901F04CFDA06007
:1020C0003046414601F04AFC514601F044FDE060D3
:1020D00007B05846BDE8F08F98000020C8020020E5
:1020E0002DE9F0471D4616468A460446DDF8209045
:1020F00000F09AF8204600F0CDF8224C2946206ADC
:1021000001F034FD80462062484601F059FA1E4A2B
:102110001E4B00F055FE05460F46404601F050FAB2
:102120002A463B4601F064F805460F46306801F048
:1021300047FA2A463B4600F043FE00F00FFE3060AF
:10214000E068616980F0004000F05CFC01F038FA62
:102150000F4D104E2A46334600F032FE00220E4B41
:1021600001F046F82A46334600F0D2FE00F0F6FDB4
:10217000A0634A46E169FFF729FFCAF80000BDE8FD
:10218000F08700009800002092CB7F48BF7D4D3F34
:10219000E38D9354FB210940008066402DE9F04116
:1021A00086B08046012504A8CDE9000564242B46AD
:1021B0007522D02102944046FEF7BCFA9DF810002B
:1021C00068282ED1002703AE8DF80C700096CDE95B
:1021D000015401236B22D0214046FEF7D3FB072098
:1021E0008DF80C000096CDE9015401231922D0216D
:1021F0004046FEF7C7FB8DF80C700096CDE9015400
:1022000001231C22D0214046FEF7BCFB8DF80C7048
:102210000096CDE9015401231B22D0214046FEF750
:10222000B1FB06B0BDE8F081F0B585B064230622AD
:1022300003A98DE80E0001233B22D021FEF77AFA94
:10224000BDF80C00124C40BA00B22080BDF80E1050
:1022500049BA0EB26680BDF8101049BA0DB2A58019
:1022600001F030FB6FF00D07394601F026FDE0600C
:10227000304601F027FB394601F01FFD206128465A
:1022800001F020FB394601F018FD606105B0F0BD9A
:1022900098000020F0B585B06423062203A98DE8DC
:1022A0000E0001234322D021FEF744FABDF80C00B2
:1022B000164C40BA00B2E080BDF80E1049BA0EB21A
:1022C0002681BDF8101049BA0DB2658100F078FF83
:1022D0000F4F00223B4600F01BFE00F03FFDA061C7
:1022E000304600F06DFF00223B4600F011FE00F08A
:1022F00035FDE061284600F063FF00223B4600F018
:1023000007FE00F02BFD206205B0F0BD9800002014
:102310000060604030B585B00024184800940194F6
:1023200002940394816941F020018161816901F087
:1023300020010491816941F004018161816901F00A
:1023400004010491816941F00801816180690C4DAB
:1023500000F0080004900022F0212846FEF71AF948
:10236000F02000900120CDE901040220039069468D
:102370002846FEF71FF805B030BD000000100240EF
:102380000008014010B58EB0002407940894099409
:102390000A940B941C2168460C94FDF715FF224803
:1023A0004FF0804101604721C0E9011440F2E7315C
:1023B000C0E903148461FEF709FF08B172B6FEE7B5
:1023C0004FF48050079007A91748FEF781FF08B126
:1023D00072B6FEE71448FFF723F908B172B6FEE7BC
:1023E0000B940BA910480C94FEF7BCFE08B172B612
:1023F000FEE76020CDE900040294002269460A4805
:102400000494FFF7AAF808B172B6FEE70422694601
:102410000548FFF7A2F808B172B6FEE70248FFF7D9
:1024200077F80EB010BD0000F401002010B586B0A2
:1024300000241748009401940294039404941349CF
:102440000594016040F60F61C0E901140921C0E95B
:1024500003148461FEF7BAFE08B172B6FEE74FF4CA
:102460008050009069460A48FEF732FF08B172B604
:10247000FEE7049404A906480594FEF773FE0028BD
:1024800001D072B6FEE706B010BD000000080040A3
:102490003C020020FEE7FEE72DE9F05F92460AAA23
:1024A0009B4692E8F00301F061FB0146286050462C
:1024B00001F054FA38603168286801F0ADF85946E7
:1024C00001F04CFAC8F800003168286801F04EFBB2
:1024D000214601F043FAC9F8000028683060D8F8B6
:1024E0000010386801F098F8D9F8001001F094F85D
:1024F000044C054A054920602046FDF7D9FE2068B6
:10250000BDE8F09FD400002000C079C400C0794429
:1025100070477047FEF7FCBA30B58FB02821684687
:10252000FDF752FE14210AA8FDF74EFE0121080412
:10253000CDE900100024029402250491CDE9075052
:102540004FF4E01009906846FEF766FC08B172B6D9
:10255000FEE70F20CDE90A054FF48060CDE90C407D
:1025600002210AA80E94FEF76BFB002801D072B678
:10257000FEE70FB030BD70470148FEF715BF000001
:102580003C020020F0B50268164B174C174D4FF077
:102590008047984205D0B84203D0A04201D0A8425B
:1025A00003D122F070064A683243984205D0B842FF
:1025B00003D0A04201D0A84203D122F44074CA68DB
:1025C00022434C6922F08002224302608A68C26280
:1025D0000A688262984201D109690163012141615F
:1025E000F0BD0000002C0140000400400008004045
:1025F00010B501F01F030121046A99408C43046265
:10260000016A9A401143016210BD10B5846842EA24
:10261000032224F47F440A432243826010BD82686F
:1026200022F070020A4342F0070181607047000007
:1026300030B5026A22F001020262026A43688469CC
:1026400024F073050C682C4322F002058A682A43A3
:102650000A4DA8420BD122F00805CA6823F4407342
:102660002A434D6922F004021D438B692B434360CA
:10267000846149684163026230BD0000002C014062
:1026800030B5026A22F010020262026A436884696D
:102690000D6824F4E64444EA05248D6822F0200203
:1026A00042EA05120B4DA8420ED1CD6822F08002FD
:1026B00042EA05124D6923F4406343EA85038D69BC
:1026C00022F0400243EA85034360846149688163E4
:1026D000026230BD002C014030B5026A22F48072E3
:1026E0000262036A4268C46923F4007324F073052C
:1026F0000C682C438D6843EA05230C4DA8420ED18B
:10270000CD6823F4006343EA05234D6922F4405267
:1027100042EA05128D6923F4806342EA05124260A1
:10272000C4614968C163036230BD0000002C0140F0
:1027300030B5026A22F480520262046A4268C369B8
:102740000D6823F4E64343EA05238D6824F400541E
:1027500044EA0534064DA84204D14D6922F4804272
:1027600042EA85124260C36149680164046230BD77
:10277000002C014010B5036A046A24F001040462CD
:10278000846924F0F00444EA021423F00A020A43A4
:102790008461026210BD10B5036A23F01003036266
:1027A0008369046A23F4704343EA023224F0A003ED
:1027B00043EA01118261016210BD10B5406A002137
:1027C000C185C184FFF788F810BD0168CA6822F48A
:1027D0009072CA6001684A6922F001024A61016B85
:1027E000012904D10168CA6822F01002CA602021C0
:1027F00080F83E1000210163704708B590F83E1044
:10280000222901D0022008BD82684FF480539A42E9
:1028100001D1016921B1816A9A421BD04AB10AE013
:102820000268816A5268C2F308020A80816A891CC0
:1028300008E0026972B10268526802F07F020A7011
:10284000816A491C8162C18D491E0904090CC18538
:1028500003D019E002685268F1E70168CA6822F003
:102860002002CA600168CA6822F48072CA600168E6
:102870004A6922F001024A61202180F83E10016B72
:10288000012903D0FFF7B7F9002008BD002101633B
:102890000168CA6822F01002CA6001680A68D2069C
:1028A00002D50A6849680091818DFFF714F8EBE7BB
:1028B00070B5044600680169E26821F44051114393
:1028C00001612169A0680843616908432168CA68F9
:1028D00041F20C639A430243CA6020684169A269CD
:1028E00021F44071114341611E492068884202D1A0
:1028F000FEF74CFA01E0FEF739FA00EBC00101EBFC
:102900000012606864218000B2FBF0F3B3FBF1F3C6
:102910006FF018067343B2FBF0F5B2FBF0F605EB6F
:102920008305322303EB0515B5FBF1F5B6FBF1F694
:1029300005F0F00505EB0615B2FBF0F6B2FBF0F082
:10294000B0FBF1F06FF01802504306EB800003EB90
:102950000010B0FBF1F0216800F00F0028448860FF
:1029600070BD00000038014081628285C28500216F
:102970000164222280F83E2080F83C100168CA6879
:1029800042F48072CA6001684A6942F001024A61F9
:102990000068C16841F02001C1600020704700005C
:1029A0000148FEF79BBF000084020020FEE74100C3
:1029B000080218BF04200A0E18BF40F001004FF0B3
:1029C0007F4232EA010108BF40F00200012808BF3F
:1029D000052070470907090E002804DB00F1E020FC
:1029E00080F80014704700F00F0000F1E02080F83C
:1029F000141D704700F010BE6FF05E01080701F073
:102A00005CB900002DE9F0474FF0684202EB40034B
:102A10000C460546B3F1654F3CBF02EB4102B2F1F3
:102A2000654F80F0CD8000BFC0F3C752C1F3C753DC
:102A3000D21A1B2A06DD10F0004F14BF87488848C1
:102A4000BDE8F08712F11A0F2FDA11F0004F06D00F
:102A500010F0004F0CBF83488348BDE8F087214643
:102A6000284600F04DFE0646FFF7A1FF042808BFE8
:102A7000FFF7C2FF2846FFF79AFF05462046FFF7FB
:102A800096FF04463046FFF792FF042D18BF052D30
:102A900008D1042C18BF052C04D1002804BF022043
:102AA000FDF7C1FB3046BDE8F0874200B2EB410FB5
:102AB00025D910F0004F19BF6C4F6D4E6D4F6E4E03
:102AC000224685F0004415460A4680F00041104633
:102AD0000A1A5200B2F1807F3ED248406749DFF8BF
:102AE000A0A110F0004F18D04FF03F48384601F039
:102AF0003DF807465146304601F038F817E011F02E
:102B0000004F04BF00263746E2D010F0004F19BF37
:102B10005C4F5D4E5D4F5E4EDAE74FF07C583846B5
:102B200000F07AFD07465146304600F075FD064636
:102B30004146284600F012FF214600F06DFD824616
:102B40002146404600F00AFF294601F004F85146AC
:102B500000F0D6FD044604E02146284600F0D0FDF2
:102B60000446014600F0FAFE80464A4900F0F6FEAF
:102B7000494900F051FD414600F0F0FE474900F0A0
:102B80004BFD414600F0EAFE454900F045FD414657
:102B900000F0E4FE434900F03FFD05464146204673
:102BA00000F0DCFE294600F0D9FE314600F034FD8D
:102BB000214600F031FD3946BDE8F04700F02CBD5C
:102BC0004FF07F42B2EB400F28BFB2EB410F03D270
:102BD000BDE8F047FFF70EBF40EA01035B0008BF06
:102BE00044F0FF410AD0B2EB400F08BFB2EB410FF7
:102BF00006D125F0804024F0804105460C4613E7BD
:102C0000B2EB400F12BF5FEA410345F0FF4004F012
:102C100000413FF409AFB2EB410F12BF5FEA40023F
:102C200005F0004044F0FF413FF4FEAE4A0092EA56
:102C300040033FF5F9AE002AACBF4FF09F464FF07E
:102C40003E56314600F08AFE05463146204600F0E9
:102C500085FE044628462146E6E60000DB0FC9BF94
:102C6000DB0FC93FDB0F4940DB0F49C00000C9BF84
:102C700022AAFDB90000C93F22AAFD390060ED3E3D
:102C8000C30ACE37000049C022AA7DBA00004940DD
:102C900022AA7D3A2DAD65BD8FB8D53D0FB511BEC9
:102CA00061C84C3EA8AAAABEFDF73AFFFFF734FC64
:102CB000FFF730FBFFF766FBFFF7B8FB234822491D
:102CC000002501602249C0E901154FF48041C0E9A7
:102CD000035145618561C5610562FDF767FC08B177
:102CE00072B6FEE7194C1B48E43420604FF41650CE
:102CF000C4E901050C20E560C4E90450A561204643
:102D0000E561FEF7F1FE08B172B6FEE70F48FFF786
:102D100045FA0E4801221049E430FEF757FF2068BB
:102D2000C16841F04001C160084800215430FEF7FD
:102D3000A7FC064804215430FEF7A2FC03489C304F
:102D4000FEF79AFAFEE7000000540040A0010020C0
:102D5000A0860100004800400000002021F0004251
:102D6000A2F16052B2F5801F01F0004328BFD2F1FA
:102D70007F6C0BD95FEA001C43EAC20242EB507041
:102D800018BF704728BF20F001007047B2F5801FC0
:102D9000BCBF184670474FEA410C1CF5001F02D219
:102DA000084600F0A2BE70B500F0CCFA0000008921
:102DB000FFF7F6BF4FF00040A0F58000704700001D
:102DC00010B591EA030F48BF83F0004300F116836A
:102DD000841A71EB030C05D2121943EB0C03001B90
:102DE00061EB0C01DFF824E14FEA1154A4EB135C12
:102DF0001EEA430F18BF9EEA445F73D023EA0E0316
:102E0000DCF1200E21EA045143F4801332D322FA7C
:102E10000CFE10EB0E0023FA0CFE41EB0E01CCF180
:102E2000200E03FA0EFE10EB0E0051F10001B1F579
:102E3000801FCCF1200E32D201EB045112FA0EF2B7
:102E4000BDE8104058BF7047401C38BF5FEA4202DF
:102E500018BF7047002814BF20F0010041F10001A5
:102E60004FEA410313F5001F38BF7047A1F1C0417D
:102E700000F0B6BA012A43EB0302ACF1200CDCF1FE
:102E80001F0E32BF4FF0000E23FA0CF310EB0300BD
:102E900041EB0451B4EB115FD0D0A1EB045101F52B
:102EA000801149085FEA300001EB04510ED350F164
:102EB000000038BF12FA0EFE08D1BDE81040C9E785
:102EC000401C38BF5FEA4202CAD1C3E7BDE81040E8
:102ED0004FEA410313F5001F38BF7047A1F1C0410D
:102EE00000F07EBA9EEA445F08D011EA5E0FBDE8AA
:102EF000104004BF01F0004100207047BDE81040C1
:102F000070B500F01FFA00BF64FBBE3E0000E0FF9A
:102F10002DE9C04130B4DFF8A0C23CEA111418BF5B
:102F20003CEA131400F0EC8081EA03051CEA11145A
:102F300044EAD57418BF1CEA131500F0C780A4EB4F
:102F400005044FF0004545EAC12145EAC32341EAA3
:102F5000505143EA525304F17F74994204F500340E
:102F60004FEAC0204FEAC22208BF904200F09C8086
:102F70004FEA13650FF24016765D4FEA134506FBE4
:102F800005F7C7F1807706FB07F74FEAD737A7FBAE
:102F900003687642C8F58038A7FB06CE38BFA8F193
:102FA000010807FB08E64FF0000EA6FB028CE6FBCB
:102FB00003CEDCF1000CCEF1004E38BFAEF1010EB5
:102FC000A6FB0C584FF000074FF00005E6FB0E87FC
:102FD000A1FB08C6A0FB07CE16EB0E0645F10005C7
:102FE000E1FB076515F1E04E7EBFA4F580345FEA92
:102FF00046066D4116F1800745F100054FEA172797
:103000004FEA066647EA0567A6F1DE46B6F1805F3D
:103010004FEA15251FD9384624F0010C05EBC47181
:10302000BCF1FE6F01EB0C1102D8F0BCBDE80081D1
:1030300024425CBF01F5801E9EEAC47F02D4F0BC2E
:10304000BDE80081244238D4F0BCA1F1C041BDE804
:10305000004100F0C5B94FEAD22242EA43524FEA9A
:10306000D323A7FB02864FEAD02040EA415007FB5A
:1030700003661EEA0E0F4FEAD12105FB026658BF18
:10308000A6EB0056B6EB00564FEA520E4EEAC37E50
:1030900018EB0E0E56EB530EBDD518EB02085E4131
:1030A0007F1C55F10005B6E74FF480154FF000077F
:1030B0004FF000064FF00008ADE7F0BC4FF0000005
:1030C00001F1C04101F00041BDE8008111EA0C1F8F
:1030D0000CEA131500D00CE013EA0C1F00F0258059
:1030E0004FF00000F0BC81EA030101F00041BDE8AF
:1030F0000081F0BCBDE8004181EA030100F070B935
:10310000F0BCBDE8004170B500F01CF9097EFC3E42
:1031100000F007B881EA03014FF0000001F0004120
:10312000704781EA030100F05BB9F0BCBDE80041E3
:103130004FF0000021497047FFFDFBF9F7F5F4F26D
:10314000F0EEEDEBE9E8E6E4E3E1E0DEDDDBDAD842
:10315000D7D5D4D3D1D0CFCDCCCBCAC8C7C6C5C4A0
:10316000C2C1C0BFBEBDBCBBBAB9B8B7B6B5B4B3B7
:10317000B2B1B0AFAEADACABAAA9A8A8A7A6A5A4A2
:10318000A3A3A2A1A09F9F9E9D9C9C9B9A99999866
:103190009797969595949393929191908F8F8E8E09
:1031A0008D8C8C8B8B8A8989888887878685858496
:1031B00084838382828181800000FF070000F87F82
:1031C00010F0004248BF4042B0FA80F310FA03F119
:1031D0000AD0C3F11D0303F580634FEA415002EBAF
:1031E000035202EBD12170474FF0000070470000FE
:1031F000DFF848C170B51CEA111E1EBF1CEA13158A
:103200009EEA0C0F95EA0C0F00F06F8081EA030430
:1032100023EA4C134EEAD47E21EA4C1141F480118A
:1032200043F48013AE44A1FB024CA0FB0365AEF156
:103230007F7E361955EB0C05A1FB034C4CF10003C6
:10324000A0FB021C16EB0C06654153F1000309427A
:1032500018BF46F0010613F4007F0BD14FEA03318B
:103260004FEA0530340341EA155140EA16506FF039
:1032700003020AE04FEAC3214FEAC520F40241EA03
:10328000555140EA56506FF0020202EB2E4201EB1C
:10329000025585EACE710AD05FEA440C18BF24F0CB
:1032A000004450F1000041F1000120EAD47040F2E6
:1032B000FE7C624500D270BDA84214BF4FF080442E
:1032C0004FF04044002E08BF0024BEF1806FA8BF1D
:1032D000A1F1C041BDE8704080F282804FF0000053
:1032E00001F1C04101F0004170479EEA0C0F0CEA69
:1032F000131518BF95EA0C0F06D04FF0000081EAB5
:10330000030E0EF0004170BD00F01CF88900013E74
:1033100000F007B800F009B84FEA430C5FEA5C5CC4
:1033200008D081EA030100F05BB84FEA410C5FEA84
:103330005C5CF6D14FF00000014970470000FF07C8
:103340000000F87F0EF1020E2EF0030E5EF8046B03
:10335000364205D4012A43EB030515F5001F12D8A8
:10336000012841EB010C1CF5001F0CD80ED14FEACF
:10337000D17C15F5001F0CEB4C0C0CF1020C08BFB6
:103380004CEBD37C04E04FF0080C01E04FEAD37C17
:103390000CEB4C0526FA05F606F00706B6F1040C10
:1033A00006D20EEB860CBDE870404CF0010C604775
:1033B000DFE80CF0090B02024FF000414FF0000073
:1033C000A1F5002170BD19461046012851EB0104FA
:1033D00018BFD4F5001484BF002001F0004170BD77
:1033E0000808A0F500114FEA3101704710B591EAC5
:1033F000030F48BF83F000433FF5EAAC841A71EB3A
:10340000030C07D212198CF0004C43EB0C03001B89
:1034100061EB0C01DFF8A4E14FEA1154A4EB135C5B
:103420001EEA430F18BF9EEA445F00F0B08023EA13
:103430006E03524221EA0451C3EB6E0338BF5B1E98
:10344000DCF1200E25D322FA0CFE10EB0E0043FA1D
:103450000CFE41EB0E01CCF1200E03FA0EFE10EB38
:103460000E0051F10001CCF1200E29D412FA0EF217
:1034700001EB0451BDE8104058BF7047401C1CBF11
:10348000B2F1004F704700280CBF491C20F001002A
:10349000704712EB020E43EB030218BF4FF0010E10
:1034A0004EEA4202ACF1200CDCF11E0E54D943FA74
:1034B0000CFE10EB0E0051F1FF31CCF11E0ED5D5F4
:1034C0000EF1010E12FA0EFE404141EB010101EB3B
:1034D000445C5FEA5C5C10D910EBDE7001EB0451D8
:1034E00038BFBEF1004FBDE8104018BF704700283C
:1034F0000CBF491C20F00100704730D24FEAD42C99
:1035000011F5001124F400641BD0B1FA81F20B3ADA
:10351000A41AA41ED2F12003914030FA03F31943F8
:10352000904001EBCC71002C01EB0451BDE8104040
:10353000A8BF704701F1C0414FF0000001F0004109
:103540007047B0FA80F310FA03F100D110BDE41A0D
:10355000173C4805C90AE4E701EB045110BD4910C6
:1035600001EB0451BDE810404FEA300002E04FF09B
:10357000000170474A0008BF0042F8D0B2F5001FB2
:1035800028BF704701F000414FF0000070479EEAED
:10359000445F07D011EA5E0FBDE8104004BF002170
:1035A00000207047BDE8104070B5FFF7CBFE00BFAC
:1035B00040DFF63E83F00041104670470000E0FF18
:1035C00043004FEAD30C4FEA3C0C43401FBF400777
:1035D0000CF1605113F0FE4F70471CF0006F03D1E7
:1035E00000200CF0004170470CF0004343EA50709B
:1035F00010B540EACC0000F032FA00BF00000092A3
:103600004FEA0001FFF7ECBE4FF000414FF0000021
:10361000A1F500217047000090EA010F48BF81F03A
:10362000004100F1AA82421A3CBF801A89184FEA71
:10363000D0524FF07F4C1CEA410FA2EBD15318BF80
:103640009CEA026F00F03B804FF0004C4CEA0020F7
:103650004CEA012121FA03FC10EB0C0C1ED202F102
:10366000FF325FEA1C2040EBC25038BF70471CF0AD
:103670007F0F4FEA400C18BFBCF17F4F38BF704737
:10368000C3F12003994008BF20F00100BCF17F4F37
:1036900038BF7047A0F1C04000F027BA4FEA3C00A5
:1036A000000A40EBC25028BF1CF0FF0F4FEA400C4D
:1036B000E6D018BFBCF17F4F38BF7047EAE79CEAFD
:1036C000026F05D010EA5C0F08BF00F000407047A1
:1036D00010B500F0C4F900BF64FBBE3E014800F025
:1036E000BABA00BF0000C07F401058BFC0F14040D0
:1036F000491058BFC1F140418142EFF3008070474B
:103700004FF47F0C1CEAD0121EBF1CEAD11392EAC0
:103710000C0F93EA0C0F00F0858090EA010F48BF70
:1037200042F4807240F4000C41F400002CF07F4120
:1037300020F07F4000B58142A2EB03020FF2081C8B
:10374000ACEB504EC0F100009EF800E04FEA4E0E88
:1037500000FB0EFC38BF49004FEA2C1C02F5FA02B0
:103760000CFB0EF34FEACE1E4FEA112C4FEAC1219B
:103770000EEB635E42EB22420EFB0CFC4FEA1C5345
:1037800000FB03114FEA112C4FEA01310EFB0CFC38
:103790004FEADC4C00FB0C11C14228BF09184CEB6E
:1037A00003335DF804EB10EB410143EBC250B2F57B
:1037B0007C0F38BF704729D512F0F00F1CBF00F105
:1037C000C04000F000407047008182838485868776
:1037D00088898B8C8D8E8F919293959697999A9CD0
:1037E0009D9FA0A2A3A5A7A8AAACAEB0B2B3B5B73F
:1037F000B9BCBEC0C2C5C7C9CCCED1D4D7D9DCDF15
:10380000E2E6E9ECF0F3F7FAFE0000004FEA400CC4
:103810000CF1807CBCF17E4F28BF7047B0F1C040F6
:1038200000F063B990EA010F0CEAD11348BF42F4EB
:103830008072624538BF634507D213F47F0F16D0FC
:1038400080EA010000F00040704710B500F007F971
:10385000097EFC3E00F005B880EA010000F000405F
:10386000704780EA010000F0004000F03EB912F419
:103870007F0F04BF0248704780EA010000F035B9AD
:103880000000C07FC10DD1F19E0206DB4FEA00238C
:1038900043F0004323FA02F07047004207D54FEA95
:1038A0004001B1F1FE4F02D24FF00000704710B559
:1038B00000F0D5F849922480002070476FEA20007C
:1038C0007047000010F0004148BF4042B0FA80F35A
:1038D00010FA03F2C3F19D030BD051EAC35101EB7F
:1038E0001220530638BF704700F1010008BF20F0D6
:1038F0000100704750EA010C00F113801CF5000F25
:1039000058BFBCF5000F01D48842704707D710F5A7
:10391000000F58BF11F5000F15D488427047894237
:1039200070471CF5000F04D5BCF5000FF7D5814298
:1039300070474FF0807C1CEB400F38BF1CEB410FF1
:1039400001D28142704710B500F089F892244900F5
:103950004FF000504FF08051FFF7C6BE4FF47F0C80
:103960001CEAD0121EBF1CEAD11392EA0C0F93EA94
:103970000C0F00F0478090EA010F48BF42F48072BC
:103980004FF0004C4CEA00204CEA012102EB03020C
:10399000A0FB0113A2F50002002918BF43F00103A8
:1039A0005B0028BF4FEA330342EB22425FEA132C4D
:1039B0004CEBC2502EBFBCEB436FB2F57C0F70478F
:1039C0004FEA036CBCF1004F08BF20F00100B2F5D4
:1039D0007C0F38BF70470BD582F0FF0212F5803F95
:1039E000C8BF704700F1C040D8BF00F0004070472A
:1039F00000F5000C5FEA4C0C48BF7047B0F1C040C6
:103A000000F073B890EA010F0CEAD11348BF42F4FA
:103A10008072624538BF634504D280EA010000F03D
:103A20000040704710B500F01AF800BF8900013E51
:103A300000F007B800F009B85FEA410C5FEA1C6CBF
:103A400008D080EA010000F050B85FEA400C5FEA5D
:103A50001C6CF6D14FF00040A0F5800070470EF1CD
:103A6000020E2EF0030E5EF8044B244204D44FEAFB
:103A70004102B2F17F4F11D84FEA4003B3F17F4FBB
:103A80000CD80ED14FEAD07CB2F17F4F0CEB4C0C2E
:103A90000CF1020C08BF4CEBD17C04E04FF0080C99
:103AA00001E04FEAD17C0CEB4C0324FA03F404F060
:103AB0000704B4F1040C06D20EEB840CBDE81040F0
:103AC0004CF0010C6047DFE80CF0070802024FF0F1
:103AD0000040A0F5800010BD0846420018BFD2F19A
:103AE000807288BF00F0004010BDFF2141EAD05035
:103AF000C005704751EA000C00F113801CF5000F5F
:103B000058BFBCF5000F01D48142704707D711F5AB
:103B1000000F58BF10F5000F15D48142704789423D
:103B200070471CF5000F04D5BCF5000FF7D588428F
:103B300070474FF0807C1CEB410F38BF1CEB400FEF
:103B400001D28842704780EA010081EA000180EAE0
:103B50000100FFF7F8BE80F0004090EA010F7FF50A
:103B600062AD81F0004100F008B8000090EA010F5A
:103B700048BF81F000413FF556AD421A04D882F0AB
:103B80000042A0EB020011444FEAD0524FF07F4CAC
:103B90001CEA410FA2EBD15318BF9CEA026F4AD036
:103BA0004FF0004C4CEA00204CEA012121FA03FCC2
:103BB000B0EB0C0C0FD412F0FE0F36D05FEA4C00C5
:103BC0001DD5001240EBC25038BF70471CF03F0FAC
:103BD00018BF70470BE0A2F101025FEA1C2040EB26
:103BE000C25038BF70471CF07F0F18BF7047C3F139
:103BF0002003994014BF401E20F001007047800848
:103C00004FEA122308BF7047B0FA80FCA2EB0C0207
:103C1000CCF1280C60FA0CF093EA122F04BF00EBF1
:103C2000C25070474FEAC3707047130A5FEADC1056
:103C300008BF7047F6E79CEA026F04D010EA5C0FF9
:103C400008BF0020704710B5FFF709FF40DFF63EC0
:103C500081F0004070470CF00F03092B08BF0820CB
:103C600000F051800A2B0BD0082B18BF704708BFFB
:103C70001CF0400F0AD04FF000004FF000017047D9
:103C80001CF0400F18BF4FF0004070471CF0100FA1
:103C900008D020F0704300F07F4242EAD3014FEA9F
:103CA0004370704700F0604021F07F4242EA00021A
:103CB00001F07F4040EA727070474FF0FF0212EA55
:103CC000D0521CBF92F0FF038B42C2BFD14200EB27
:103CD000C1507047002A0AD0002B0BD0002900F0F9
:103CE0000040A4BF40F0FE4040F40000704700F0E8
:103CF0000040704743024FF00B0C18BF4CF0806C33
:103D00007FF4ECAC70471CF4801F11D01CF4E02F42
:103D100003D06FEACC31490070474FF04050EFF3C9
:103D2000008222F0704242EA000282F3008870476B
:103D30004FF000007047000000000000000001028A
:103D40000304060708090000000001020304000044
:103D5000703D000800000020D80000002801000885
:103D6000483E0008D8000020600800004401000818
:103D70000000000000000000000000000000000043
:103D80000000000000000000000000000000000033
:103D90000000000000803443000000000000AF433A
:103DA00000006C420000803F0000000000000000A6
:103DB000000000400000000000000000AE47E13DB0
:103DC00000000000000000000000000000000000F3
:103DD00000000000000000000000000000000000E3
:103DE00000000000000000000000000000000000D3
:103DF00000000000000000000100000010000000B2
:103E0000000000000024F40000000000000000009A
:103E100000000000000000000000000000000000A2
:103E2000000000000000000000000000A69B443BD2
:103E3000000000006F12833AA69B443B8FC2F53C02
:083E400000000000000000007A
:04000005080000ED02
:00000001FF
