:020000040800F2
:10000000080A0020A5010008273C00088D330008DD
:10001000253C000841170008ED42000800000000E0
:10002000000000000000000000000000A33C0008E9
:10003000A717000800000000A13C00084D3D000883
:10004000BF010008BF010008BF010008BF01000890
:10005000BF010008BF010008BF010008BF01000880
:10006000BF010008BF010008BF010008BF01000870
:10007000BF01000865170008BF01000871170008DC
:10008000BF010008BF010008BF010008BF01000850
:10009000BF010008BF010008BF010008BF01000840
:1000A000BF010008BF010008BF010008BF01000830
:1000B000BF010008BF010008B13D0008BF010008F2
:1000C000BF010008BF010008BF010008BF01000810
:1000D000BF010008E1420008BF010008BF0100089D
:1000E000BF010008BF010008BF01000800F002F8CE
:1000F00000F048F80AA090E8000C82448344AAF17A
:100100000107DA4501D100F03DF8AFF2090EBAE877
:100110000F0013F0010F18BFFB1A43F0010318473B
:10012000E85A0000085B0000103A24BF78C878C184
:10013000FAD8520724BF30C830C144BF04680C60ED
:10014000704700000023002400250026103A28BF35
:1001500078C1FBD8520728BF30C148BF0B60704739
:100160001FB500F063FC04000020002104F0F6FB42
:10017000401C60600020002104F0DAFBE0601FBD3D
:1001800010B510BD00F076F91146FFF7E9FF04F055
:100190003BFB00F0BDF903B4FFF7F2FF03BC00F036
:1001A000BBFC00000948804709480047FEE7FEE71E
:1001B000FEE7FEE7FEE7FEE7FEE7FEE7FEE7FEE717
:1001C00004480549054A064B70470000AF3D00084A
:1001D000ED00000808040020080A0020080600209E
:1001E00008060020014A00F0ABB80000D40000204F
:1001F00040EA0103024630B59B0710D14FF00134AD
:1002000000E008C208C91D1B9D4315EAC41FF8D0B1
:1002100013F0FF0102F8011B0DD01B0AF8E711F8DB
:10022000013B002B02F8013B05D011F8013B002BEC
:1002300002F8013BF3D130BD4FF0000200B5134688
:1002400094469646203922BFA0E80C50A0E80C50F6
:10025000B1F12001BFF4F7AF090728BFA0E80C50A7
:1002600048BF0CC05DF804EB890028BF40F8042BA0
:1002700008BF704748BF20F8022B11F0804F18BF0D
:1002800000F8012B704700004FF0013C50F8042BA0
:1002900051F8043B9A4221D1A2EB0C03934313EA99
:1002A000CC1317D150F8042B51F8043B9A4215D1C6
:1002B000A2EB0C03934313EACC130BD150F8042B9D
:1002C00051F8043B9A4209D1A2EB0C03934313EA81
:1002D000CC13DBD04FF00000704700BFD01A01BA3A
:1002E000B1FA81F101F0180122FA01F0CB40C1F11D
:1002F0002001DBB2C0B2C01A2CFA01F3D11A91432B
:1003000011EAC311E6D1704770477047704710B5C6
:1003100000F038F8006810BD10B5044600F032F85F
:10032000046010BD7CB5054600236846CDE9003366
:1003300000F04AF86946284604F013F87CBD000036
:100340002DE9F04115460E46040002D12C6804B98F
:100350000BA4204600F07CF80444207870B12746B6
:100360003146384600F064F80444207810B100208B
:1003700004F8010B38462C60BDE8F0810027F9E74E
:100380000000000000487047A40300200FB40023C1
:1003900000B589B00CA900910B99CB60214B7B442F
:1003A0000693214B7B44079304236FF00042CDE971
:1003B00001321E4A7A446B4608920246002005F03C
:1003C000ABFB09B05DF814FB70B506464FF0FF308B
:1003D00015460C46324686B00091CDE901016946CA
:1003E0000020049004A8FFF7D1FF024604982118CA
:1003F00025B108B1084600E020462860049800288E
:100400000DD0002A02DD0098884208D03246081B31
:1004100069460094CDE9010404A8FFF7B7FF06B0D0
:1004200070BD00002F01000047010000070100001F
:1004300030B503461D781DB10A4603E0AC4201D138
:10044000181A30BD12F8014B002CF7D15B1CF1E7F4
:1004500030B503461D783DB10A4612F8014B1CB178
:10046000AC42FAD15B1CF5E7181A30BD0048704762
:10047000A40300207546FFF7F9FFAE460500694664
:10048000534620F00700854618B020B5FFF798FEC8
:10049000BDE820404FF000064FF000074FF0000885
:1004A0004FF0000B21F00701AC46ACE8C009ACE806
:1004B000C009ACE8C009ACE8C0098D46704710B56A
:1004C000044600F02FF80068005D00F0010010BD48
:1004D000426842B1016811F8013B23B1521EC0E9E4
:1004E0000012184670470121C160881E704742689B
:1004F0005AB1C368016843B983688B4205D0491E6D
:10050000521CC0E90012002070474FF0FF307047C6
:1005100010B50446AFF300802046BDE81040FFF759
:100520003ABE000010B500F081FA001D10BD00BFFA
:100530002D4400002DE9FF4F06468BB00878FF28B8
:1005400006D0491C2D2805D000244FF0000908E0F2
:1005500000200CE00124F8E709EB8903491C00EBBB
:1005600043090878FF28F7D114B1C9F1000081468A
:10057000107800252C46AA4629462D2801D02B2884
:1005800004D1521C2D2813D0002082468B461078AF
:10059000FF280FD04FF0000C0A21521CA5FB017858
:1005A00004FB018105FB0C11C5194BEB0104EEE7BF
:1005B0000120EAE7002108464FF00000BAF1000FE1
:1005C00002D000EB80004008C0F38157012F01DD0D
:1005D0004FF0FF370E9955EA040009EB01080BD0E4
:1005E0004FF0020918F5FA7F16DA4FEACA70002FA9
:1005F000706008DD012007E04FEACA70C6E900B06C
:100600000FB0BDE8F08F00203060FFF7BBFEC0F8F0
:1006100000901821084616E0B8F5FA7F18DD002F83
:1006200002DAF748784401E0F6487844D0E900104F
:10063000C6E9001040EACA707060FFF7A3FEC0F878
:100640000090142108460FB0BDE8F04F05F0DBB96B
:10065000002108464FF00000B8F10001099002DACD
:10066000C7F1000200E03A4601DAC8F1000106A82D
:1006700000F0E0F906AB93E8070003AB83E807005E
:1006800044F23E005BEA04010090584604D144F273
:100690001E012C465D460091210C0904014306D140
:1006A0000099240444EA15442D041039009104F003
:1006B0007F41014306D10099240244EA15642D02CA
:1006C0000839009104F07041014306D100992401DA
:1006D00044EA15742D01091F009104F040410143C3
:1006E00006D10099A40044EA9574AD00891E0091DA
:1006F00004F00041084304D100986D196441401E84
:1007000000904FF001033A466846B8F1000FCDE97A
:10071000014503A902DD00F0DCFE01E000F0AFFEC0
:10072000BAF1000F04460D4601D084F000440021C8
:1007300008464FF00000099940F2FF77484010F05A
:100740000C0F07D124F00040284303D0C4F30A5013
:10075000B84212D1FFF716FEC0F80090C4F30A5059
:10076000B8420AD1A8487844D0E90010C6E9001080
:1007700004F000410843706042E7C6E900543FE7D7
:100780002DE9FF4F1F464FF0000A4FF0FF38454656
:1007900091B0D7E90146CDF83CA000F047F9C06818
:1007A0000168405C1090B96912986D1C8847396ADD
:1007B000814688470028F6D1B9F1FF3F0AD0002EC4
:1007C00024F4D06411DDB9F12B0F08D0B9F12D0F4D
:1007D0000BD102E0404615B013E744F48064B969D8
:1007E00012986D1C8847761E8146600504A901D5C4
:1007F0002D2000E02B20002E01F1010B0DF130081F
:100800008DF810003FDDB9F1690F08D0B9F1490F3B
:1008100005D0B9F16E0F02D0B9F14E0F1CD13B4695
:1008200001A8009580E85002DDE912126FF0020085
:1008300005F076F9C11CCED10EE0B96912986D1C95
:10084000884781461398761E44F4007405600F981B
:10085000401C002E0F9016DDB9F1300FEDD0B9F12C
:10086000780F02D0B9F1580F0DD10F9801280AD195
:100870003B46CDE90054DDE91212001F029605F057
:100880004DF9C11CA7D1109989453ED144F080048F
:1008900006E01399681CAAF1010A44F40074086088
:1008A000B9696D1C1298761E884730288146F0D0B1
:1008B0002BE01099894505D1200603D4761E44F01B
:1008C000800418E0484603F0BEFD08B3761E0DF123
:1008D00023018B4544F4007408D2A9F130000BF8D1
:1008E000010B200607D5AAF1010003E0200602D47F
:1008F0000AF101008246A00502D51399681C086020
:10090000B96912986D1C88478146002ED1DC53E0EE
:10091000002E51DDB9F1650F02D0B9F1450F4BD171
:10092000A00549D5B9696D1C1298761E24F440744F
:100930008847002E81460CDD2B2804D0B9F12D0FFD
:1009400007D144F48074B96912986D1C8847761EEB
:100950008146E00501D52D2100E02B2108F8011B7F
:10096000CDF8008021E0761E0DF13901884544F470
:1009700000740CD2A9F1300010F0FF0088F80000DC
:1009800002D10099884509D908F1010806E0E0057F
:1009900001D51E4801E042F20F708246B9691298F3
:1009A0006D1C8847814613980560002E04DD48467B
:1009B00003F049FD0028D6D1F96912988847FF2035
:1009C00053468BF8000088F8000000200A900B9036
:1009D00004AA0CA90AA8FFF7ADFDA00502D46FF088
:1009E0000100F8E614F0240F12D0E0071CD138689B
:1009F000DDE90A12031D3B600068C0E9001213E044
:100A000008560000FA550000BE540000F1D8FFFF60
:100A10000AA9684603F0A5FCE00705D13868009AEA
:100A2000011D3960006802602846D4E6004870471E
:100A3000C40300202DE9F047814616468AB03548A8
:100A400078440DC88DE80D0032487844801C03AC12
:100A50000DC884E80D0041F69B300844372190FB17
:100A6000F1F290FBF1F5A5F1800501FB12041B3CAE
:100A700002D56442012000E00020DFF898A0804603
:100A80000027FA44AAF1BE0A0EE0E0070AD0324677
:100A9000684607EB470101230AEB810100F004FDE2
:100AA0008DE8070064107F1C002CEED1194F7F44A5
:100AB000AE3F19E0E80715D007EB04100DF1180A56
:100AC00090E80E008AE80E00C068F04201D1981943
:100AD00008903246012306A903A800F0E5FC03AB09
:100AE00083E807006D10641C002DE3D14FF0010373
:100AF00032466946B8F1000F03A802D000F0AAFC04
:100B000001E000F0D1FCC9E90001C9F808200AB0F1
:100B1000BDE8F087AC51000001491820ABBEFEE7EC
:100B2000260002002DE9FF4F1F464FF03C0987B019
:100B30004FF00042DDE9141001F10108DDF858A082
:100B400002EA405003900020059083460546044683
:100B50000490B969461E08988847AAF1010A0290D4
:100B6000BAF1000F3BDD02982E2815D0102100F0BD
:100B700017FA00282EDB4FF0010B0599014317D01F
:100B8000B9F1000F0BDB4A46C11700F0F6F9054337
:100B90000C43A9F1040905E0012004900BE008B121
:100BA00045F0010501200590049820B9361D02E0AA
:100BB000049800B1361FB969089808F10108884700
:100BC000BBF1000FAAF1010A0290C9D00999C1F83E
:100BD0000080C5E70298702808D0502806D0F9692F
:100BE00008988847BBF1000F14D04FE00020029016
:100BF0000120BBF1000F049009D0B969089808F1F1
:100C000001088847AAF10109B9F1000F07DCF96969
:100C1000089888476FF001000BB0BDE8F08F2B28D3
:100C200004D02D280CD14FF0FF300490B9690898FA
:100C300008F101088847A9F10109B9F1000FE6DDC3
:100C4000411CE4D00A2100F0ABF90028DFDB029957
:100C500008F1010801EB810100EB41000290B96944
:100C6000089888470A2100F09BF9099AA9F101091F
:100C7000B9F1000FC2F8008001DD0028E7DAF96958
:100C8000089888470499029800FB016655EA040019
:100C900004D004F04041090002D006E0039898E037
:100CA000A40044EA9574AD00B61E04F000410800AB
:100CB00002D16D196441761E159810F0240F03D0EF
:100CC0004FF00B095C4803E04FF028096FF07D00FE
:100CD0008246564507DAAAEB06018944B9F1410F6D
:100CE00001DD4FF0410901200021A9F1010200F0CE
:100CF00044F9024628400B462140084301D0012117
:100D000000E00021501E029143F1FF3128402140B4
:100D1000084301D0012000E000200299834651EAF7
:100D20000B014FD0002108464FF00000039900F45A
:100D3000400039B100EB80004FF4400100EBD0706F
:100D400001EA60008015012802DD4FF0FF3000E06D
:100D500013D0401C36D0029860B3BBF1000F0CD109
:100D60004A460120002100F008F9284021400843AC
:100D700001D0012000E00020E0B101204A4600211E
:100D800000F0FBF8034640190A4661412D1A8C41D8
:100D900011D3B9F1400F09DD159810F0240F02D0DE
:100DA000AAF1340603E0AAF1170600E0761C00253C
:100DB0004FF0004406E05B1E42F1FF3220EA0305DB
:100DC00021EA0204CAF10100B04206DA1B49039885
:100DD00008430190002000900EE0039AC4F3D32151
:100DE000E80A0A43164940EA44500A433146CDE92D
:100DF0000002684603F01CFB159810F0240F0BD07E
:100E00001598C00715D13868DDE90012031D3B6055
:100E10000068C0E900120CE002A8694603F0A1FADC
:100E20001598C00705D13868029A011D396000681D
:100E300002604046F0E6000002FCFFFF0000F07F89
:100E40000000F03F2DE9FF4F92461D4685B04FF060
:100E50000041DDE9124BDDE914727F1E01EA4B50BF
:100E6000414940F0FF4940EA0108002122F02000FA
:100E70004928049102D04E2828D04CE03BA00126FE
:100E800007C88DE80700A9690698641C88477F1E7B
:100E9000014606D41DF8060018B121F02001814258
:100EA0000BD0E96906988847032E34D0082E32D03B
:100EB0006FF0010009B0BDE8F08F761C032E01D061
:100EC000082EE0D1601CCAF80000DCE7A96906988A
:100ED000641C88477F1E2AD420F02000412826D198
:100EE000A9690698641C88477F1E20D420F0200042
:100EF0004E281CD1A9690698641C88477F1E48F4B7
:100F0000002849F48009CAF8004001D4282806D0F6
:100F1000E969069888475FEACB7012D022E0A96998
:100F20000698641C88477F1E01D4002803DAE9690B
:100F300006988847BCE72928F1D1641CCAF800400C
:100F4000E9E71BF0240F07D028680499031D2B60E4
:100F50000068C0E9001805E02868021D2A600068E2
:100F6000C0F800902046A5E70000F07F494E4649B2
:100F70004E495459000000007047B2F120030AD5D1
:100F8000C2F1200301FA02F120FA03F300FA02F0A1
:100F900041EA0301704700FA03F14FF00000704787
:100FA0003A2800D2303820F02002412A01D3A2F1A1
:100FB0003700884201D34FF0FF30704720F07F4C5C
:100FC00080EA030023F07F47ACEB070303F57C5373
:100FD00000F0004003F1FF032DE980494FEA154B73
:100FE00009B44FEA144325EA0B4E24EA03480FF2F2
:100FF000042606EB132749083E785FEA320203FB1A
:101000000667C7F5000707FB06F64FEA54374FEAB5
:10101000D64606F1020607FB066CCCF1005C4FEAEF
:101020001C472CEA074C07FB06F40CFB06F504EB07
:1010300015464FEA961634BF00204FF000404FEAA5
:10104000D13706FB07FC4FEA1C4C0CFB0BF7D21BFD
:1010500003FB0CF761EB07010CFB0EF7B0EB07404D
:1010600072EB17420CFB08F734BFA2EB0742B2EB5E
:10107000074261EB17414FEA0C444FEA910706FB28
:1010800007FC4FEA1C4C0CFB0BF7B0EBC74072EBB4
:10109000573203FB0CF734BFA2EBC742B2EBC74297
:1010A00061EB57310CFB0EF7B0EBC70072EB5772D8
:1010B0000CFB08F734BFA2EBC702B2EBC70261EB2F
:1010C0005771039F4FEA816141EA921104EBCC040E
:1010D0004FEAD1374FEA826206FB07FC42EA9012E0
:1010E0004FEA80604FEA1C4C0CFB0BF7D21B03FB52
:1010F0000CF761EB07010CFB0EF7B0EB074072EB4E
:1011000017420CFB08F734BFA2EB0742B2EB0742D1
:1011100061EB17414FEA8C554FEA910704EB9C2491
:1011200006FB07FC4FEA1C4C0CFB0BF7B0EBC7406F
:1011300072EB573203FB0CF734BFA2EBC742B2EBA2
:10114000C74261EB57310CFB0EF7B0EBC70072EBF7
:1011500057720CFB08F734BFA2EBC702B2EBC70211
:1011600061EB577115EB4C254FEA816141EA921111
:101170004FEA82624FEAD13742EA901206FB07FC3F
:1011800044F100044FEA80604FEA1C4C0CFB0BF763
:10119000D21B03FB0CF761EB07010CFB0EF7B0EB66
:1011A000074072EB17420CFB08F734BFA2EB074273
:1011B000B2EB074261EB174115EB1C154FEA813189
:1011C00041EA92414FEA823242EA90424FEA80304D
:1011D0004FEA0C7644F1000448EA03434EEA0B4818
:1011E0004FF0000EB2EB080C71EB030724BF624610
:1011F00039464EEB0E0E4FF0000B0018524149419C
:101200004BEB0B0BB2EB080C71EB03077BF1000B04
:1012100024BF624639464EEB0E0E4FF0000B00180D
:10122000524149414BEB0B0BB2EB080C71EB03073E
:101230007BF1000B24BF624639464EEB0E0E51EA9D
:10124000020718BF46F0010616EB0E7655F10002B4
:1012500054F1000103D5BDE88901BDE80088BDE86F
:101260008901BDE80048B619524141EB0101A3F1E3
:101270000103704780807F7E7D7C7B7A79787776EA
:1012800076757473727171706F6E6E6D6C6C6B6A63
:101290006A69686867666665646463636261616001
:1012A000605F5F5E5E5D5D5C5C5B5B5A5A5959587E
:1012B00058575756565555555454535352525251E8
:1012C000515050504F4F4F4E4E4D4D4D4C4C4C4B3E
:1012D0004B4B4A4A4A494949484848474747474685
:1012E00046464545454444444443434343424242C1
:1012F0004241414146EA0646A3F570534FEA16467D
:1013000046EA42564FEAD22242EA415210B54FEA2B
:10131000D121A3F1010300F02FF820F0004000F1EB
:10132000020C00F0004701EB00501146BCF5006FC5
:1013300040EA070000D210BDBAF1000F0AD01CB578
:1013400003B44FF004004FF004014FF000000FBC55
:10135000BDE810404FF00001BBF1010FB9BF0448D8
:101360004FF0FF310348002140EA070010BD00BFE5
:10137000FFFFEF7F0000F07F002B9C4630D477000A
:101380002BD01CB54FEA370703B44FF010004FF0D5
:101390001001BAF1000F06D0BCF1000FDCBF40F025
:1013A000080040F008014FF000000FBCBDE81040FD
:1013B0000BF1010BBBF1010F08BF5FEA170722BF5A
:1013C00012F1010211F101014FF0004143F100035C
:1013D00000F0004043EA00007047F9D35708D0E717
:1013E00046EA064613F1400F4FEA16461FDD13F199
:1013F000200FDFBF16430A46002120335B42BED0D8
:10140000C3F1200746EA064602FA07F74FEA1646F6
:1014100046EA0706C3F1200722FA03F201FA07F7AA
:1014200021FA03F14FF0000342EA0702A7E746EA78
:10143000020646EA06464FEA164646EA0106BCBFE1
:1014400046EA0646360C4FF000034FF000024FF01C
:10145000000194E72DE9804C9A46934670B491E8D8
:10146000380007C831EA400C48BF34EA430C03D5C2
:10147000FFF7A4FDFFF780FFF0BCBDE8008C2DE96D
:10148000804C9A46934670B491E8380007C831EA18
:10149000400C48BF34EA430C03D5FFF78FFDFFF73C
:1014A00029FFF0BCBDE8008C2DE9804C9A4693469C
:1014B00070B491E8380007C810F0804F08BF13F0EF
:1014C000804F03D100F01AF8FFF756FFF0BCBDE8DB
:1014D000008C2DE9804C9A46934670B491E8380010
:1014E00007C810F0804F08BF13F0804F03D100F001
:1014F00005F8FFF7FFFEF0BCBDE8008C20F07F4749
:1015000080EA030023F07F4C07EB0C03A3F57C5328
:1015100000F00040A3F1FE0392F0000F00F0B38052
:1015200095F0000F00F077802DE901494FEA114056
:101530004FEA144621EA004800FB06FC24EA06476D
:1015400008FB06F607FB08F800FB07F718EB064850
:101550004CEB164C4FEA124B18EB07484FEA154676
:101560004CEB174022EA0B4E0BFB06FC25EA064724
:101570000EFB06F607FB0EFE0BFB07F71EEB064EF7
:101580004CEB164C4FF000061EEB074E4CEB174B86
:1015900018EB0B0840F1000018EB0E0B58EB00089D
:1015A00040F100008F1A4FF000013CBFC943661B99
:1015B00014BFB5EB040C00213CBFC943F61B4FEA36
:1015C00017444EEA8E0E27EA04454FEA1C4704FBF7
:1015D00007622CEA074C05FB07F70CFB05F604FB3A
:1015E0000CFC16EB074642EB174216EB0C4642EB9F
:1015F0001C421BEB060658EB0202414146EA9E06DE
:1016000001D5BDE80189B619524141EB0101A3F1B1
:101610000103BDE801894FEA14454FEA114724EA66
:10162000054621EA074C05FB07F406FB07F70CFB10
:1016300006F105FB0CFC11EB074144EB17444FEAA4
:10164000124711EB0C4144EB1C4422EA074C05FB0A
:1016500007F206FB07F70CFB06F605FB0CFC16EB86
:10166000074642EB174216EB0C4642EB1C456A1844
:1016700054F1000148BF7047B619524141EB0101D6
:10168000A3F10103704795F0000F37D04FEA1142E4
:101690004FEA144721EA024624EA074C02FB07F10D
:1016A00006FB07F70CFB06F402FB0CFC14EB0744EB
:1016B00041EB17414FEA154714EB0C4441EB1C4139
:1016C00025EA074C02FB07F506FB07F70CFB06F6BD
:1016D00002FB0CFC16EB074645EB174516EB0C46D8
:1016E00045EB1C42121951F1000148BF7047B61971
:1016F000524141EB0101A3F1010370474FEA144548
:101700004FEA114724EA054621EA074C05FB07F199
:1017100006FB07F70CFB06F24FF0000605FB0CFC7E
:1017200012EB074241EB174112EB0C4251EB1C410B
:1017300048BF7047921841EB0101A3F101037047C4
:10174000FEE770B5044615460E46006804F0AAF898
:1017500001D2266070BD2946206803F0A3FFF9D2AC
:10176000256070BD014800F091B8000050030020D2
:10177000014800F08BB800000C03002030B590F851
:1017800040500124AC40C56B6C60046863604368E2
:10179000102B036803D099600068C26030BD9A6066
:1017A0000068C16030BD704772B6FEE710B590F8B2
:1017B00021100022022905D00421816380F8202015
:1017C000012010BD01680B6823F00E030B60016857
:1017D0000B6823F001030B6090F84030C46B0121CB
:1017E00001FA03F3636080F8211080F8202010468E
:1017F00010BD000010B590F821100024022903D07C
:101800000421816301243DE001680A6822F00E0290
:101810000A6001680A6822F001020A601A4A016837
:10182000914201D1012121E0174A1432914201D1A4
:1018300010211BE0144A2832914201D1891515E08C
:10184000114A3C32914201D189140FE00E4A5032C4
:10185000914202D14FF4803108E00B4A6432914248
:1018600002D14FF4801101E04FF08071064A083A2E
:101870005160012180F82110002180F82010416B77
:1018800001B18847204610BD080002402DE9F05FF5
:10189000C16B0C6801680B68D0F840C0042202FAE2
:1018A0000CF2494DDFF824A1494E4A4FDFF828B128
:1018B000DFF828E122422CD05A072AD50A6892067E
:1018C00003D40A6822F004020A600168A94201D127
:1018D000042219E0514501D1402215E0B14202D164
:1018E0004FF4806210E0B94202D14FF480420BE025
:1018F000594502D14FF4802206E0714502D14FF4E0
:10190000800201E04FF080622F4908394A60C16AC5
:101910003BE04FF0020808FA0CF818EA040F4FF009
:1019200000094FF0010235D05FEA837832D50B68A9
:101930009B0605D40B6823F00A030B6080F8212076
:101940000168A94201D1022219E0514501D12022AA
:1019500015E0B14202D14FF4007210E0B94202D159
:101960004FF400520BE0594502D14FF4003206E02B
:10197000714502D14FF4001201E04FF0007212499C
:1019800008394A6080F82090816A00291AD0BDE8A1
:10199000F05F0847082505FA0CF5254212D01B0711
:1019A00010D50B6823F00E030B6090F84010C36B4A
:1019B00002FA01F15960826380F8212080F82090BA
:1019C000016BE2E7BDE8F09F080002401C00024006
:1019D0003000024044000240580002406C000240C7
:1019E00030B528B308C8134914221944B1FBF2F1E9
:1019F0008900C16310498163022141771A6843F667
:101A0000F0718A43D0E900142143D0E902452C4308
:101A100021430469214344692143846921431143DB
:101A2000196000214163012242770177084630BDE9
:101A3000012030BDF8FFFDBF0000024070B5044634
:101A400090F82000002501280CD0012084F8200007
:101A500094F821600020012E06D084F82000022591
:101A6000284670BD022070BD022684F82160A06364
:101A70002068066826F0010606602046FFF77EFE15
:101A8000E06A00282068016802D041F00E0106E0FB
:101A900021F0040101602068016841F00A01016041
:101AA0002068016841F001010160D9E72DE9F84F94
:101AB000DFF8B891002409F1040A0AF1040B234667
:101AC0000F270BF1040EC9E00125A5402A40AA42C8
:101AD0007DD1674ED1F804C0ACEB0608B44532D0D6
:101AE00014DCBCF1030F3AD009DCBCF1000F2AD0A2
:101AF000BCF1010F1CD0BCF1020F31D11DE0BCF1D3
:101B0000110F17D0BCF1120F2AD119E0B8F5881FB8
:101B100019D006DCB8F5803F15D0B8F5801F1FD16D
:101B200011E0B8F5001F0ED0B8F5041F18D10AE077
:101B3000CB6815E0CB681B1D12E0CB6808330FE0C3
:101B4000CB680C330CE08B682BB1012B4FF00803F2
:101B500003D0456104E0042302E0056100E00023B6
:101B6000FF2A01D8064601E000F104064FEA840589
:101B700001D9A5F12005D6F8008007FA05FC28EA6E
:101B80000C0803FA05F548EA0508C6F800804D6818
:101B9000ED0062D5374DAE6946F00106AE61AD6924
:101BA00024F0030605F001050095334D06EB050C06
:101BB000DCF80850A607360F07FA06F825EA0805EC
:101BC000DFF8B880404503D14FF0000817E044E04B
:101BD000DFF8AC80404502D14FF001080FE0DFF89C
:101BE000A480404502D14FF0020808E0DFF8988059
:101BF000404502D14FF0030801E04FF0040808FA15
:101C000006F848EA0508CCF808804D68D9F8006065
:101C1000ED034D4601D5164300E096432E604D6816
:101C2000DAF80060AD03554601D5164300E096434F
:101C30002E604D68DBF80060ED025D4601D516436D
:101C400000E096432E604D68DEF80060AD027546F8
:101C500001D5164300E096432E60641C0D682A46A9
:101C6000E5407FF431AFBDE8F88F0000000401408B
:101C70000000111000100240000001400008014067
:101C8000000C014000100140001401400AB1016144
:101C900070470904FBE700000148806870470000B6
:101CA0008400002070B5040025D094F83D00002584
:101CB00020B984F83C50204600F078FA242084F8BB
:101CC0003D002068016821F0010101602068016881
:101CD00041F4004101602068016821F40041016085
:101CE00000F0C0FB4D4A6168914201D84C4900E0C8
:101CF0004C49884201D2012070BD4B492368B0FB9A
:101D0000F1F15E6826F03F060E435E606368934221
:101D100006D94FF4967359434FF47A73B1FBF3F13C
:101D20002368491C1E6A26F03F0631431962616828
:101D3000914210D84900401EB0FBF1F2521CC2F390
:101D40000B02042A01D2042022E0B0FBF1F0401C77
:101D5000C0F30B001CE0A268F2B301EBC10303EB7C
:101D60000116431EB3FBF6F35B1C43F480431B05D3
:101D700049D092B301EBC10202EB0111401EB0FB4E
:101D8000F1F0401CC0F30B0040F4804040F40040F0
:101D90002168CA694CF6FF739A431043C861D4E9BD
:101DA000071001432068026822F0C002114301605D
:101DB000D4E9030101432068826848F2FF339A4363
:101DC00011438160D4E9050108432168CA6822F003
:101DD000FF021043C86001E00EE016E020680168D1
:101DE00041F0010101602564202084F83D00256355
:101DF00084F83E50002070BD01EB4106431EB3FB4A
:101E0000F6F35B1CB3E70120C2E701EB4101401E82
:101E1000B0FBF1F0401CC0F30B00B7E7A086010057
:101E200080841E0000093D0040420F002DE9FF4F55
:101E300083B00025DDE910799A4693460446DDF823
:101E400048800095FFF728FF064694F83D002028BB
:101E50007CD11923012285492046009601F0A6FB7A
:101E60000028F5D194F83C0001286FD0012084F8B7
:101E70003C0020680168C90703D1016841F00101F5
:101E800001602068016821F400610160222084F86B
:101E90003D00402084F83E0025646762A4F82A9043
:101EA000608D20857248E062CDE9008653465A462F
:101EB0002046049901F082FA00287DD1208DDFF8B8
:101EC000B491202768B1012814D002282068016845
:101ED0001ED041F4806101602068416980690090F2
:101EE000B6E02068416981690091016841F40071A0
:101EF0000160ADE02068016821F48061016072B684
:101F00002068416981690091016841F400710AE02B
:101F100041F40061016072B62068416981690091F5
:101F2000016821F48061016062B691E0032868D8FD
:101F300001280CD0022843464FF0000249462046B3
:101F400000960FD001F032FBB0BB10E08BE03246C0
:101F50004146204601F0A9FB70BB20680069616A18
:101F600008706CE001F022FB30BB72B634E02068F0
:101F7000016821F48061016072B620680069616ABD
:101F80000870606A401C6062208D401E2085608D54
:101F9000401E6085384846F2A8110068B0FBF1F099
:101FA000C0EBC00000EB80000090401E009008D005
:101FB00020684069C04300E029E040070CD5009844
:101FC000F3E744F8305F6773A573206940F02000A1
:101FD000206162B625731AE02068016841F400713F
:101FE000016020680069616A0870606A401C606274
:101FF000218D491E2185618D491E618562B621684A
:102000001BE032464146204601F04FFB18B101204B
:1020100007B0BDE8F08F20680069616A0870606AE7
:10202000401C6062218D491E2185618D491E61859C
:1020300021684A69D24352070AD409690170606A6B
:10204000401C6062208D401E2085608D401E608592
:10205000208D00287FF46AAF84F83D7084F83E50EC
:1020600084F83C50D4E70220D2E7000002001000C0
:102070000000FFFF04000100900000202DE9FF4F49
:1020800083B09A46DDE9119793460446DDF8408017
:10209000FFF702FE054694F83D0020287FD1192362
:1020A000012240492046009501F080FA002876D1AF
:1020B00094F83C00012872D0012084F83C0020688C
:1020C0000168C90703D1016841F00101016020687E
:1020D000016821F400610160212084F83D00402066
:1020E00084F83E0000262664C4F82480A4F82A90D0
:1020F000608D20852C48E062CDE9007553465A4634
:102100002046049901F0D8F970B930E02A463946E2
:10211000204601F0FDFA58B1206C042804D1206853
:10212000016841F400710160012007B0BDE8F08F43
:10213000606A216800780861606A401C6062218DD5
:10214000491E89B22185628D521E628522685369BB
:10215000DB435B070BD469B100781061606A401CF7
:102160006062208D401E2085608D401E6085208D20
:102170000028CBD12A463946204601F0F1F9002843
:10218000CAD154F83D0B016841F400710160202070
:1021900004F81E09E67766770020C6E7FFE702200D
:1021A000C3E70000020010000000FFFF10B586B07A
:1021B0000021009101910291039100680F4988422A
:1021C0001AD10F4CA06940F00800A061A0696946CF
:1021D00000F008000490C02000901220019003201D
:1021E00003900848FFF762FCE06940F40010E061EA
:1021F000E06900F40010049006B010BD00540040E7
:1022000000100240000C014002488168027811442D
:102210008160704784000020074810B5016841F0D4
:1022200010010160032000F075F80F2000F006F89F
:1022300000F024F8002010BD0020024070B50D4DC4
:1022400004464FF47A712878B1FBF0F00A49096826
:10225000B1FBF0F000F0ECFA48B9102C07D20022E4
:102260002146501E00F036F800206C6070BD012041
:1022700070BD000084000020900000200C4808B5CC
:10228000816941F001018161816901F001010091E1
:10229000C16941F08051C161C06900F08050009077
:1022A0000448416821F0E06141F00071416008BDDF
:1022B0000010024000000140002809DB00F01F026E
:1022C000012191404009800000F1E020C0F8001198
:1022D00070470000F0B40E4B1B680C46C3F302239A
:1022E000C3F10705042D00D90425191D072901D2C2
:1022F000002300E0DB1E012606FA05F1491E2140FD
:1023000099409E40761E16403143F0BC02F002B860
:102310000CED00E0064900F0070208684FF6FF03E5
:10232000184040EA0220034A10430860704700004A
:102330000CED00E00000FA052DE9F0470F4605001E
:1023400061D0434E306800F00700B84209D23068CF
:1023500020F0070038433060306800F00700B842D2
:1023600051D128683B4C810712D5400703D56068DE
:1023700040F4E06060602878000703D5606840F4AE
:10238000605060606068A96820F0F00008436060F9
:102390002878C00728D06868012810D02168022852
:1023A00010D0890700292EDA616821F0030101436A
:1023B0006160FFF771FC804641F288390DE02168C9
:1023C0008903EFE78901EDE7FFF766FCA0EB080161
:1023D000494502D90320BDE8F0876068696800F0CC
:1023E0000C00B0EB810FEFD1306800F00700B8426D
:1023F0000BD9306820F0070038433060306800F0B7
:102400000700B84201D00120E5E72878400705D54C
:102410006068E96820F4E06008436060287800079D
:1024200006D56068296920F4605040EAC100606008
:1024300000F038F86168084AC1F30311515CC840E4
:102440000649086006480068FFF7F8FE0020C2E76A
:102450000020024000100240595B0008900000205C
:10246000880000200448054900684968044AC1F30F
:102470000221515CC84070479000002000100240CB
:10248000695B00080448054900684968044AC1F3CB
:10249000C221515CC84070479000002000100240EB
:1024A000695B000812A185B00FC98DE80F0014A068
:1024B000144A006804905168134801F00C03042B7F
:1024C00010D0082B0ED1C1F38343C9031DF80300BC
:1024D0000AD5516804AAC1F34041515C0A4A5043ED
:1024E000B0FBF1F005B0704708494843FAE7000037
:1024F00002030405060708090A0B0C0D0E0F101045
:10250000010200000010024000127A0000093D00A4
:102510002DE9F84F040070D02078C04DC00749D095
:102520006868C0F38100012807D06868C0F38100A3
:10253000022809D16868C00306D52868800339D508
:1025400060680028E7D035E06068B0F5803F0BD0C8
:1025500010B1B0F5A02F11D0286820F48030286089
:10256000286820F4802002E0286840F48030286049
:10257000606890B1FFF790FB06460AE0286840F4D7
:1025800080202860F0E700BFFFF786FB801B6428EF
:1025900073D828688003F7D50CE0FFF77DFB06466B
:1025A00005E000BFFFF778FB801B6428F0D828689F
:1025B0008003F7D420789A4E80074FF001094FF03E
:1025C000000839D5686810F00C0F07D06868C0F3B0
:1025D0008100022809D16868C00306D428688007F2
:1025E00014D52069012808D110E02069B0B1C6F8DF
:1025F0000090FFF751FB074605E00AE1FFF74CFBAF
:10260000C01B0228C4D828688007F7D528686169EC
:1026100020F0F80040EAC10028600DE0C6F8008014
:10262000FFF73AFB074604E0FFF736FBC01B022822
:1026300023D828688007F7D4207800072CD579485C
:10264000A169D9B1C0F80090FFF726FB074604E066
:10265000FFF722FBC01B02280FD8686A8007F7D556
:1026600071484FF4FA510068B0FBF1F0009000BFE0
:102670000098411E0091FAD20EE080E0C0F8008080
:10268000FFF70AFB074604E0FFF706FBC01B022822
:1026900075D8686A8007F7D42078400760D5E86964
:1026A0000027C00008D4E86940F08050E861E8697C
:1026B000012700F0805000905C480168C90513D4E0
:1026C0000168834641F480710160FFF7E5FA8246B4
:1026D00006E000BFFFF7E0FAA0EB0A0064284ED83E
:1026E000DBF80000C005F5D5E06801280AD008B184
:1026F000052813D0286A20F001002862286A20F0FB
:10270000040002E0286A40F001002862E06841F21B
:10271000883B98B1FFF7C0FA82460BE0286A40F088
:1027200004002862EEE700BFFFF7B6FAA0EB0A014B
:1027300059455AD8286A8007F6D50CE0FFF7ACFA5D
:10274000824605E0FFF7A8FAA0EB0A0159454CD8EC
:10275000286A8007F6D41FB1E86920F08050E8614C
:10276000E06988B36968C1F38101022944D0022875
:10277000C6F8608004D0FFF78FFA044638E034E0F2
:10278000FFF78AFA074604E0FFF786FAC01B022823
:102790002BD828688001F7D4206AB0F5803F05D196
:1027A0006868A16820F4003008436860D4E9080133
:1027B0000843696821F4741108436860C6F86090A2
:1027C000FFF76AFA044606E025E000BFFFF764FA67
:1027D000001B022809D828688001F7D51BE000BF3C
:1027E000FFF75AFA001B022802D90320BDE8F88F30
:1027F00028688001F4D40EE00128F7D06868226AC6
:1028000000F48031914204D1616A00F47010884272
:1028100001D00120EAE70020E8E7000000100240B4
:1028200000004242800442429000002000700040BC
:1028300010B5401EB0F1807F01D3012010BD4FF0D4
:10284000E02460610F21601701F064FD0020A061A9
:1028500007202061002010BD7047704770B590F8C8
:102860003C20012A26D0012480F83C40022280F836
:102870003D2003685A689D6822F070060A6832435A
:102880005A600D4B02689A4208D0B2F1804F05D0D1
:102890000A4B9A4202D00A4B9A4204D1496825F069
:1028A00080031943916080F83D40002180F83C107E
:1028B000084670BD022070BD002C0140000400409D
:1028C0000008004010B5040003D094F83D0010B19A
:1028D00007E0012010BD002084F83C00204600F0F5
:1028E0001FF8022084F83D00211D206801F066FADF
:1028F000012084F8460084F83E0084F83F0084F804
:10290000400084F8410084F8420084F8430084F8D1
:10291000440084F8450084F83D00002010BD00000C
:1029200008B501681048B1F1804F14D00F4A9142A8
:1029300019D1C16941F00401C161C069002200F0F0
:102940000400009011461E20FFF7C4FCBDE80840BB
:102950001E20FFF7B1BCC16941F00101C161C0692E
:1029600000F00100009008BD001002400008004087
:1029700090F83D10012901D001207047022180F814
:102980003D100168CA6842F00102CA6000680B4944
:10299000884208D0B0F1804F05D00949884202D062
:1029A0000849884204D1816801F00701062903D053
:1029B000016841F00101016000207047002C0140D6
:1029C000000400400008004070B5044690F83C0048
:1029D000012817D0012584F83C50022084F83D00DE
:1029E0002068826822F0770222F47F4282600868C1
:1029F000502830D00DDC20284DD005DC98B31028AD
:102A00003BD148E0022070BD302844D0402834D16A
:102A100039E0602828D0702806D0B0F5805F2CD02F
:102A2000B0F5005F29D10AE0CB68D1E90121206827
:102A300001F007FA2068816841F0770109E0CB686E
:102A4000D1E90121206801F0FCF92068816841F496
:102A50008041816011E0CA684968206801F0A6FAE7
:102A60005021206807E016E0CA684968206801F034
:102A7000AEFA6021206801F0EEF984F83D500020A4
:102A800084F83C0070BDCA684968206801F08EFA7D
:102A900040212068EFE7226801461046EBE77047C7
:102AA00070B50446006801694FF00005C943890705
:102AB00015D4C168C943890711D4E91E01610120F9
:102AC0002077206880698007204602D0FFF7E7FF63
:102AD00004E000F0BDF8204600F04CF925772068AE
:102AE0000169C943490717D4C168C943490713D4C9
:102AF0006FF004010161022020772068806910F4E2
:102B0000407F204602D0FFF7CAFF04E000F0A0F8A3
:102B1000204600F02FF9257720680169C94309078D
:102B200016D4C168C943090712D46FF008010161C6
:102B3000042020772068C0698007204602D0FFF774
:102B4000AEFF04E000F084F8204600F013F925778A
:102B500020680169C943C90617D4C168C943C906B9
:102B600013D46FF010010161082020772068C0693C
:102B700010F4407F204602D0FFF791FF04E000F000
:102B800067F8204600F0F6F8257720680169C94308
:102B9000C90708D1C168C943C90704D1891E0161A9
:102BA000204600F037F920680169C943090609D4B5
:102BB000C168C943090605D46FF080010161204650
:102BC000FFF74AFE20680169C943490609D4C16874
:102BD000C943490605D46FF040010161204600F069
:102BE000B9F920680169C94389060BD4C168C94392
:102BF000890607D46FF0200101612046BDE87040CE
:102C0000FFF72BBE70BD000000B585B0002100911C
:102C10000191029103910068B0F1804F11D10A48EF
:102C2000816941F0040181618069694600F0040016
:102C30000490032000900220019003900348FEF7C7
:102C400035FF05B000BD0000001002400008014043
:102C5000704770B5044690F83C000D4601280AD034
:102C6000012084F83C0042B1042A18D0082A2AD056
:102C70000C2A4DD139E0022070BD206801F0F4F833
:102C80002068816941F0080181612068816921F033
:102C900004018161206881692A69114311E020687B
:102CA00001F00AF92068816941F4006181612068BE
:102CB000816921F480618161206881692A6941EA22
:102CC0000221816124E0206801F022F92068C169B5
:102CD00041F00801C1612068C16921F00401C161AE
:102CE0002068C1692A69114311E0206801F03CF9AC
:102CF0002068C16941F40061C1612068C16921F4A3
:102D00008061C1612068C1692A6941EA0221C1610B
:102D1000002084F83C0070BD10B5040003D094F886
:102D20003D0010B107E0012010BD002084F83C00F8
:102D3000204600F01EF8022084F83D00211D206886
:102D400001F03CF8012084F8460084F83E0084F845
:102D50003F0084F8400084F8410084F8420084F881
:102D6000430084F8440084F8450084F83D000020C6
:102D700010BD70477047000010B50446022249B1EB
:102D800004290ED0082913D094F84100012816D048
:102D9000012010BD94F83E000128F9D184F83E20AE
:102DA0000FE094F83F000128F2D184F83F2008E0BA
:102DB00094F840000128EBD184F8402001E084F829
:102DC00041200122206801F02FF80F492068884235
:102DD00003D1426C42F4004242642068884208D029
:102DE000B0F1804F05D00949884202D00849884295
:102DF00004D1816801F00701062903D0016841F080
:102E000001010160002010BD002C014000040040C1
:102E100000080040F0B54849006887B0096888425A
:102E200078D14648464C0090434804F13402A2F160
:102E300014019C38636C00F01BFD04F150031A1F51
:102E400002AD111F181D85E80F00011DE06ACDE9D4
:102E5000000104F11C000FC800F0E6FE04F1640359
:102E60001A1F6060111F181D85E80F00011D206CDE
:102E7000CDE9000104F130000FC800F0D5FEA060DC
:102E800080F00045C4E9030501466068064602F08B
:102E90009BFA60612946304602F096FA294D2A4E87
:102EA000A0612A46314604F11400FEF74AFC2A4686
:102EB000314604F11800FEF744FC1F4E234F6069B1
:102EC000234D483EB84209D380F0004060610122A2
:102ED00010212846FEF7DAFE002205E0002210212C
:102EE0002846FEF7D3FE012220212846FEF7CEFE1B
:102EF000606902F09FFB31684863A069B8420AD359
:102F000080F00040A061012240212846FEF7BEFE6D
:102F1000002206E00EE0002240212846FEF7B6FE21
:102F2000012280212846FEF7B1FEA06902F082FB53
:102F30003168886307B0F0BD3C0200206F12833A0D
:102F40000000002000C079C400C0794400008080E7
:102F5000000801407047704770470000F8B50268EC
:102F600004461068D168536910F00F0F4FF0000548
:102F700053D003F0010601F4907737435FD0C207C6
:102F800005D0CA0503D5226C42F001022264420733
:102F900005D5DA0703D0226C42F0020222648207D0
:102FA00005D5DA0703D0226C42F00402226402073E
:102FB00007D501F02002324303D0226C42F0080210
:102FC0002264226C002A34D0800604D5880602D5FB
:102FD000204601F096F820684069216CC0F380100B
:102FE000090700D430B3204601F06AF8206841692F
:102FF00049061BD5416921F040014161A06BA8B190
:1030000058494163A06BFEF7F5FB002811D0A06B77
:10301000416B01B0BDE8F040084783060FD58B0631
:103020000DD52046BDE8F84001F06BB82046FFF70B
:1030300093FFF8BD2046FFF78FFF2564F8BD266B90
:103040002023012E52D1C60650D5CE064ED510688B
:1030500050680090506940062AD5A16B0868406806
:103060000004000CEAD0A68D8642E7D9E085886985
:10307000202818D0D06820F48070D0602068416982
:1030800021F0010141612068416921F04001416165
:1030900084F83E3025632068C16821F01001C160CA
:1030A000A06BFEF783FBA08DE18D401A81B219E081
:1030B000A08DE18D401A81B2E08D0028BED000299C
:1030C000BCD0D06820F49070D0602068426922F0B3
:1030D0000102426184F83E3025632068C26822F014
:1030E0001002C2602046FFF736FFF8BD05062BD55B
:1030F0000D0629D594F83D002128F6D1A068B0F539
:10310000805F01D12069B0B1206A411C2162216831
:1031100000784860E08C401E0004000CE084E4D19C
:103120002068C16821F08001C1602068C16841F059
:103130004001C160F8BD206A0088C0F308005060FB
:10314000206A801C2062E5E74006F3D54806F1D5E9
:10315000D168204621F04001D16084F83D3000F074
:1031600014F9F8BDF33F000870B5040004D094F8DA
:103170003D00002510B106E0012070BD84F83C50F0
:10318000204600F023F8242084F83D002068C16820
:1031900021F40051C160204601F00EF82068016959
:1031A00021F4904101612068416921F02A014161C7
:1031B0002068C16841F40051C1602564202084F872
:1031C0003D0084F83E00002070BD00002DE9F04372
:1031D00085B0002400940194029403940646036889
:1031E0004148DFF800C102210322051580274FF076
:1031F000200863453DD1836943F48043836183693B
:1032000003F480430493836943F00403836180697A
:10321000DFF8D89000F0040004900802CDE9000126
:10322000039269464846FEF741FCCDE900546946E1
:1032300048460294FEF73AFC2E4D2D48C5E900049D
:10324000C5E902472C61C5E905482846EC61FEF74F
:10325000C7FB08B1FEF7A8FAB56300221146252086
:103260006E62FFF737F82520FFF726F805B0BDE8B6
:10327000F083DFF884C06345F8D1C36943F4802349
:10328000C361C36903F480230493836943F0080393
:1032900083618069CDE9005100F00800CDE9032089
:1032A000164D69462846FEF701FCE814CDE90004F6
:1032B000694628460294FEF7F9FB0D48104D283860
:1032C000C5E90004C5E902472C61C5E9054828465F
:1032D000EC61FEF785FB08B1FEF766FAB5636E6236
:1032E000C4E700000038014000100240000801401F
:1032F000580002400C03002000480040000C014030
:103300005003002090F83E30202B0ED159B152B11D
:1033100090F83C30012B08D0012380F83C3000238A
:10332000036300F0A5BF0120704702207047000032
:1033300070B512490068096888421DD1104C114AC5
:103340000025216821B900201554401C6428FBDBAE
:103350000B48803800780D2803D05054491C216058
:1033600002E000F09FFC2560BDE8704004490122A6
:1033700080390248FFF7C6BF70BD0000C8020020B8
:1033800080000020D800002070477047FEE70168E9
:103390004A69D24352050FD46FF480624A6100211A
:1033A00040F8301F202242738173026942F0040208
:1033B0000261017301207047002070472DE9F84F2A
:1033C0000446006889460B9D01689846174641F4FB
:1033D000806101602068016841F48071016000959E
:1033E0004FF0011B0022594620460A9B00F0DEF8F0
:1033F0004FF4007A40B120680068C00501D5C4F8D8
:1034000040A00320BDE8F88F216809F0FE000861A4
:103410002B46284920460A9A00F0FCF8F0BB2068A9
:103420004169806900902A4620460A9900F070F9A7
:1034300040B1206C04283AD12068016841F4007141
:10344000016034E0FEB2B8F1010F09D02168380AFA
:1034500008612A4620460A9900F05AF90028E8D166
:10346000206806612A4620460A9900F051F9002892
:10347000DFD12068016841F480710160009500226D
:10348000594620460A9B00F091F80028B3D12168E4
:1034900009F0FF0040F00100086100E007E02B4662
:1034A000044920460A9A00F0B5F80028AAD0012065
:1034B000A8E70000020001002DE9F8430446006877
:1034C0000D46DDE9089701689846164641F480717B
:1034D00001604B4600224FF001112046009700F09A
:1034E00065F848B120680068C00502D54FF4007047
:1034F00020640320BDE8F883216805F0FE00086120
:103500003B464A461549204600F084F888B92068B1
:103510004169806900903A464946204600F0F8F833
:1035200048B1206C042804D12068016841F400717E
:1035300001600120DEE7F5B2B8F1010F09D0216882
:10354000300A08613A464946204600F0E1F8002872
:10355000E7D1206805610020CCE7000002000100EF
:1035600070B516460D4604460DE02046FFF70FFFE6
:1035700008B1012070BD681C05D0FEF78DFB801BD3
:10358000A84207D835B120684069C0434007ECD451
:10359000002070BD002044F8300F20216173A0731B
:1035A000216941F0200121612073E2E72DE9F04714
:1035B0001E4690460D460446C1F30747DDF82090AD
:1035C00008E0701C06D0FEF767FBA0EB0900B042D4
:1035D0000FD876B12068012F18D0806925EA000045
:1035E0000004000C14D000214145EAD00020BDE8C1
:1035F000F087002044F8300F20216173A073216907
:1036000041F02001216120730120F0E74069E5E7E6
:103610000121E9E72DE9F0479A4691460E46044616
:1036200000254FF02008C1F3074725E020684069D6
:10363000C043400514D42068016841F40071016062
:1036400021686FF480604861256384F83D8084F8C8
:103650003E50206C40F00400206484F83C501FE091
:10366000B9F1FF3F08D0FEF717FBA0EB0A0149456F
:103670000CD8B9F1000F09D02068012F13D0806950
:1036800026EA00000004000C0BD0CFE744F8305FBE
:1036900084F80D80A573206940F020002061257317
:1036A0000120BDE8F0874069EAE72DE9F0410025F7
:1036B00090460E460446202717E04069C043C006E6
:1036C0000CD454F8301B6FF01000486144F81059C6
:1036D0006777A577206A2062257717E0FEF7DCFA86
:1036E000A0EB0800B04208D83EB120684169C94348
:1036F0004906E2D40020BDE8F08144F8305F6773EA
:10370000A573206940F02000206125730120F2E7B5
:1037100070B516460D4604460DE02046FFF737FE0D
:1037200008B1012070BD681C05D0FEF7B5FA801BFA
:10373000A84207D835B120684069C0430006ECD4E0
:10374000002070BD002044F8300F20216173A07369
:10375000216941F0200121612073E2E72DE9F74F53
:10376000414F84B00846796A019102F0D7F80146CA
:10377000069801F0CBFFB96A01F026FE3B4C834668
:103780000698D4F80CA0514601F0C0FF009066687E
:10379000314602F0C3F8A568294602F0BFF8F96A7D
:1037A00001F012FE069901F0B1FF216801F00CFE54
:1037B00081463146009802F0A6F8804629460098D6
:1037C00002F0A1F802900699386B01F09FFF514674
:1037D00001F0FAFD82464846796B01F0F5FD064698
:1037E0000146484601F064FE05463146029801F064
:1037F0005FFE06465946049802F090F8009028466D
:10380000009901F083FF594601F0DEFDB86283465E
:103810003046009901F07AFF019901F0D5FD7862F8
:103820002846494601F072FF494602F06CF82060D4
:103830002846414601F06AFF414602F064F86060A4
:103840003046494601F062FF029902F05CF8A06040
:103850003046414601F05AFF514602F054F8E0600C
:1038600007B05846BDE8F08F940000209403002074
:103870002DE9F0471D4616468A460446DDF820909D
:1038800000F09AF8204600F0CDF8224C2946206A34
:1038900002F044F880462062484601F069FD1E4A65
:1038A0001E4B01F0A3F805460F46404601F060FDAF
:1038B0002A463B4601F03EFB05460F46306801F0C4
:1038C00057FD2A463B4601F091F801F05DF8306063
:1038D000E068616980F0004000F0BCFD01F048FD47
:1038E0000F4D104E2A46334601F080F800220E4B51
:1038F00001F020FB2A46334601F034F901F044F888
:10390000A0634A46E169FFF729FFCAF80000BDE855
:10391000F08700009400002092CB7F48BF7D4D3F90
:10392000E38D9354FB210940008066402DE9F0416E
:1039300086B08046012504A8CDE9000564242B4605
:103940007522D02102944046FEF770FA9DF81000CF
:1039500068282ED1002703AE8DF80C700096CDE9B3
:10396000015401236B22D0214046FEF787FB07203C
:103970008DF80C000096CDE9015401231922D021C5
:103980004046FEF77BFB8DF80C700096CDE90154A4
:1039900001231C22D0214046FEF770FB8DF80C70ED
:1039A0000096CDE9015401231B22D0214046FEF7A9
:1039B00065FB06B0BDE8F081F0B585B06423062252
:1039C00003A98DE80E0001233B22D021FEF72EFA39
:1039D000BDF80C00124C40BA00B22080BDF80E10A9
:1039E00049BA0EB26680BDF8101049BA0DB2A58072
:1039F00001F040FE6FF00D07394602F067F8E06015
:103A0000304601F037FE394602F060F82061284662
:103A100001F030FE394602F059F8606105B0F0BDA2
:103A200094000020F0B585B06423062203A98DE838
:103A30000E0001234322D021FEF7F8F9BDF80C0057
:103A4000164C40BA00B2E080BDF80E1049BA0EB272
:103A50002681BDF8101049BA0DB2658101F016FA41
:103A60000F4F00223B4601F07DF800F08DFFA06172
:103A7000304601F00BFA00223B4601F073F800F0EB
:103A800083FFE061284601F001FA00223B4601F085
:103A900069F800F079FF206205B0F0BD94000020C5
:103AA0000060604030B585B000241848009401944F
:103AB00002940394816941F020018161816901F0E0
:103AC00020010491816941F004018161816901F063
:103AD00004010491816941F00801816180690C4D04
:103AE00000F0080004900022F0212846FEF7CEF8EE
:103AF000F02000900120CDE90104022003906946E6
:103B00002846FDF7D3FF05B030BD0000001002408D
:103B10000008014010B58EB0002407940894099461
:103B20000A940B941C2168460C94FCF785FB2248F0
:103B30004FF0804101604721C0E9011440F2E731B4
:103B4000C0E903148461FEF7BDFE08B172B6FEE75A
:103B50004FF48050079007A91748FEF735FF08B1CA
:103B600072B6FEE71448FFF7D7F808B172B6FEE761
:103B70000B940BA910480C94FEF770FE08B172B6B6
:103B8000FEE76020CDE900040294002269460A485D
:103B90000494FFF75EF808B172B6FEE704226946A6
:103BA0000548FFF756F808B172B6FEE70248FFF77E
:103BB0002BF80EB010BD0000F401002010B586B047
:103BC0000024174800940194029403940494134928
:103BD0000594016040F60F61C0E901140921C0E9B4
:103BE00003148461FEF76EFE08B172B6FEE74FF46F
:103BF0008050009069460A48FEF7E6FE08B172B6AA
:103C0000FEE7049404A906480594FEF727FE002861
:103C100001D072B6FEE706B010BD000000080040FB
:103C20003C020020FEE7FEE72DE9F05F92460AAA7B
:103C30009B4692E8F00301F071FE01462860504671
:103C400001F064FD38603168286801F0BDFB594619
:103C500001F05CFDC8F800003168286801F05EFEE4
:103C6000214601F053FDC9F8000028683060D8F8FB
:103C70000010386801F0A8FBD9F8001001F0A4FB8F
:103C8000044C054A054920602046FDF75AFD20688E
:103C9000BDE8F09FD000002000C079C400C0794486
:103CA00070477047224910B501F16400FCF7A0FA93
:103CB00020491F48FCF796FA1F4C20A120670020DE
:103CC000FCF790FA60671DA10020FCF78BFAA06753
:103CD0001AA10020FCF786FAE06719A1206FFCF713
:103CE000D3FAA8B118A1206FFCF7CEFA00280ED1A4
:103CF0000021606F00F012FEA0630021A06F00F0B1
:103D00000DFEE0630021E06F00F008FE206410BDAE
:103D10000021606F00F002FE60620021A06F00F0E1
:103D2000FDFDA0620021E06F00F0F8FDE06210BD33
:103D3000D8000020545B0008000000202C00000088
:103D4000706974636800000079617700FEF75CBAFF
:103D500030B58FB028216846FCF76EFA14210AA806
:103D6000FCF76AFA01210804CDE90010002402944E
:103D700002250491CDE907504FF4E0100990684600
:103D8000FEF7C6FB08B172B6FEE70F20CDE90A05C3
:103D90004FF48060CDE90C4002210AA80E94FEF792
:103DA000CBFA002801D072B6FEE70FB030BD7047E5
:103DB0000148FEF775BE00003C020020F0B5026825
:103DC000164B174C174D4FF08047984205D0B8421C
:103DD00003D0A04201D0A84203D122F070064A6865
:103DE0003243984205D0B84203D0A04201D0A84245
:103DF00003D122F44074CA6822434C6922F0800245
:103E0000224302608A68C2620A688262984201D1D3
:103E10000969016301214161F0BD0000002C0140EE
:103E2000000400400008004010B501F01F0301210C
:103E3000046A99408C430462016A9A40114301620A
:103E400010BD10B5846842EA032224F47F440A437B
:103E50002243826010BD826822F070020A4342F061
:103E6000070181607047000030B5026A22F001024C
:103E70000262026A4368846924F073050C682C436B
:103E800022F002058A682A430A4DA8420BD122F08B
:103E90000805CA6823F440732A434D6922F00402DE
:103EA0001D438B692B43436084614968416302620F
:103EB00030BD0000002C014030B5026A22F0100233
:103EC0000262026A436884690D6824F4E64444EAA5
:103ED00005248D6822F0200242EA05120B4DA8420B
:103EE0000ED1CD6822F0800242EA05124D6923F41A
:103EF000406343EA85038D6922F0400243EA85036B
:103F00004360846149688163026230BD002C0140D6
:103F100030B5026A22F480720262036A4268C469A0
:103F200023F4007324F073050C682C438D6843EA76
:103F300005230C4DA8420ED1CD6823F4006343EA5B
:103F400005234D6922F4405242EA05128D6923F49B
:103F5000806342EA05124260C4614968C16303623A
:103F600030BD0000002C014030B5026A22F48052BE
:103F70000262046A4268C3690D6823F4E64343EAB7
:103F800005238D6824F4005444EA0534064DA84204
:103F900004D14D6922F4804242EA85124260C36135
:103FA00049680164046230BD002C014010B5036A09
:103FB000046A24F001040462846924F0F00444EAF1
:103FC000021423F00A020A438461026210BD10B594
:103FD000036A23F0100303628369046A23F47043C5
:103FE00043EA023224F0A00343EA01118261016234
:103FF00010BD10B5406A0021C185C184FEF7ACFF39
:1040000010BD70B5446A2068406994F83D10C0F353
:10401000C0100025212904D118B1E584204600F004
:1040200067F82068406994F83E10C0F38010222998
:1040300004D118B1E585204600F042F8206C40F02C
:10404000100020642046FEF787FF70BD10B50146C2
:10405000406A0968096889061BD40021C185016886
:10406000CA6822F48072CA6001684A6922F00102BB
:104070004A6101684A6922F040024A61202180F8C1
:104080003E10016B012904D10168CA6822F01002B8
:10409000CA60016B012902D0FFF74AF910BD818D7A
:1040A000FEF759FF10BD10B5406A016B012902D01F
:1040B000FFF76AF910BD818D4908FEF74CFF10BD6E
:1040C0000168CA6822F49072CA6001684A6922F0E5
:1040D00001024A61016B012904D10168CA6822F01A
:1040E0001002CA60202180F83E1000210163704751
:1040F0000168CA6822F0C002CA60202180F83D1021
:10410000704708B590F83E10222901D0022008BD62
:1041100082684FF480539A4201D1016921B1816ACA
:104120009A421BD04AB10AE00268816A5268C2F31F
:1041300008020A80816A891C08E0026972B102687B
:10414000526802F07F020A70816A491C8162C18D47
:10415000491E0904090CC18503D019E002685268A0
:10416000F1E70168CA6822F02002CA600168CA68E3
:1041700022F48072CA6001684A6922F001024A6131
:10418000202180F83E10016B012903D0FFF7D0F801
:10419000002008BD002101630168CA6822F01002F6
:1041A000CA6001680A68D20602D50A6849680091A7
:1041B000818DFEF7D0FEEBE770B50446006801691B
:1041C000E26821F44051114301612169A06808436C
:1041D000616908432168CA6841F20C639A4302434B
:1041E000CA6020684169A26921F4407111434161AC
:1041F0001E492068884202D1FEF744F901E0FEF72B
:1042000031F900EBC00101EB00126068642180000D
:10421000B2FBF0F3B3FBF1F36FF018067343B2FB9C
:10422000F0F5B2FBF0F605EB8305322303EB051541
:10423000B5FBF1F5B6FBF1F605F0F00505EB06155B
:10424000B2FBF0F6B2FBF0F0B0FBF1F06FF0180249
:10425000504306EB800003EB0010B0FBF1F0216847
:1042600000F00F002844886070BD00000038014055
:1042700038B58162828500251346044605642220F4
:1042800084F83E00A26B13489062A26B1248D06281
:10429000A26B12481063A06B0A4645632168A06BAD
:1042A000091DFDF7CBFB206801684168009184F887
:1042B0003C50C16841F48071C1602068416941F09F
:1042C000010141612068416941F0400141610020E4
:1042D00038BD00004D400008A7400008034000081A
:1042E0000148FEF73BBE000084020020FEE74100CB
:1042F000080218BF04200A0E18BF40F001004FF05A
:104300007F4232EA010108BF40F00200012808BFE5
:10431000052070470907090E002804DB00F1E020A2
:1043200080F80014704700F00F0000F1E02080F8E2
:10433000141D704740F2013200204FF0E04101F0BF
:1043400097BB0000024A0020110701F091BB00005A
:1043500001FDFFFF01F038B86FF05E01080701F0C2
:10436000B5BB10B50446D1E9000100F003F82060A8
:1043700010BD0000F8B504460D466A4600F0DEF9AF
:1043800000987E30009000281EDC00221346204654
:10439000294600F03FFD17D0002140F608004FF0FD
:1043A000000006462046294600F0EEFA044640F694
:1043B000080006EA00014FF0000034F0004004BF9E
:1043C0000220FBF7A9FF29E00098FF2828DB002145
:1043D00008464FF0000000F4400600221346204635
:1043E000294600F0A5FE8CBF002501250220FBF721
:1043F00093FF4FF0FF4446B1002D0CBF4FF4000077
:104400004FF48000B04218BF084C042108464FF01A
:104410000000002D04BF84F00040F8BD2046F8BD28
:1044200020462946BDE8F84000F0AEBAFFFF7F7F86
:1044300010B504460A46D4E90003194600F0AAF96B
:10444000C4E9000110BD30380A2801D201207047AC
:10445000002070472DE9F0474FF0684202EB40031F
:104460000C460546B3F1654F3CBF02EB4102B2F189
:10447000654F80F0CD8000BFC0F3C752C1F3C75372
:10448000D21A1B2A06DD10F0004F14BF8748884857
:10449000BDE8F08712F11A0F2FDA11F0004F06D0A5
:1044A00010F0004F0CBF83488348BDE8F0872146D9
:1044B000284600F0FDFF0646FFF719FF042808BF55
:1044C000FFF74AFF2846FFF712FF05462046FFF791
:1044D0000EFF04463046FFF70AFF042D18BF052DD6
:1044E00008D1042C18BF052C04D1002804BF0220D9
:1044F000FBF712FF3046BDE8F0874200B2EB410FF8
:1045000025D910F0004F19BF6C4F6D4E6D4F6E4E98
:10451000224685F0004415460A4680F000411046C8
:104520000A1A5200B2F1807F3ED248406749DFF854
:10453000A0A110F0004F18D04FF03F48384601F0CE
:10454000EDF907465146304601F0E8F917E011F061
:10455000004F04BF00263746E2D010F0004F19BFCD
:104560005C4F5D4E5D4F5E4EDAE74FF07C5838464B
:1045700000F02AFF07465146304600F025FF064668
:104580004146284601F0C2F8214600F01DFF824650
:104590002146404601F0BAF8294601F0B4F95146E7
:1045A00000F086FF044604E02146284600F080FF24
:1045B0000446014601F0AAF880464A4901F0A6F8EF
:1045C000494900F001FF414601F0A0F8474900F0D9
:1045D000FBFE414601F09AF8454900F0F5FE4146E0
:1045E00001F094F8434900F0EFFE054641462046AD
:1045F00001F08CF8294601F089F8314600F0E4FE1C
:10460000214600F0E1FE3946BDE8F04700F0DCBE8F
:104610004FF07F42B2EB400F28BFB2EB410F03D205
:10462000BDE8F047FFF796BE40EA01035B0008BF14
:1046300044F0FF410AD0B2EB400F08BFB2EB410F8C
:1046400006D125F0804024F0804105460C4613E752
:10465000B2EB400F12BF5FEA410345F0FF4004F0A8
:1046600000413FF409AFB2EB410F12BF5FEA4002D5
:1046700005F0004044F0FF413FF4FEAE4A0092EAEC
:1046800040033FF5F9AE002AACBF4FF09F464FF014
:104690003E56314601F03AF805463146204601F0D3
:1046A00035F8044628462146E6E60000DB0FC9BF80
:1046B000DB0FC93FDB0F4940DB0F49C00000C9BF1A
:1046C00022AAFDB90000C93F22AAFD390060ED3ED3
:1046D000C30ACE37000049C022AA7DBA0000494073
:1046E00022AA7D3A2DAD65BD8FB8D53D0FB511BE5F
:1046F00061C84C3EA8AAAABE2DE9F0418046002020
:1047000014460E4605460C4F106008E04046FFF781
:1047100089F92068396A00F057FE6D1C2060B542A7
:10472000F4DB304600F0A6FF0146206800F0C0FE32
:104730002060BDE8F08100009400002010B5144610
:1047400000222260114A21F000439342A8BF10BD0D
:1047500053EA000208BF10BDB3F5801FA8BF22684E
:1047600007DA362201F084F96FF0350221F00043B8
:104770002260DFF81CC06FF31E510CEB23531A4468
:1047800041F0FF5141F00051226010BD0000F07F68
:1047900002FCFFFF2DE9F04106460C4640F2FF7592
:1047A000174635EA14502BD000221346304600F04D
:1047B00031FB25D03A463046214601F059F90646EC
:1047C0000C4635EA145010D000221346304600F053
:1047D00021FB15D10220FBF79FFDFFF7B3FD0A4631
:1047E000214662F31E01BDE8F0810220FBF794FD33
:1047F000FFF7A0FD0A46214662F31E01BDE8F081E5
:1048000030462146BDE8F08108B5FDF705FDFFF70C
:104810009FFAFFF747F9FFF77DF93948416941F001
:10482000010141614069002200F001000090114641
:104830000D20FDF74FFD0D20FDF73EFD0022114636
:104840000F20FDF747FD0F20FDF736FD2E482D49BF
:104850004FF4165500240160C0E901540C26C460D1
:10486000C0E904468461C461FEF77EFC08B172B6FB
:10487000FEE725482549E43801602549C0E90114CF
:104880004FF48041C0E9034144618461C461046222
:10489000FDF708FA08B172B6FEE71B481D4944301F
:1048A0000160C0E90154C460C0E904468461C46188
:1048B000FEF75AFC08B172B6FEE71348E438FFF77A
:1048C00035F81148144A42F21071E438FFF714FF2A
:1048D00011490D48012244394430FEF713FDFFF71A
:1048E0006DF9094800219038FEF746FA0648042180
:1048F0009038FEF741FA04484838FEF739F8FEE7E9
:1049000000100240003801408402002000540040A2
:10491000A0860100004800404400002008B50A4677
:104920000021009101466846FBF7FCFC009808BD99
:1049300010B500290AD00878002807D00548784427
:10494000FBF7A2FC002801D0002010BD02487844EB
:1049500010BD0000FA120000F212000010B500298C
:104960000AD00878002807D005487844FBF78CFC6B
:10497000002801D0002010BD0248784410BD00007E
:10498000EA120000E212000021F00042A2F160529F
:10499000B2F5801F01F0004328BFD2F17F6C0BD924
:1049A0005FEA001C43EAC20242EB507018BF704736
:1049B00028BF20F001007047B2F5801FBCBF184629
:1049C00070474FEA410C1CF5001F02D2084600F068
:1049D00064BF70B500F058FB00000089FFF7F6BF18
:1049E0004FF00040A0F580007047000010B591EA3C
:1049F000030F48BF83F0004300F1D883841A71EBA2
:104A0000030C05D2121943EB0C03001B61EB0C01E4
:104A1000DFF824E14FEA1154A4EB135C1EEA430FC4
:104A200018BF9EEA445F73D023EA0E03DCF1200E28
:104A300021EA045143F4801332D322FA0CFE10EB26
:104A40000E0023FA0CFE41EB0E01CCF1200E03FA0E
:104A50000EFE10EB0E0051F10001B1F5801FCCF1FC
:104A6000200E32D201EB045112FA0EF2BDE81040D2
:104A700058BF7047401C38BF5FEA420218BF7047FA
:104A8000002814BF20F0010041F100014FEA41036A
:104A900013F5001F38BF7047A1F1C04100F042BBC1
:104AA000012A43EB0302ACF1200CDCF11F0E32BFF4
:104AB0004FF0000E23FA0CF310EB030041EB04510E
:104AC000B4EB115FD0D0A1EB045101F5801149087E
:104AD0005FEA300001EB04510ED350F1000038BF03
:104AE00012FA0EFE08D1BDE81040C9E7401C38BFDD
:104AF0005FEA4202CAD1C3E7BDE810404FEA410372
:104B000013F5001F38BF7047A1F1C04100F00ABB88
:104B10009EEA445F08D011EA5E0FBDE8104004BF72
:104B200001F0004100207047BDE8104070B500F072
:104B3000ABFA00BF64FBBE3E0000E0FF02494FF04D
:104B4000000000F063BF00BF0000F87F491058BFAD
:104B5000C1F140415B1058BFC3F140438B42EFF3BA
:104B6000008070472DE9C04130B4DFF8A0C23CEAB4
:104B7000111418BF3CEA131400F0EC8081EA03051D
:104B80001CEA111444EAD57418BF1CEA131500F08E
:104B9000C780A4EB05044FF0004545EAC12145EA72
:104BA000C32341EA505143EA525304F17F749942BE
:104BB00004F500344FEAC0204FEAC22208BF9042F9
:104BC00000F09C804FEA13650FF24016765D4FEAC5
:104BD000134506FB05F7C7F1807706FB07F74FEA99
:104BE000D737A7FB03687642C8F58038A7FB06CE07
:104BF00038BFA8F1010807FB08E64FF0000EA6FB3E
:104C0000028CE6FB03CEDCF1000CCEF1004E38BF87
:104C1000AEF1010EA6FB0C584FF000074FF0000557
:104C2000E6FB0E87A1FB08C6A0FB07CE16EB0E061F
:104C300045F10005E1FB076515F1E04E7EBFA4F5E7
:104C400080345FEA46066D4116F1800745F10005A4
:104C50004FEA17274FEA066647EA0567A6F1DE46E0
:104C6000B6F1805F4FEA15251FD9384624F0010CB4
:104C700005EBC471BCF1FE6F01EB0C1102D8F0BC66
:104C8000BDE8008124425CBF01F5801E9EEAC47F1E
:104C900002D4F0BCBDE80081244238D4F0BCA1F1BC
:104CA000C041BDE8004100F03DBA4FEAD22242EADD
:104CB00043524FEAD323A7FB02864FEAD02040EAB3
:104CC000415007FB03661EEA0E0F4FEAD12105FB98
:104CD000026658BFA6EB0056B6EB00564FEA520EDE
:104CE0004EEAC37E18EB0E0E56EB530EBDD518EBF5
:104CF00002085E417F1C55F10005B6E74FF48015B0
:104D00004FF000074FF000064FF00008ADE7F0BC91
:104D10004FF0000001F1C04101F00041BDE8008109
:104D200011EA0C1F0CEA131500D00CE013EA0C1F5B
:104D300000F025804FF00000F0BC81EA030101F093
:104D40000041BDE80081F0BCBDE8004181EA0301FB
:104D500000F0E8B9F0BCBDE8004170B500F094F98E
:104D6000097EFC3E00F007B881EA03014FF0000025
:104D700001F00041704781EA030100F0D3B9F0BCB3
:104D8000BDE800414FF0000021497047FFFDFBF9ED
:104D9000F7F5F4F2F0EEEDEBE9E8E6E4E3E1E0DE6E
:104DA000DDDBDAD8D7D5D4D3D1D0CFCDCCCBCAC8E0
:104DB000C7C6C5C4C2C1C0BFBEBDBCBBBAB9B8B707
:104DC000B6B5B4B3B2B1B0AFAEADACABAAA9A8A8FA
:104DD000A7A6A5A4A3A3A2A1A09F9F9E9D9C9C9BC8
:104DE0009A99999897979695959493939291919073
:104DF0008F8F8E8E8D8C8C8B8B8A89898888878704
:104E00008685858484838382828181800000FF0778
:104E10000000F87F51EA030C17D41CF5801F58BF1F
:104E2000BCF5801F00F10680994218BF704708BF8B
:104E30009042704707D711F5801F58BF13F5801FA8
:104E400019D499427047894270471CF5801F08D5D4
:104E5000BCF5801FF7D58B4218BF704708BF824250
:104E600070474FF4001C1CEB410F38BF1CEB430F85
:104E700001D28B42704770B500F006F992244900C8
:104E80004FF000514FF08053FFF760BE10F000422A
:104E900048BF4042B0FA80F310FA03F10AD0C3F1E0
:104EA0001D0303F580634FEA415002EB035202EB0E
:104EB000D12170474FF000007047000051EA030C09
:104EC00017D41CF5801F58BFBCF5801F00F1068069
:104ED000994218BF704708BF9042704707D711F535
:104EE000801F58BF13F5801F19D49942704789421B
:104EF00070471CF5801F08D5BCF5801FF7D58B4285
:104F000018BF704708BF824270474FF4001C1CEB6B
:104F1000410F38BF1CEB430F01D28B42704770B575
:104F200000F0B2F8922449004FF000514FF0805346
:104F3000FFF70CBEDFF848C170B51CEA111E1EBF9A
:104F40001CEA13159EEA0C0F95EA0C0F00F06F8017
:104F500081EA030423EA4C134EEAD47E21EA4C1181
:104F600041F4801143F48013AE44A1FB024CA0FB3A
:104F70000365AEF17F7E361955EB0C05A1FB034CA2
:104F80004CF10003A0FB021C16EB0C06654153F12B
:104F90000003094218BF46F0010613F4007F0BD14D
:104FA0004FEA03314FEA0530340341EA155140EA34
:104FB00016506FF003020AE04FEAC3214FEAC52002
:104FC000F40241EA555140EA56506FF0020202EBFA
:104FD0002E4201EB025585EACE710AD05FEA440CFD
:104FE00018BF24F0004450F1000041F1000120EA14
:104FF000D47040F2FE7C624500D270BDA84214BF5E
:105000004FF080444FF04044002E08BF0024BEF112
:10501000806FA8BFA1F1C041BDE8704080F28280DE
:105020004FF0000001F1C04101F0004170479EEADD
:105030000C0F0CEA131518BF95EA0C0F06D04FF0B1
:10504000000081EA030E0EF0004170BD00F01CF874
:105050008900013E00F007B800F009B84FEA430CA0
:105060005FEA5C5C08D081EA030100F05BB84FEABC
:10507000410C5FEA5C5CF6D14FF0000001497047DB
:105080000000FF070000F87F0EF1020E2EF0030E65
:105090005EF8046B364205D4012A43EB030515F58F
:1050A000001F12D8012841EB010C1CF5001F0CD881
:1050B0000ED14FEAD17C15F5001F0CEB4C0C0CF116
:1050C000020C08BF4CEBD37C04E04FF0080C01E06D
:1050D0004FEAD37C0CEB4C0526FA05F606F00706E2
:1050E000B6F1040C06D20EEB860CBDE870404CF015
:1050F000010C6047DFE80CF0090B02024FF00041A1
:105100004FF00000A1F5002170BD1946104601289E
:1051100051EB010418BFD4F5001484BF002001F046
:10512000004170BD0808A0F500114FEA3101704739
:1051300053EA010C17D41CF5801F58BFBCF5801F23
:1051400000F106808B4218BF704708BF824270474B
:1051500007D713F5801F58BF11F5801F19D48B4254
:1051600070479B4270471CF5801F08D5BCF5801F17
:10517000F7D5994218BF704708BF904270474FF467
:10518000001C1CEB430F38BF1CEB410F01D29942AE
:1051900070470FB40CBC03BCFFF7C1BE10B591EA59
:1051A000030F48BF83F000433FF528AC841A71EB2E
:1051B000030C07D212198CF0004C43EB0C03001BBC
:1051C00061EB0C01DFF8A4E14FEA1154A4EB135C8E
:1051D0001EEA430F18BF9EEA445F00F0B08023EA46
:1051E0006E03524221EA0451C3EB6E0338BF5B1ECB
:1051F000DCF1200E25D322FA0CFE10EB0E0043FA50
:105200000CFE41EB0E01CCF1200E03FA0EFE10EB6A
:105210000E0051F10001CCF1200E29D412FA0EF249
:1052200001EB0451BDE8104058BF7047401C1CBF43
:10523000B2F1004F704700280CBF491C20F001005C
:10524000704712EB020E43EB030218BF4FF0010E42
:105250004EEA4202ACF1200CDCF11E0E54D943FAA6
:105260000CFE10EB0E0051F1FF31CCF11E0ED5D526
:105270000EF1010E12FA0EFE404141EB010101EB6D
:10528000445C5FEA5C5C10D910EBDE7001EB04510A
:1052900038BFBEF1004FBDE8104018BF704700286E
:1052A0000CBF491C20F00100704730D24FEAD42CCB
:1052B00011F5001124F400641BD0B1FA81F20B3A0D
:1052C000A41AA41ED2F12003914030FA03F319432B
:1052D000904001EBCC71002C01EB0451BDE8104073
:1052E000A8BF704701F1C0414FF0000001F000413C
:1052F0007047B0FA80F310FA03F100D110BDE41A40
:10530000173C4805C90AE4E701EB045110BD4910F8
:1053100001EB0451BDE810404FEA300002E04FF0CD
:10532000000170474A0008BF0042F8D0B2F5001FE4
:1053300028BF704701F000414FF0000070479EEA1F
:10534000445F07D011EA5E0FBDE8104004BF0021A2
:1053500000207047BDE8104070B5FFF795FE00BF14
:1053600040DFF63E83F00041104670470000E0FF4A
:1053700043004FEAD30C4FEA3C0C43401FBF4007A9
:105380000CF1605113F0FE4F70471CF0006F03D119
:1053900000200CF0004170470CF0004343EA5070CD
:1053A00010B540EACC0000F032FA00BF00000092D5
:1053B0004FEA0001FFF7B6BE4FF000414FF000008A
:1053C000A1F500217047000090EA010F48BF81F06D
:1053D000004100F1AA82421A3CBF801A89184FEAA4
:1053E000D0524FF07F4C1CEA410FA2EBD15318BFB3
:1053F0009CEA026F00F03B804FF0004C4CEA00202A
:105400004CEA012121FA03FC10EB0C0C1ED202F134
:10541000FF325FEA1C2040EBC25038BF70471CF0DF
:105420007F0F4FEA400C18BFBCF17F4F38BF704769
:10543000C3F12003994008BF20F00100BCF17F4F69
:1054400038BF7047A0F1C04000F027BA4FEA3C00D7
:10545000000A40EBC25028BF1CF0FF0F4FEA400C7F
:10546000E6D018BFBCF17F4F38BF7047EAE79CEA2F
:10547000026F05D010EA5C0F08BF00F000407047D3
:1054800010B500F0C4F900BF64FBBE3E014800F057
:10549000BDBA00BF0000C07F401058BFC0F14040FF
:1054A000491058BFC1F140418142EFF3008070477D
:1054B0004FF47F0C1CEAD0121EBF1CEAD11392EAF3
:1054C0000C0F93EA0C0F00F0858090EA010F48BFA3
:1054D00042F4807240F4000C41F400002CF07F4153
:1054E00020F07F4000B58142A2EB03020FF2081CBE
:1054F000ACEB504EC0F100009EF800E04FEA4E0EBB
:1055000000FB0EFC38BF49004FEA2C1C02F5FA02E2
:105510000CFB0EF34FEACE1E4FEA112C4FEAC121CD
:105520000EEB635E42EB22420EFB0CFC4FEA1C5377
:1055300000FB03114FEA112C4FEA01310EFB0CFC6A
:105540004FEADC4C00FB0C11C14228BF09184CEBA0
:1055500003335DF804EB10EB410143EBC250B2F5AD
:105560007C0F38BF704729D512F0F00F1CBF00F137
:10557000C04000F0004070470081828384858687A8
:1055800088898B8C8D8E8F919293959697999A9C02
:105590009D9FA0A2A3A5A7A8AAACAEB0B2B3B5B771
:1055A000B9BCBEC0C2C5C7C9CCCED1D4D7D9DCDF47
:1055B000E2E6E9ECF0F3F7FAFE0000004FEA400CF7
:1055C0000CF1807CBCF17E4F28BF7047B0F1C04029
:1055D00000F063B990EA010F0CEAD11348BF42F41E
:1055E0008072624538BF634507D213F47F0F16D02F
:1055F00080EA010000F00040704710B500F007F9A4
:10560000097EFC3E00F005B880EA010000F0004091
:10561000704780EA010000F0004000F03EB912F44B
:105620007F0F04BF0248704780EA010000F035B9DF
:105630000000C07FC10DD1F19E0206DB4FEA0023BE
:1056400043F0004323FA02F07047004207D54FEAC7
:105650004001B1F1FE4F02D24FF00000704710B58B
:1056600000F0D5F849922480002070476FEA2000AE
:105670007047000010F0004148BF4042B0FA80F38C
:1056800010FA03F2C3F19D030BD051EAC35101EBB1
:105690001220530638BF704700F1010008BF20F008
:1056A0000100704750EA010C00F113801CF5000F57
:1056B00058BFBCF5000F01D48842704707D710F5DA
:1056C000000F58BF11F5000F15D48842704789426A
:1056D00070471CF5000F04D5BCF5000FF7D58142CB
:1056E00070474FF0807C1CEB400F38BF1CEB410F24
:1056F00001D28142704710B500F089F89224490028
:105700004FF000504FF08051FFF7C6BE4FF47F0CB2
:105710001CEAD0121EBF1CEAD11392EA0C0F93EAC6
:105720000C0F00F0478090EA010F48BF42F48072EE
:105730004FF0004C4CEA00204CEA012102EB03023E
:10574000A0FB0113A2F50002002918BF43F00103DA
:105750005B0028BF4FEA330342EB22425FEA132C7F
:105760004CEBC2502EBFBCEB436FB2F57C0F7047C1
:105770004FEA036CBCF1004F08BF20F00100B2F506
:105780007C0F38BF70470BD582F0FF0212F5803FC7
:10579000C8BF704700F1C040D8BF00F0004070475C
:1057A00000F5000C5FEA4C0C48BF7047B0F1C040F8
:1057B00000F073B890EA010F0CEAD11348BF42F42D
:1057C0008072624538BF634504D280EA010000F070
:1057D0000040704710B500F01AF800BF8900013E84
:1057E00000F007B800F009B85FEA410C5FEA1C6CF2
:1057F00008D080EA010000F050B85FEA400C5FEA90
:105800001C6CF6D14FF00040A0F5800070470EF1FF
:10581000020E2EF0030E5EF8044B244204D44FEA2D
:105820004102B2F17F4F11D84FEA4003B3F17F4FED
:105830000CD80ED14FEAD07CB2F17F4F0CEB4C0C60
:105840000CF1020C08BF4CEBD17C04E04FF0080CCB
:1058500001E04FEAD17C0CEB4C0324FA03F404F092
:105860000704B4F1040C06D20EEB840CBDE8104022
:105870004CF0010C6047DFE80CF0070802024FF023
:105880000040A0F5800010BD0846420018BFD2F1CC
:10589000807288BF00F0004010BDFF2141EAD05067
:1058A000C005704751EA000C00F113801CF5000F91
:1058B00058BFBCF5000F01D48142704707D711F5DE
:1058C000000F58BF10F5000F15D481427047894270
:1058D00070471CF5000F04D5BCF5000FF7D58842C2
:1058E00070474FF0807C1CEB410F38BF1CEB400F22
:1058F00001D28842704780EA010081EA000180EA13
:105900000100FFF7F8BE80F0004090EA010F7FF53C
:1059100062AD81F0004100F008B8000090EA010F8C
:1059200048BF81F000413FF556AD421A04D882F0DD
:105930000042A0EB020011444FEAD0524FF07F4CDE
:105940001CEA410FA2EBD15318BF9CEA026F4AD068
:105950004FF0004C4CEA00204CEA012121FA03FCF4
:10596000B0EB0C0C0FD412F0FE0F36D05FEA4C00F7
:105970001DD5001240EBC25038BF70471CF03F0FDE
:1059800018BF70470BE0A2F101025FEA1C2040EB58
:10599000C25038BF70471CF07F0F18BF7047C3F16B
:1059A0002003994014BF401E20F00100704780087A
:1059B0004FEA122308BF7047B0FA80FCA2EB0C023A
:1059C000CCF1280C60FA0CF093EA122F04BF00EB24
:1059D000C25070474FEAC3707047130A5FEADC1089
:1059E00008BF7047F6E79CEA026F04D010EA5C0F2C
:1059F00008BF0020704710B5FFF709FF40DFF63EF3
:105A000081F0004070474FF0000070470CF00F032A
:105A1000092B08BF082000F085800A2B0BD0082B2B
:105A200018BF704708BF1CF0400F0AD04FF00000AD
:105A30004FF0000170471CF0400F18BF4FF00040BE
:105A400070471CF0100F08D020F0704300F07F4228
:105A500042EAD3014FEA4370704700F0604021F002
:105A60007F4242EA000201F07F4040EA72707047D4
:105A70004FF0FF0C4CF4E06C1CEA11531CBF9CEA85
:105A8000030C9445C2BFDA4201EB02517047002B70
:105A90000DD0BCF1000F0FD0002A01F00041A4BFCF
:105AA00041F0E04141F07F614FF00000704701F0AC
:105AB00000414FF00000704750EA01334FF09B0C5B
:105AC00018BF4CF0806C7FF439A870474FF0FF028C
:105AD00012EAD0521CBF92F0FF038B42C2BFD142E8
