:020000040800F2
:1000000000090020A10100082B3600083D2E000841
:1000100029360008B7110008A93C000800000000BC
:10002000000000000000000000000000A3360008EF
:10003000FB11000800000000A1360008A5360008EA
:10004000BB010008BB010008BB010008BB010008A0
:10005000BB010008BB010008BB010008BB01000890
:10006000BB010008BB010008BB010008BB01000880
:10007000BB010008B9110008BB010008C511000848
:10008000BB010008BB010008BB010008BB01000860
:10009000BB010008BB010008BB010008BB01000850
:1000A000BB010008BB010008BB010008BB01000840
:1000B000BB010008BB01000809370008BB010008AC
:1000C000BB010008BB010008BB010008BB01000820
:1000D000BB0100089D3C0008BB010008BB010008F3
:1000E000BB010008BB010008BB01000800F002F8DA
:1000F00000F047F80AA090E8000C82448344AAF17B
:100100000107DA4501D100F03CF8AFF2090EBAE878
:100110000F0013F0010F18BFFB1A43F0010318473B
:10012000784B0000984B0000103A24BF78C878C183
:10013000FAD8520724BF30C830C144BF04680C60ED
:10014000704700000023002400250026103A28BF35
:1001500078C1FBD8520728BF30C148BF0B60704739
:10016000662904F0D084002070471FB500F0E2FA41
:1001700004000020002103F0CDFFE0601FBD10B59A
:1001800010BD00F0DBFB1146FFF7EFFF03F01EFF91
:1001900000F0F9FB03B4FFF7F2FF03BC00F03CFCF6
:1001A0000948804709480047FEE7FEE7FEE7FEE70B
:1001B000FEE7FEE7FEE7FEE7FEE7FEE70448054947
:1001C000054A064B7047000007370008ED0000089D
:1001D0000003002000090020000500200005002089
:1001E0000FB41CB5074B06AA7B44694600900598DE
:1001F00000F087FA0020694600F096FA1CBC5DF812
:1002000014FB00003D0500002DE9F0410E460446B8
:10021000002020622046E168884730B3252805D0B9
:10022000D4E901219047206A401CF2E7E1682046AA
:1002300000278847050018D0A5F14100192802D8E9
:1002400020354FF400673246294620462760FFF7E5
:1002500087FF40B1012804D0F61D26F007060836B6
:10026000D8E7361DD6E72846DAE7206ABDE8F081F0
:100270004FF0000200B5134694469646203922BF3F
:10028000A0E80C50A0E80C50B1F12001BFF4F7AF8A
:10029000090728BFA0E80C5048BF0CC05DF804EB6C
:1002A000890028BF40F8042B08BF704748BF20F8DA
:1002B000022B11F0804F18BF00F8012B70477047D8
:1002C0007047704710B500F039FA006810BD10B5DE
:1002D000044600F033FA046010BD70472DE9FF4F6B
:1002E0000C461E464FF0FF378BB0D2E90001DDF817
:1002F00060800A908A46C1F30A5505B93D4600213F
:1003000008464FF00000BAF1000F00F4400005DA93
:1003100000EB80004FF4400101EA50004FEA905991
:10032000B9F1010F00DDB9460A9850EA4A000ED033
:1003300044F61050A5F2FF3545432F14B8F1000FD5
:100340001ED07542291E1EDDC9F100021CE0B8F165
:10035000010F4FF0000001D0302103E0F24305E02F
:100360002154401CB042FBDB3046002200212154C6
:100370000B99C1F80880C1E900200FB0BDE8F08FEB
:10038000BD1B6D1CDEE74A4600DA694206A800F094
:100390005FFA06AB93E8070003AB83E8070050461B
:1003A0000A9900F040FB8DE80700A0F500501F38C7
:1003B00000900398002D0ADD42F21F014A460844CE
:1003C000002303A90390684600F0A9FD09E0A0F509
:1003D00000504A461F38002303A90390684600F0E6
:1003E000B3FD8DE807000004000C03D04FF0FF3090
:1003F000410800E01046B8F1000F03D0002200923F
:1004000015461EE0751E05D400F09CF93032625589
:100410006D1EF9D5B3460122084302D000227F1C8D
:1004200004E02078302801D100227F1E002A09979D
:1004300084D01DE0112D07DA00F084F930326255C6
:100440006D1C50EA0102F5D1084302D00098C8B1F2
:100450000EE00021681E05E0235C625C63542254B8
:10046000401E491C8142F7DBAB46A81B401E099089
:10047000002004F80B000B98099AC0F80880C0E926
:10048000002B7AE711264FF0000857E72DE9F04FCF
:1004900088460446D21D22F0070191B0D1E900013F
:1004A000CDE90A0103F001FC02460B98C00F01D010
:1004B0002D2007E02068810701D52B2002E02021B4
:1004C00001EAC000032A099001D0072A05DB034690
:1004D0004146204600F07CF90BE12078800601D5EA
:1004E000E06900E00620B8F1650F814606D0B8F15A
:1004F000660F18D0B8F1670F70D131E00020B9F164
:10050000110F009001DB112301E009F101030AAA98
:1005100001A90CA8FFF7E2FEDDE90C70002609F145
:100520000105834647E001204B4600904FF000470D
:100530000AAA01A90CA8FFF7D1FEDDE90DB00C99BC
:100540005D46002610B909F101000D18B9EB050050
:1005500003D4C0F1FF3609F10105A5EB09002BE03A
:10056000B9F1010F01DA4FF001090020B9F1110FC3
:100570000090484601DD112300E003460AAA01A9C4
:100580000CA8FFF7ABFEDDE90C704D460026834654
:10059000207800070AD4AB4500DA5D4601A8012D9A
:1005A00004DD411911F8011C302907D04F4502DA4A
:1005B00017F1040F04DA012082460FE06D1EEEE70A
:1005C000002F02DCED1B3E4403E0781CA84200DD56
:1005D0007D1CB81B00F1010A4FF00047207800078E
:1005E00003D4AA4501DB4FF0FF3A0021B7F1004FD9
:1005F0000DF143088DF8431024D002202B23002F47
:1006000001DA7F422D230A21021EA0F1010000DC45
:100610005FB197FBF1FC97FBF1F201FB1C7C1746E5
:100620000CF1300C08F801CDEEE7A8F101000370E1
:100630002188090501D5452100E06521A0F10108C7
:1006400000F8011C09980FA9A1EB0807FF1D00B1D4
:100650000120411901EBEA70A1693844081A401ED3
:10066000A0612078C00602D42046AFF3008009982C
:1006700028B1D4E901219047206A401C20622078EB
:10068000C00622D52046AFF300801EE0002E04DB1A
:10069000B34502DD01A8805D00E03020D4E90121EE
:1006A0009047206A401C2062761CAAF101005FEA94
:1006B000000A0AD100F03EF8C0680168405CD4E945
:1006C00001219047206A401C2062281EA5F10105E7
:1006D000DCDC07E0D4E9012118F8010B9047206A1F
:1006E000401C2062381EA7F10107F3DC2046AFF35F
:1006F0000080032011B041E601694A1C02610878BC
:10070000704700B58FB0CDE9013100210591054951
:100710007944CDE9031011466846FFF775FD0FB027
:1007200000BD0000E5FFFFFF0A6802F8010B0A6048
:100730007047000000487047C00200200048704722
:10074000A002002030B5B0F10A024FEA900E71F11C
:1007500000034EEA817EB0EB0E0061EB91014FEA9F
:10076000101E4EEA017E10EB0E0041EB11114FEA14
:10077000102E4EEA016E10EB0E0041EB11214FEAF4
:10078000104E4EEA014E10EB0E0041EB11414018A5
:1007900041F100014FEAD00040EA41704FEAD10137
:1007A00010EB80054FEA810444EA907444EB0104A5
:1007B0006D1944EB0404521BA3414FF0000348BFE2
:1007C0000A3200D530BD401C41F1000130BD0000AF
:1007D0002DE9F0411F46044603260168072A01F46B
:1007E000006004DB08B116A505E016A503E008B11A
:1007F00015A500E015A521F010002060A069C01E1D
:10080000A0610FB1401EA0612046AFF300804FB140
:10081000D4E9012138469047206A401C2062C01C60
:10082000206206E0206AFAE7D4E9012115F8010BFD
:100830009047761EF8D22046AFF30080BDE8F081E5
:100840004E414E006E616E00494E4600696E660074
:100850002DE9F047814616468AB0354878440DC8E0
:100860008DE80D0032487844801C03AC0DC884E844
:100870000D0041F69B300844372190FBF1F290FBCC
:10088000F1F5A5F1800501FB12041B3C02D5644281
:10089000012000E00020DFF898A080460027FA44FD
:1008A000AAF1BE0A0EE0E0070AD03246684607EB1E
:1008B000470101230AEB810100F046FB8DE80700A8
:1008C00064107F1C002CEED1194F7F44AE3F19E01D
:1008D000E80715D007EB04100DF1180A90E80E0098
:1008E0008AE80E00C068F04201D19819089032469B
:1008F000012306A903A800F027FB03AB83E8070048
:100900006D10641C002DE3D14FF00103324669469F
:10091000B8F1000F03A802D000F001FB01E000F0E5
:1009200013FBC9E90001C9F808200AB0BDE8F08747
:100930002044000000487047A00200207546FFF7E1
:10094000F9FFAE4605006946534620F0070085468C
:1009500018B020B5FFF732FCBDE820404FF000068C
:100960004FF000074FF000084FF0000B21F0070197
:10097000AC46ACE8C009ACE8C009ACE8C009ACE8DA
:10098000C0098D46704710B50446AFF3008020467D
:10099000BDE81040FFF7FEBB4FF0013C50F8042BC0
:1009A00051F8043B9A4221D1A2EB0C03934313EA82
:1009B000CC1317D150F8042B51F8043B9A4215D1AF
:1009C000A2EB0C03934313EACC130BD150F8042B86
:1009D00051F8043B9A4209D1A2EB0C03934313EA6A
:1009E000CC13DBD04FF00000704700BFD01A01BA23
:1009F000B1FA81F101F0180122FA01F0CB40C1F106
:100A00002001DBB2C0B2C01A2CFA01F3D11A914313
:100A100011EAC311E6D1704701491820ABBEFEE7C9
:100A20002600020070475FEA400C08BF91F0000FFB
:100A30004FEA8C234FEAC12243EA51514FEA1C503E
:100A400018BF00F5F0404FEA300018BF41F00041F8
:100A50005FEA6C5C00F02980BCF1FF3F08BF40F00A
:100A600080407047130C06BF12044FF0100C4FF07B
:100A7000000C130E04BF12020CF1080C130F04BF7C
:100A800012010CF1040C930F04BF92000CF1020C44
:100A9000D30F04BF52000CF1010C11464FF00002BD
:100AA000A0F11F00A0EB0C00704711F0004F08BF31
:100AB000704731F000413FF4D5AF0B0C06BF09047D
:100AC0004FF0100C4FF0000C0B0E04BF09020CF19C
:100AD000080C0B0F04BF09010CF1040C8B0F04BFB1
:100AE00089000CF1020CCB0F04BF49000CF1010C82
:100AF000CCF12003A0EB0C0022FA03F302FA0CF273
:100B000041EA030100F10100704720F07F4C80EAC8
:100B1000030023F07F47ACEB070303F57C5300F0A1
:100B2000004003F1FF032DE980494FEA154B09B45A
:100B30004FEA144325EA0B4E24EA03480FF2042639
:100B400006EB132749083E785FEA320203FB06678B
:100B5000C7F5000707FB06F64FEA54374FEAD646BB
:100B600006F1020607FB066CCCF1005C4FEA1C475D
:100B70002CEA074C07FB06F40CFB06F504EB1546C4
:100B80004FEA961634BF00204FF000404FEAD137AD
:100B900006FB07FC4FEA1C4C0CFB0BF7D21B03FBBC
:100BA0000CF761EB07010CFB0EF7B0EB074072EBA3
:100BB00017420CFB08F734BFA2EB0742B2EB074227
:100BC00061EB17414FEA0C444FEA910706FB07FC23
:100BD0004FEA1C4C0CFB0BF7B0EBC74072EB5732E3
:100BE00003FB0CF734BFA2EBC742B2EBC74261EB89
:100BF00057310CFB0EF7B0EBC70072EB57720CFBD2
:100C000008F734BFA2EBC702B2EBC70261EB577122
:100C1000039F4FEA816141EA921104EBCC044FEA51
:100C2000D1374FEA826206FB07FC42EA90124FEA94
:100C300080604FEA1C4C0CFB0BF7D21B03FB0CF73C
:100C400061EB07010CFB0EF7B0EB074072EB1742AC
:100C50000CFB08F734BFA2EB0742B2EB074261EB93
:100C600017414FEA8C554FEA910704EB9C2406FB91
:100C700007FC4FEA1C4C0CFB0BF7B0EBC74072EBC8
:100C8000573203FB0CF734BFA2EBC742B2EBC742AB
:100C900061EB57310CFB0EF7B0EBC70072EB5772EC
:100CA0000CFB08F734BFA2EBC702B2EBC70261EB43
:100CB000577115EB4C254FEA816141EA92114FEAD9
:100CC00082624FEAD13742EA901206FB07FC44F1F8
:100CD00000044FEA80604FEA1C4C0CFB0BF7D21B60
:100CE00003FB0CF761EB07010CFB0EF7B0EB0740C1
:100CF00072EB17420CFB08F734BFA2EB0742B2EBD2
:100D0000074261EB174115EB1C154FEA813141EAAF
:100D100092414FEA823242EA90424FEA80304FEAF3
:100D20000C7644F1000448EA03434EEA0B484FF0C6
:100D3000000EB2EB080C71EB030724BF6246394684
:100D40004EEB0E0E4FF0000B0018524149414BEB99
:100D50000B0BB2EB080C71EB03077BF1000B24BF0C
:100D6000624639464EEB0E0E4FF0000B0018524112
:100D700049414BEB0B0BB2EB080C71EB03077BF11A
:100D8000000B24BF624639464EEB0E0E51EA0207B5
:100D900018BF46F0010616EB0E7655F1000254F12D
:100DA000000103D5BDE88901BDE80088BDE88901DF
:100DB000BDE80048B619524141EB0101A3F101031E
:100DC000704780807F7E7D7C7B7A797877767675B8
:100DD0007473727171706F6E6E6D6C6C6B6A6A6930
:100DE0006868676666656464636362616160605FCA
:100DF0005F5E5E5D5D5C5C5B5B5A5A595958585743
:100E000057565655555554545353525252515150AA
:100E100050504F4F4F4E4E4D4D4D4C4C4C4B4B4BFD
:100E20004A4A4A4949494848484747474746464643
:100E3000454545444444444343434342424242417E
:100E40004141002B9C4630D477002BD01CB54FEA93
:100E5000370703B44FF010004FF01001BAF1000F44
:100E600006D0BCF1000FDCBF40F0080040F00801E4
:100E70004FF000000FBCBDE810400BF1010BBBF1BF
:100E8000010F08BF5FEA170722BF12F1010211F13B
:100E900001014FF0004143F1000300F0004043EA3C
:100EA00000007047F9D35708D0E746EA064613F129
:100EB000400F4FEA16461FDD13F1200FDFBF164328
:100EC0000A46002120335B42BED0C3F1200746EA28
:100ED000064602FA07F74FEA164646EA0706C3F146
:100EE000200722FA03F201FA07F721FA03F14FF083
:100EF000000342EA0702A7E746EA020646EA064678
:100F00004FEA164646EA0106BCBF46EA0646360CDC
:100F10004FF000034FF000024FF0000194E72DE97D
:100F2000804C9A46934670B491E8380007C831EA7D
:100F3000400C48BF34EA430C03D5FFF7E6FDFFF74A
:100F400080FFF0BCBDE8008C2DE9804C9A469346AA
:100F500070B491E8380007C810F0804F08BF13F054
:100F6000804F03D100F005F8FFF76BFFF0BCBDE840
:100F7000008C20F07F4780EA030023F07F4C07EBD2
:100F80000C03A3F57C5300F00040A3F1FE0392F0A4
:100F9000000F00F0B38095F0000F00F077802DE98E
:100FA00001494FEA11404FEA144621EA004800FB8C
:100FB00006FC24EA064708FB06F607FB08F800FBD8
:100FC00007F718EB06484CEB164C4FEA124B18EBA0
:100FD00007484FEA15464CEB174022EA0B4E0BFB35
:100FE00006FC25EA06470EFB06F607FB0EFE0BFB8A
:100FF00007F71EEB064E4CEB164C4FF000061EEBAF
:10100000074E4CEB174B18EB0B0840F1000018EBA8
:101010000E0B58EB000840F100008F1A4FF0000152
:101020003CBFC943661B14BFB5EB040C00213CBF99
:10103000C943F61B4FEA17444EEA8E0E27EA0445D1
:101040004FEA1C4704FB07622CEA074C05FB07F735
:101050000CFB05F604FB0CFC16EB074642EB1742B3
:1010600016EB0C4642EB1C421BEB060658EB020249
:10107000414146EA9E0601D5BDE80189B6195241B3
:1010800041EB0101A3F10103BDE801894FEA1445D9
:101090004FEA114724EA054621EA074C05FB07F40D
:1010A00006FB07F70CFB06F105FB0CFC11EB0741F7
:1010B00044EB17444FEA124711EB0C4144EB1C443C
:1010C00022EA074C05FB07F206FB07F70CFB06F6C6
:1010D00005FB0CFC16EB074642EB174216EB0C46E1
:1010E00042EB1C456A1854F1000148BF7047B6191D
:1010F000524141EB0101A3F10103704795F0000F4C
:1011000037D04FEA11424FEA144721EA024624EA57
:10111000074C02FB07F106FB07F70CFB06F402FB8A
:101120000CFC14EB074441EB17414FEA154714EB55
:101130000C4441EB1C4125EA074C02FB07F506FB7A
:1011400007F70CFB06F602FB0CFC16EB074645EB1B
:10115000174516EB0C4645EB1C42121951F10001E4
:1011600048BF7047B619524141EB0101A3F1010399
:1011700070474FEA14454FEA114724EA054621EA31
:10118000074C05FB07F106FB07F70CFB06F24FF0D7
:10119000000605FB0CFC12EB074241EB174112EB7A
:1011A0000C4251EB1C4148BF7047921841EB0101C2
:1011B000A3F101037047FEE7014800F091B8000079
:1011C0005C020020014800F08BB8000018020020EB
:1011D00030B590F840500124AC40C56B6C60046899
:1011E00063604368102B036803D099600068C26095
:1011F00030BD9A600068C16030BD704772B6FEE7CE
:1012000010B590F821100022022905D00421816335
:1012100080F82020012010BD01680B6823F00E0328
:101220000B6001680B6823F001030B6090F84030FD
:10123000C46B012101FA03F3636080F8211080F888
:101240002020104610BD000010B590F82110002499
:10125000022903D00421816301243DE001680A686A
:1012600022F00E020A6001680A6822F001020A6098
:101270001A4A0168914201D1012121E0174A143232
:10128000914201D110211BE0144A2832914201D130
:10129000891515E0114A3C32914201D189140FE0C1
:1012A0000E4A5032914202D14FF4803108E00B4A8D
:1012B0006432914202D14FF4801101E04FF080710D
:1012C000064A083A5160012180F82110002180F877
:1012D0002010416B01B18847204610BD0800024034
:1012E0002DE9F05FC16B0C6801680B68D0F840C055
:1012F000042202FA0CF2494DDFF824A1494E4A4F6C
:10130000DFF828B1DFF828E122422CD05A072AD58D
:101310000A68920603D40A6822F004020A6001688F
:10132000A94201D1042219E0514501D1402215E022
:10133000B14202D14FF4806210E0B94202D14FF4C1
:1013400080420BE0594502D14FF4802206E07145FE
:1013500002D14FF4800201E04FF080622F4908393A
:101360004A60C16A3BE04FF0020808FA0CF818EA3C
:10137000040F4FF000094FF0010235D05FEA837887
:1013800032D50B689B0605D40B6823F00A030B606B
:1013900080F821200168A94201D1022219E05145BB
:1013A00001D1202215E0B14202D14FF4007210E0C9
:1013B000B94202D14FF400520BE0594502D14FF42B
:1013C000003206E0714502D14FF4001201E04FF007
:1013D0000072124908394A6080F82090816A002919
:1013E0001AD0BDE8F05F0847082505FA0CF525423C
:1013F00012D01B0710D50B6823F00E030B6090F87A
:101400004010C36B02FA01F15960826380F8212019
:1014100080F82090016BE2E7BDE8F09F08000240F1
:101420001C000240300002404400024058000240CC
:101430006C00024030B528B308C81349142219447F
:10144000B1FBF2F18900C163104981630221417748
:101450001A6843F6F0718A43D0E900142143D0E9B9
:1014600002452C4321430469214344692143846993
:101470002143114319600021416301224277017722
:10148000084630BD012030BDF8FFFDBF000002401E
:1014900070B5044690F82000002501280CD00120EA
:1014A00084F8200094F821600020012E06D084F8F2
:1014B00020000225284670BD022070BD022684F857
:1014C0002160A0632068066826F0010606602046B9
:1014D000FFF77EFEE06A00282068016802D041F034
:1014E0000E0106E021F0040101602068016841F06E
:1014F0000A0101602068016841F001010160D9E73B
:101500002DE9F84FDFF8B891002409F1040A0AF137
:10151000040B23460F270BF1040EC9E00125A5405B
:101520002A40AA427DD1674ED1F804C0ACEB060830
:10153000B44532D014DCBCF1030F3AD009DCBCF165
:10154000000F2AD0BCF1010F1CD0BCF1020F31D129
:101550001DE0BCF1110F17D0BCF1120F2AD119E018
:10156000B8F5881F19D006DCB8F5803F15D0B8F55E
:10157000801F1FD111E0B8F5001F0ED0B8F5041F71
:1015800018D10AE0CB6815E0CB681B1D12E0CB68D0
:1015900008330FE0CB680C330CE08B682BB1012BC8
:1015A0004FF0080303D0456104E0042302E0056125
:1015B00000E00023FF2A01D8064601E000F10406FE
:1015C0004FEA840501D9A5F12005D6F8008007FA75
:1015D00005FC28EA0C0803FA05F548EA0508C6F8F0
:1015E00000804D68ED0062D5374DAE6946F00106CA
:1015F000AE61AD6924F0030605F001050095334D99
:1016000006EB050CDCF80850A607360F07FA06F8BB
:1016100025EA0805DFF8B880404503D14FF00008FF
:1016200017E044E0DFF8AC80404502D14FF00108FC
:101630000FE0DFF8A480404502D14FF0020808E037
:10164000DFF89880404502D14FF0030801E04FF0E9
:10165000040808FA06F848EA0508CCF808804D683E
:10166000D9F80060ED034D4601D5164300E09643DE
:101670002E604D68DAF80060AD03554601D516437B
:1016800000E096432E604D68DBF80060ED025D4699
:1016900001D5164300E096432E604D68DEF80060E9
:1016A000AD02754601D5164300E096432E60641CDA
:1016B0000D682A46E5407FF431AFBDE8F88F0000A1
:1016C0000004014000001110001002400000014021
:1016D00000080140000C01400010014000140140CE
:1016E0000AB1016170470904FBE700000148806806
:1016F000704700008000002070B5040025D094F8E9
:101700003D00002520B984F83C50204600F078FACE
:10171000242084F83D002068016821F00101016067
:101720002068016841F4004101602068016821F4EB
:101730000041016000F0C0FB4D4A6168914201D850
:101740004C4900E04C49884201D2012070BD4B4910
:101750002368B0FBF1F15E6826F03F060E435E6041
:101760006368934206D94FF4967359434FF47A73E2
:10177000B1FBF3F12368491C1E6A26F03F06314392
:1017800019626168914210D84900401EB0FBF1F225
:10179000521CC2F30B02042A01D2042022E0B0FB47
:1017A000F1F0401CC0F30B001CE0A268F2B301EBA7
:1017B000C10303EB0116431EB3FBF6F35B1C43F4BA
:1017C00080431B0549D092B301EBC10202EB01112A
:1017D000401EB0FBF1F0401CC0F30B0040F4804011
:1017E00040F400402168CA694CF6FF739A431043E5
:1017F000C861D4E9071001432068026822F0C002E2
:1018000011430160D4E9030101432068826848F272
:10181000FF339A4311438160D4E9050108432168ED
:10182000CA6822F0FF021043C86001E00EE016E033
:101830002068016841F0010101602564202084F8DE
:101840003D00256384F83E50002070BD01EB410649
:10185000431EB3FBF6F35B1CB3E70120C2E701EBC9
:101860004101401EB0FBF1F0401CC0F30B00B7E794
:10187000A086010080841E0000093D0040420F0048
:101880002DE9FF4F83B00025DDE910799A46934694
:101890000446DDF848800095FFF728FF064694F8D7
:1018A0003D0020287CD1192301228549204600963D
:1018B00001F0D4FB0028F5D194F83C0001286FD04A
:1018C000012084F83C0020680168C90703D1016841
:1018D00041F0010101602068016821F400610160AC
:1018E000222084F83D00402084F83E002564676291
:1018F000A4F82A90608D20857248E062CDE90086C8
:1019000053465A462046049901F0B0FA00287DD18A
:10191000208DDFF8B491202768B1012814D0022867
:10192000206801681ED041F480610160206841692F
:1019300080690090B6E02068416981690091016882
:1019400041F400710160ADE02068016821F480611C
:10195000016072B62068416981690091016841F4B3
:1019600000710AE041F40061016072B620684169CB
:1019700081690091016821F48061016062B691E0A3
:10198000032868D801280CD0022843464FF00002F3
:101990004946204600960FD001F060FBB0BB10E036
:1019A0008BE032464146204601F0D7FB70BB2068F1
:1019B0000069616A08706CE001F050FB30BB72B6E0
:1019C00034E02068016821F48061016072B620680B
:1019D0000069616A0870606A401C6062208D401E68
:1019E0002085608D401E6085384846F2A811006849
:1019F000B0FBF1F0C0EBC00000EB80000090401E97
:101A0000009008D020684069C04300E029E040070A
:101A10000CD50098F3E744F8305F6773A57320692D
:101A200040F02000206162B625731AE0206801684A
:101A300041F40071016020680069616A0870606AA1
:101A4000401C6062218D491E2185618D491E618582
:101A500062B621681BE032464146204601F07DFB1C
:101A600018B1012007B0BDE8F08F20680069616AF5
:101A70000870606A401C6062218D491E2185618D5D
:101A8000491E618521684A69D24352070AD409690F
:101A90000170606A401C6062208D401E2085608D50
:101AA000401E6085208D00287FF46AAF84F83D7069
:101AB00084F83E5084F83C50D4E70220D2E700007E
:101AC000020010000000FFFF040001008C00002055
:101AD0002DE9FF4F83B09A46DDE9119793460446FE
:101AE000DDF84080FFF702FE054694F83D0020280F
:101AF0007FD11923012240492046009501F0AEFA1A
:101B0000002876D194F83C00012872D0012084F896
:101B10003C0020680168C90703D1016841F0010158
:101B200001602068016821F400610160212084F8CF
:101B30003D00402084F83E0000262664C4F824803E
:101B4000A4F82A90608D20852C48E062CDE90075CC
:101B500053465A462046049901F006FA70B930E01F
:101B60002A463946204601F02BFB58B1206C042848
:101B700004D12068016841F400710160012007B0C0
:101B8000BDE8F08F606A216800780861606A401CD7
:101B90006062218D491E89B22185628D521E628547
:101BA00022685369DB435B070BD469B1007810618D
:101BB000606A401C6062208D401E2085608D401E42
:101BC0006085208D0028CBD12A463946204601F079
:101BD0001FFA0028CAD154F83D0B016841F4007186
:101BE0000160202004F81E09E67766770020C6E72A
:101BF000FFE70220C3E70000020010000000FFFF23
:101C000010B586B000210091019102910391006806
:101C10000F4988421AD10F4CA06940F00800A0611A
:101C2000A069694600F008000490C02000901220CE
:101C30000190032003900848FFF762FCE06940F43C
:101C40000010E061E06900F40010049006B010BDDF
:101C50000054004000100240000C0140024881681E
:101C6000027811448160704780000020074810B559
:101C7000016841F010010160032000F075F80F20A9
:101C800000F006F800F024F8002010BD002002400B
:101C900070B50D4D04464FF47A712878B1FBF0F021
:101CA0000A490968B1FBF0F000F0ECFA48B9102CD1
:101CB00007D200222146501E00F036F800206C604A
:101CC00070BD012070BD0000800000208C0000204D
:101CD0000C4808B5816941F001018161816901F019
:101CE00001010091C16941F08051C161C06900F0FA
:101CF000805000900448416821F0E06141F000719B
:101D0000416008BD0010024000000140002809DBCE
:101D100000F01F02012191404009800000F1E02005
:101D2000C0F8001170470000F0B40E4B1B680C4661
:101D3000C3F30223C3F10705042D00D90425191D9F
:101D4000072901D2002300E0DB1E012606FA05F177
:101D5000491E214099409E40761E16403143F0BCFA
:101D600001F0CABF0CED00E0064900F00702086868
:101D70004FF6FF03184040EA0220034A1043086070
:101D8000704700000CED00E00000FA052DE9F04777
:101D90000F46050061D0434E306800F00700B8429E
:101DA00009D2306820F0070038433060306800F016
:101DB0000700B84251D128683B4C810712D5400733
:101DC00003D5606840F4E06060602878000703D5C0
:101DD000606840F4605060606068A96820F0F000BE
:101DE000084360602878C00728D06868012810D0B0
:101DF0002168022810D0890700292EDA616821F0B5
:101E0000030101436160FFF771FC804641F28839AC
:101E10000DE021688903EFE78901EDE7FFF766FC34
:101E2000A0EB0801494502D90320BDE8F0876068AE
:101E3000696800F00C00B0EB810FEFD1306800F062
:101E40000700B8420BD9306820F0070038433060F3
:101E5000306800F00700B84201D00120E5E728789B
:101E6000400705D56068E96820F4E06008436060D9
:101E70002878000706D56068296920F4605040EA98
:101E8000C100606000F038F86168084AC1F30311CE
:101E9000515CC8400649086006480068FFF7F8FE34
:101EA0000020C2E70020024000100240EA4B000878
:101EB0008C0000208400002004480549006849681F
:101EC000044AC1F30221515CC84070478C000020D5
:101ED00000100240FA4B00080448054900684968B0
:101EE000044AC1F3C221515CC84070478C000020F5
:101EF00000100240FA4B000812A185B00FC98DE80E
:101F00000F0014A0144A006804905168134801F0AF
:101F10000C03042B10D0082B0ED1C1F38343C9034B
:101F20001DF803000AD5516804AAC1F34041515C71
:101F30000A4A5043B0FBF1F005B0704708494843E6
:101F4000FAE7000002030405060708090A0B0C0D56
:101F50000E0F1010010200000010024000127A0063
:101F600000093D002DE9F84F040070D02078C04DE5
:101F7000C00749D06868C0F38100012807D06868AD
:101F8000C0F38100022809D16868C00306D528681B
:101F9000800339D560680028E7D035E06068B0F587
:101FA000803F0BD010B1B0F5A02F11D0286820F4DD
:101FB00080302860286820F4802002E0286840F4FF
:101FC00080302860606890B1FFF790FB06460AE019
:101FD000286840F480202860F0E700BFFFF786FB08
:101FE000801B642873D828688003F7D50CE0FFF7BE
:101FF0007DFB064605E000BFFFF778FB801B6428E9
:10200000F0D828688003F7D420789A4E80074FF0E4
:1020100001094FF0000839D5686810F00C0F07D09F
:102020006868C0F38100022809D16868C00306D43B
:102030002868800714D52069012808D110E020699C
:10204000B0B1C6F80090FFF751FB074605E00AE182
:10205000FFF74CFBC01B0228C4D828688007F7D5BF
:102060002868616920F0F80040EAC10028600DE0AE
:10207000C6F80080FFF73AFB074604E0FFF736FB9F
:10208000C01B022823D828688007F7D420780007CF
:102090002CD57948A169D9B1C0F80090FFF726FB8B
:1020A000074604E0FFF722FBC01B02280FD8686A2E
:1020B0008007F7D571484FF4FA510068B0FBF1F092
:1020C000009000BF0098411E0091FAD20EE080E01F
:1020D000C0F80080FFF70AFB074604E0FFF706FBA5
:1020E000C01B022875D8686A8007F7D4207840079B
:1020F00060D5E8690027C00008D4E86940F0805046
:10210000E861E869012700F0805000905C480168B0
:10211000C90513D40168834641F480710160FFF75B
:10212000E5FA824606E000BFFFF7E0FAA0EB0A00FE
:1021300064284ED8DBF80000C005F5D5E06801281A
:102140000AD008B1052813D0286A20F001002862BF
:10215000286A20F0040002E0286A40F001002862AA
:10216000E06841F2883B98B1FFF7C0FA82460BE085
:10217000286A40F004002862EEE700BFFFF7B6FAD5
:10218000A0EB0A0159455AD8286A8007F6D50CE019
:10219000FFF7ACFA824605E0FFF7A8FAA0EB0A01C8
:1021A00059454CD8286A8007F6D41FB1E86920F059
:1021B0008050E861E06988B36968C1F38101022950
:1021C00044D00228C6F8608004D0FFF78FFA044696
:1021D00038E034E0FFF78AFA074604E0FFF786FAB2
:1021E000C01B02282BD828688001F7D4206AB0F5DC
:1021F000803F05D16868A16820F40030084368601A
:10220000D4E908010843696821F47411084368603F
:10221000C6F86090FFF76AFA044606E025E000BFC2
:10222000FFF764FA001B022809D828688001F7D557
:102230001BE000BFFFF75AFA001B022802D9032057
:10224000BDE8F88F28688001F4D40EE00128F7D0AB
:102250006868226A00F48031914204D1616A00F416
:102260007010884201D00120EAE70020E8E7000072
:102270000010024000004242800442428C000020D4
:102280000070004010B5401EB0F1807F01D30120E6
:1022900010BD4FF0E02460610F21601701F02CFDAC
:1022A0000020A06107202061002010BD704770470A
:1022B00070B590F83C20012A26D0012480F83C40DB
:1022C000022280F83D2003685A689D6822F070065B
:1022D0000A6832435A600D4B02689A4208D0B2F144
:1022E000804F05D00A4B9A4202D00A4B9A4204D141
:1022F000496825F080031943916080F83D40002132
:1023000080F83C10084670BD022070BD002C0140D2
:10231000000400400008004010B5040003D094F809
:102320003D0010B107E0012010BD002084F83C0002
:10233000204600F01FF8022084F83D00211D20688F
:1023400001F0E8F9012084F8460084F83E0084F8A2
:102350003F0084F8400084F8410084F8420084F88B
:10236000430084F8440084F8450084F83D000020D0
:1023700010BD000008B501681048B1F1804F14D0BD
:102380000F4A914219D1C16941F00401C161C0698C
:10239000002200F00400009011461E20FFF7C4FC4C
:1023A000BDE808401E20FFF7B1BCC16941F0010142
:1023B000C161C06900F00100009008BD001002403A
:1023C0000008004090F83D10012901D0012070471D
:1023D000022180F83D100168CA6842F00102CA601B
:1023E00000680B49884208D0B0F1804F05D00949F8
:1023F000884202D00849884204D1816801F007016F
:10240000062903D0016841F00101016000207047F6
:10241000002C0140000400400008004070B5044654
:1024200090F83C00012817D0012584F83C50022088
:1024300084F83D002068826822F0770222F47F420F
:1024400082600868502830D00DDC20284DD005DC93
:1024500098B310283BD148E0022070BD302844D00A
:10246000402834D139E0602828D0702806D0B0F553
:10247000805F2CD0B0F5005F29D10AE0CB68D1E9AC
:102480000121206801F089F92068816841F0770115
:1024900009E0CB68D1E90121206801F07EF92068CC
:1024A000816841F48041816011E0CA684968206810
:1024B00001F028FA5021206807E016E0CA68496850
:1024C000206801F030FA6021206801F070F984F88A
:1024D0003D50002084F83C0070BDCA6849682068FF
:1024E00001F010FA40212068EFE72268014610460B
:1024F000EBE7704770B50446006801694FF00005CE
:10250000C943890715D4C168C943890711D4E91E95
:10251000016101202077206880698007204602D071
:10252000FFF7E7FF04E000F0BDF8204600F04CF9AB
:10253000257720680169C943490717D4C168C94391
:10254000490713D46FF0040101610220207720684D
:10255000806910F4407F204602D0FFF7CAFF04E0F4
:1025600000F0A0F8204600F02FF9257720680169D7
:10257000C943090716D4C168C943090712D46FF0CB
:1025800008010161042020772068C0698007204687
:1025900002D0FFF7AEFF04E000F084F8204600F020
:1025A00013F9257720680169C943C90617D4C168A2
:1025B000C943C90613D46FF01001016108202077C8
:1025C0002068C06910F4407F204602D0FFF791FFD9
:1025D00004E000F067F8204600F0F6F82577206860
:1025E0000169C943C90708D1C168C943C90704D1F2
:1025F000891E0161204600F037F920680169C9434E
:10260000090609D4C168C943090605D46FF08001E1
:1026100001612046FFF74AFE20680169C943490667
:1026200009D4C168C943490605D46FF0400101616E
:10263000204600F0B9F920680169C94389060BD426
:10264000C168C943890607D46FF0200101612046A3
:10265000BDE87040FFF72BBE70BD000000B585B02F
:10266000002100910191029103910068B0F1804F27
:1026700011D10A48816941F004018161806969468C
:1026800000F00400049003200090022001900390C9
:102690000348FEF735FF05B000BD00000010024002
:1026A00000080140704770B5044690F83C000D46A4
:1026B00001280AD0012084F83C0042B1042A18D035
:1026C000082A2AD00C2A4DD139E0022070BD20689A
:1026D00001F076F82068816941F008018161206885
:1026E000816921F004018161206881692A691143AF
:1026F00011E0206801F08CF82068816941F40061E4
:1027000081612068816921F480618161206881692B
:102710002A6941EA0221816124E0206801F0A4F8DD
:102720002068C16941F00801C1612068C16921F0D8
:102730000401C1612068C1692A69114311E0206860
:1027400001F0BEF82068C16941F40061C1612068F0
:10275000C16921F48061C1612068C1692A6941EAC7
:102760000221C161002084F83C0070BD10B5040056
:1027700003D094F83D0010B107E0012010BD002007
:1027800084F83C00204600F01EF8022084F83D004A
:10279000211D206800F0BEFF012084F8460084F867
:1027A0003E0084F83F0084F8400084F8410084F83B
:1027B000420084F8430084F8440084F8450084F81B
:1027C0003D00002010BD70477047000010B5044662
:1027D000022249B104290ED0082913D094F84100EF
:1027E000012816D0012010BD94F83E000128F9D12F
:1027F00084F83E200FE094F83F000128F2D184F8DD
:102800003F2008E094F840000128EBD184F84020F4
:1028100001E084F841200122206800F0B1FF0F4957
:102820002068884203D1426C42F40042426420682E
:10283000884208D0B0F1804F05D00949884202D0C3
:102840000849884204D1816801F00701062903D0B4
:10285000016841F001010160002010BD002C014021
:10286000000400400008004070B5006845498842F7
:102870007ED101224449454800F06EFA424C444A58
:1028800000202178434D552909D044290AD0424BD4
:1028900052290BD04C290DD04F290FD011E0C4E99B
:1028A00013200DE03D49C4E9131009E06365C4E954
:1028B000132006E0E264C4E9143002E0C4E91350D6
:1028C0006065207000F072FD00F0AAFD2069A1692A
:1028D00080F0004001F028FA216C0E4601F052FE13
:1028E000294601F0C5FF314601F0B4FEE0632C4AF1
:1028F000216A00F08BFC606600F098FE234DA06E0C
:10290000284ED43D10F1FF4F13D380F00040A06655
:10291000012210213046FEF7E3FE0022202130463E
:10292000FEF7DEFE012240213046FEF7D9FE0022EE
:102930000FE0002210213046FEF7D2FE01222021B6
:102940003046FEF7CDFE002240213046FEF7C8FE9D
:10295000012280213046FEF7C3FEA06E216D06469F
:1029600001F010FE01F038FF29684863304600E0AE
:1029700006E0616D01F006FE01F02EFF2968886314
:1029800070BD00000008004000000020D4010020BD
:1029900000003743000034430000FA430000314395
:1029A0006F12833A0008014070477047704700007B
:1029B000F8B5026804461068D168536910F00F0F2B
:1029C0004FF0000553D003F0010601F49077374330
:1029D0005FD0C20705D0CA0503D5226C42F00102C0
:1029E0002264420705D5DA0703D0226C42F00202C6
:1029F0002264820705D5DA0703D0226C42F0040274
:102A00002264020707D501F02002324303D0226C72
:102A100042F008022264226C002A34D0800604D5D9
:102A2000880602D5204601F018F820684069216C1C
:102A3000C0F38010090700D430B3204600F0ECFF4B
:102A40002068416949061BD5416921F04001416177
:102A5000A06BA8B158494163A06BFEF7F5FB0028B5
:102A600011D0A06B416B01B0BDE8F0400847830670
:102A70000FD58B060DD52046BDE8F84000F0EDBF20
:102A80002046FFF793FFF8BD2046FFF78FFF256430
:102A9000F8BD266B2023012E52D1C60650D5CE0696
:102AA0004ED5106850680090506940062AD5A16B39
:102AB000086840680004000CEAD0A68D8642E7D979
:102AC000E0858869202818D0D06820F48070D06014
:102AD0002068416921F0010141612068416921F0CC
:102AE0004001416184F83E3025632068C16821F0CF
:102AF0001001C160A06BFEF783FBA08DE18D401A31
:102B000081B219E0A08DE18D401A81B2E08D0028DC
:102B1000BED00029BCD0D06820F49070D06020686E
:102B2000426922F00102426184F83E302563206848
:102B3000C26822F01002C2602046FFF736FFF8BDDF
:102B400005062BD50D0629D594F83D002128F6D190
:102B5000A068B0F5805F01D12069B0B1206A411C46
:102B60002162216800784860E08C401E0004000C5F
:102B7000E084E4D12068C16821F08001C160206850
:102B8000C16841F04001C160F8BD206A0088C0F30F
:102B900008005060206A801C2062E5E74006F3D5FB
:102BA0004806F1D5D168204621F04001D16084F873
:102BB0003D3000F042F9F8BD4B39000870B5040013
:102BC00004D094F83D00002510B106E0012070BD4E
:102BD00084F83C50204600F023F8242084F83D007F
:102BE0002068C16821F40051C160204600F090FFC8
:102BF0002068016921F4904101612068416921F058
:102C00002A0141612068C16841F40051C160256416
:102C1000202084F83D0084F83E00002070BD0000B4
:102C20002DE9F04385B000240094019402940394AC
:102C3000064603684148DFF800C10221032205155A
:102C400080274FF0200863453DD1836943F48043DA
:102C50008361836903F480430493836943F004032D
:102C600083618069DFF8D89000F0040004900802C6
:102C7000CDE90001039269464846FEF741FCCDE9E3
:102C80000054694648460294FEF73AFC2E4D2D4802
:102C9000C5E90004C5E902472C61C5E90548284695
:102CA000EC61FEF7C7FB08B1FEF7A8FAB563002296
:102CB000114625206E62FFF737F82520FFF726F82A
:102CC00005B0BDE8F083DFF884C06345F8D1C3697F
:102CD00043F48023C361C36903F4802304938369AD
:102CE00043F0080383618069CDE9005100F00800DA
:102CF000CDE90320164D69462846FEF701FCE8148D
:102D0000CDE90004694628460294FEF7F9FB0D4818
:102D1000104D2838C5E90004C5E902472C61C5E912
:102D200005482846EC61FEF785FB08B1FEF766FA18
:102D3000B5636E62C4E70000003801400010024035
:102D400000080140580002401802002000480040DE
:102D5000000C01405C02002090F83E30202B0ED188
:102D600059B152B190F83C30012B08D0012380F8C2
:102D70003C300023036300F027BF0120704702208E
:102D800070477047704700002DE9F843044690F8FB
:102D90003D001F4616460D4620284CD1C5B1BEB198
:102DA00094F83C00012846D0012084F83C004FF004
:102DB0000008C4F84080212084F83D00FEF796FC0E
:102DC000A6848146E684A068B0F5805F03D004E065
:102DD0000120BDE8F883206928B12E465FF0000588
:102DE00084F83C800EE00026FAE78021204600F0BF
:102DF00023FFA0B9AEB116F8010B21684860E08C42
:102E0000401EE084E08C4B464FF000020097002803
:102E1000EBD14FF04001204600F00EFF30B103200F
:102E2000D7E735F8020BC0F30800E6E7202084F866
:102E30003D000020CDE70220CBE77047FEE70168A8
:102E40004A69D24352050FD46FF480624A6100216F
:102E500040F8301F202242738173026942F004025D
:102E60000261017301207047002070472DE9F84F7F
:102E70000446006889460B9D01689846174641F450
:102E8000806101602068016841F4807101600095F3
:102E90004FF0011B0022594620460A9B00F0DEF845
:102EA0004FF4007A40B120680068C00501D5C4F82D
:102EB00040A00320BDE8F88F216809F0FE000861FA
:102EC0002B46284920460A9A00F0FCF8F0BB2068FF
:102ED0004169806900902A4620460A9900F070F9FD
:102EE00040B1206C04283AD12068016841F4007197
:102EF000016034E0FEB2B8F1010F09D02168380A50
:102F000008612A4620460A9900F05AF90028E8D1BB
:102F1000206806612A4620460A9900F051F90028E7
:102F2000DFD12068016841F48071016000950022C2
:102F3000594620460A9B00F091F80028B3D1216839
:102F400009F0FF0040F00100086100E007E02B46B7
:102F5000044920460A9A00F0B5F80028AAD00120BA
:102F6000A8E70000020001002DE9F84304460068CC
:102F70000D46DDE9089701689846164641F48071D0
:102F800001604B4600224FF001112046009700F0EF
:102F900065F848B120680068C00502D54FF400709C
:102FA00020640320BDE8F883216805F0FE00086175
:102FB0003B464A461549204600F084F888B9206807
:102FC0004169806900903A464946204600F0F8F889
:102FD00048B1206C042804D12068016841F40071D4
:102FE00001600120DEE7F5B2B8F1010F09D02168D8
:102FF000300A08613A464946204600F0E1F80028C8
:10300000E7D1206805610020CCE700000200010044
:1030100070B516460D4604460DE02046FFF70FFF3B
:1030200008B1012070BD681C05D0FEF75FFB801B56
:10303000A84207D835B120684069C0434007ECD4A6
:10304000002070BD002044F8300F20216173A07370
:10305000216941F0200121612073E2E72DE9F04769
:103060001E4690460D460446C1F30747DDF8209002
:1030700008E0701C06D0FEF739FBA0EB0900B04257
:103080000FD876B12068012F18D0806925EA00009A
:103090000004000C14D000214145EAD00020BDE816
:1030A000F087002044F8300F20216173A07321695C
:1030B00041F02001216120730120F0E74069E5E73C
:1030C0000121E9E72DE9F0479A4691460E4604466C
:1030D00000254FF02008C1F3074725E0206840692C
:1030E000C043400514D42068016841F400710160B8
:1030F00021686FF480604861256384F83D8084F81E
:103100003E50206C40F00400206484F83C501FE0E6
:10311000B9F1FF3F08D0FEF7E9FAA0EB0A014945F3
:103120000CD8B9F1000F09D02068012F13D08069A5
:1031300026EA00000004000C0BD0CFE744F8305F13
:1031400084F80D80A573206940F02000206125736C
:103150000120BDE8F0874069EAE72DE9F04100254C
:1031600090460E460446202717E04069C043C0063B
:103170000CD454F8301B6FF01000486144F810591B
:103180006777A577206A2062257717E0FEF7AEFA09
:10319000A0EB0800B04208D83EB120684169C9439D
:1031A0004906E2D40020BDE8F08144F8305F67733F
:1031B000A573206940F02000206125730120F2E70B
:1031C00070B516460D4604460DE02046FFF737FE63
:1031D00008B1012070BD681C05D0FEF787FA801B7E
:1031E000A84207D835B120684069C0430006ECD436
:1031F000002070BD002044F8300F20216173A073BF
:10320000216941F0200121612073E2E72DE9F74FA8
:10321000414F84B00846B96A019101F0FFFB0146B5
:10322000069801F025FBF96A01F0ACF93B4C8346A6
:103230000698D4F80CA0514601F01AFB009066687D
:10324000314601F0EBFBA568294601F0E7FB396B3D
:1032500001F098F9069901F00BFB216801F092F951
:1032600081463146009801F0CFFB80462946009800
:1032700001F0CAFB02900699786B01F0F9FA514609
:1032800001F080F982464846B96B01F07BF90646A9
:103290000146484601F0DEF905463146029801F044
:1032A000D9F906465946049801F0B8FB0090284623
:1032B000009901F0DDFA594601F064F9F86283469D
:1032C0003046009901F0D4FA019901F05BF9B86237
:1032D0002846494601F0CCFA494601F095FB2060AA
:1032E0002846414601F0C4FA414601F08DFB60607A
:1032F0003046494601F0BCFA029901F085FBA06016
:103300003046414601F0B4FA514601F07DFBE060E1
:1033100007B05846BDE8F08F000000209000002064
:10332000F0B585B0012504A8CDE9000564242B463D
:103330007522D02102941C48FEF7A2FA9DF81000D5
:1033400068282ED1002703AE8DF80C700096CDE9C9
:10335000015401236B22D0211348FEF7B9FB07204B
:103360008DF80C000096CDE9015401231922D021DB
:103370000D48FEF7ADFB8DF80C700096CDE90154B9
:1033800001231C22D0210848FEF7A2FB8DF80C7007
:103390000096CDE9015401231B22D0210248FEF7FB
:1033A00097FB05B0F0BD0000AC000020F0B585B083
:1033B0006422062103A88DE8070001233B22D021C7
:1033C0001548FEF75DFABDF80C00144C40BA00B287
:1033D0006080BDF80E1049BA0EB2A680BDF810107C
:1033E00049BA0DB2E58001F017FA6FF00D073946C2
:1033F00001F0BDFB2061304601F00EFA394601F0C4
:10340000B6FB6061284601F007FA394601F0AFFBD0
:10341000A06105B0F0BD0000AC000020000000205D
:10342000F0B585B06422062103A88DE807000123CA
:103430004322D0211948FEF723FABDF80C00184C9E
:1034400040BA00B22081BDF80E1049BA0EB26681B2
:10345000BDF8101049BA0DB2A58100F0FBFF114F65
:1034600000223B4600F09EFE00F06AFEE06130461E
:1034700000F0F0FF00223B4600F094FE00F060FEFA
:103480002062284600F0E6FF00223B4600F08AFE5C
:1034900000F056FE606205B0F0BD0000AC000020F8
:1034A000000000200060604030B585B0002418485E
:1034B0000094019402940394816941F02001816198
:1034C000816901F020010491816941F00401816169
:1034D000816901F004010491816941F00801816171
:1034E00080690C4D00F0080004900022F02128466D
:1034F000FEF7F6F8F02000900120CDE9010402204B
:10350000039069462846FDF7FBFF05B030BD00007B
:10351000001002400008014010B58EB0002407944E
:10352000089409940A940B941C2168460C94FCF7A7
:103530009FFE22484FF0804101604721C0E90114FD
:1035400040F2E731C0E903148461FEF7E5FE08B1FB
:1035500072B6FEE74FF48050079007A91748FEF7B0
:103560005DFF08B172B6FEE71448FFF7FFF808B137
:1035700072B6FEE70B940BA910480C94FEF798FE68
:1035800008B172B6FEE76020CDE900040294002283
:1035900069460A480494FFF786F808B172B6FEE758
:1035A000042269460548FFF77EF808B172B6FEE7C7
:1035B0000248FFF753F80EB010BD000000010020D4
:1035C00010B586B000241748009401940294039427
:1035D000049413490594016040F60F61C0E9011499
:1035E0000921C0E903148461FEF796FE08B172B6A2
:1035F000FEE74FF48050009069460A48FEF70EFF40
:1036000008B172B6FEE7049404A906480594FEF7D3
:103610004FFE002801D072B6FEE706B010BD0000D4
:103620000008004048010020FEE7FEE72DE9F041D8
:10363000184C616EE06C01F0F1F90546E06729462F
:10364000A06D01F015F9E066A16F80460E46284690
:1036500000F098FFE16D01F00BF907462067314655
:10366000284601F0DBF9216E01F002F9C4E91D05DD
:1036700006463946404600F085FF314600F082FF9D
:103680000549A066884202DC0449884200D9A16647
:10369000BDE8F0810000002000C0794400C079C47A
:1036A00070477047FEF7DABA30B58FB02821684608
:1036B000FCF7DEFD14210AA8FCF7DAFD012108045D
:1036C000CDE900100024029402250491CDE90750B1
:1036D0004FF4E01009906846FEF744FC08B172B65A
:1036E000FEE70F20CDE90A054FF48060CDE90C40DC
:1036F00002210AA80E94FEF749FB002801D072B6F9
:10370000FEE70FB030BD70470148FEF7F3BE000082
:1037100048010020F0B50268164B174C174D4FF0CA
:103720008047984205D0B84203D0A04201D0A842B9
:1037300003D122F070064A683243984205D0B8425D
:1037400003D0A04201D0A84203D122F44074CA6839
:1037500022434C6922F08002224302608A68C262DE
:103760000A688262984201D10969016301214161BD
:10377000F0BD0000002C01400004004000080040A3
:1037800010B501F01F030121046A99408C430462C3
:10379000016A9A401143016210BD10B5846842EA83
:1037A000032224F47F440A432243826010BD8268CE
:1037B00022F070020A4342F0070181607047000066
:1037C00030B5026A22F001020262026A436884692B
:1037D00024F073050C682C4322F002058A682A4302
:1037E0000A4DA8420BD122F00805CA6823F44073A1
:1037F0002A434D6922F004021D438B692B43436029
:10380000846149684163026230BD0000002C0140C0
:1038100030B5026A22F010020262026A43688469CB
:103820000D6824F4E64444EA05248D6822F0200261
:1038300042EA05120B4DA8420ED1CD6822F080025B
:1038400042EA05124D6923F4406343EA85038D691A
:1038500022F0400243EA8503436084614968816342
:10386000026230BD002C014030B5026A22F4807241
:103870000262036A4268C46923F4007324F073058A
:103880000C682C438D6843EA05230C4DA8420ED1E9
:10389000CD6823F4006343EA05234D6922F44052C6
:1038A00042EA05128D6923F4806342EA0512426000
:1038B000C4614968C163036230BD0000002C01404F
:1038C00030B5026A22F480520262046A4268C36917
:1038D0000D6823F4E64343EA05238D6824F400547D
:1038E00044EA0534064DA84204D14D6922F48042D1
:1038F00042EA85124260C36149680164046230BDD6
:10390000002C014010B5036A046A24F0010404622B
:10391000846924F0F00444EA021423F00A020A4302
:103920008461026210BD10B5036A23F010030362C4
:103930008369046A23F4704343EA023224F0A0034B
:1039400043EA01118261016210BD10B5406A002195
:10395000C185C184FFF72AF810BD70B5446A20689C
:10396000406994F83D10C0F3C0100025212904D10E
:1039700018B1E584204600F067F82068406994F8A3
:103980003E10C0F38010222904D118B1E5852046ED
:1039900000F042F8206C40F0100020642046FFF751
:1039A00005F870BD10B50146406A096809688906C6
:1039B0001BD40021C1850168CA6822F48072CA60E4
:1039C00001684A6922F001024A6101684A6922F0ED
:1039D00040024A61202180F83E10016B012904D188
:1039E0000168CA6822F01002CA60016B012902D086
:1039F000FFF7C7F910BD818DFEF7D7FF10BD10B5D9
:103A0000406A016B012902D0FFF7BCF910BD818D1E
:103A10004908FEF7CAFF10BD0168CA6822F4907217
:103A2000CA6001684A6922F001024A61016B0129FA
:103A300004D10168CA6822F01002CA60202180F80F
:103A40003E100021016370470168CA6822F0C0027D
:103A5000CA60202180F83D10704708B590F83E10EC
:103A6000222901D0022008BD82684FF480539A4277
:103A700001D1016921B1816A9A421BD04AB10AE0A1
:103A80000268816A5268C2F308020A80816A891C4E
:103A900008E0026972B10268526802F07F020A709F
:103AA000816A491C8162C18D491E0904090CC185C6
:103AB00003D019E002685268F1E70168CA6822F091
:103AC0002002CA600168CA6822F48072CA60016874
:103AD0004A6922F001024A61202180F83E10016B00
:103AE000012903D0FFF74DF9002008BD0021016333
:103AF0000168CA6822F01002CA6001680A68D2062A
:103B000002D50A6849680091818DFEF74EFFEBE708
:103B100070B5044600680169E26821F44051114320
:103B200001612169A0680843616908432168CA6886
:103B300041F20C639A430243CA6020684169A2695A
:103B400021F44071114341611E492068884202D12D
:103B5000FEF7C2F901E0FEF7AFF900EBC00101EB9F
:103B60000012606864218000B2FBF0F3B3FBF1F354
:103B70006FF018067343B2FBF0F5B2FBF0F605EBFD
:103B80008305322303EB0515B5FBF1F5B6FBF1F622
:103B900005F0F00505EB0615B2FBF0F6B2FBF0F010
:103BA000B0FBF1F06FF01802504306EB800003EB1E
:103BB0000010B0FBF1F0216800F00F00284488608D
:103BC00070BD00000038014038B581628285002553
:103BD000134604460564222084F83E00A26B134875
:103BE0009062A26B1248D062A26B12481063A06B65
:103BF0000A4645632168A06B091DFDF749FC206852
:103C000001684168009184F83C50C16841F48071BA
:103C1000C1602068416941F001014161206841694A
:103C200041F040014161002038BD0000A539000885
:103C3000FF3900085B3900082DE9F0419846174626
:103C40000E460446069D1DE0681C1BD02DB1FDF7F5
:103C50004DFDA0EB0800A84214D92068C16821F4EA
:103C6000D071C1602068416921F0010141612020CB
:103C700084F83D0084F83E00002084F83C000320D6
:103C8000BDE8F0812068006836EA000004D000201A
:103C9000B842D9D00020F3E70120F9E70148FEF748
:103CA00087BE000090010020FEE7490050EAC120D5
:103CB00018BF04204A0D18BF40F0010040F2FF7207
:103CC000B2EB515F08BF40F00200012808BF052099
:103CD00070474100080218BF04200A0E18BF40F0C8
:103CE00001004FF07F4232EA010108BF40F00200BC
:103CF000012808BF052070470907090E002804DBCA
:103D000000F1E02080F80014704700F00F0000F18F
:103D1000E02080F8141D704700F034BC6FF05E01A5
:103D2000080700F024BF00002DE9F0474FF068427B
:103D300002EB40030C460546B3F1654F3CBF02EB76
:103D40004102B2F1654F80F0CD8000BFC0F3C75291
:103D5000C1F3C753D21A1B2A06DD10F0004F14BF5F
:103D600087488848BDE8F08712F11A0F2FDA11F062
:103D7000004F06D010F0004F0CBF83488348BDE8C9
:103D8000F0872146284600F065FC0646FFF7A1FFB4
:103D9000042808BFFFF7C2FF2846FFF79AFF054631
:103DA0002046FFF796FF04463046FFF792FF042DAA
:103DB00018BF052D08D1042C18BF052C04D10028EC
:103DC00004BF0220FCF783FA3046BDE8F0874200CA
:103DD000B2EB410F25D910F0004F19BF6C4F6D4E5B
:103DE0006D4F6E4E224685F0004415460A4680F01F
:103DF000004110460A1A5200B2F1807F3ED248407C
:103E00006749DFF8A0A110F0004F18D04FF03F48ED
:103E1000384600F003FE07465146304600F0FEFDEE
:103E200017E011F0004F04BF00263746E2D010F033
:103E3000004F19BF5C4F5D4E5D4F5E4EDAE74FF0AD
:103E40007C58384600F09EFB07465146304600F04D
:103E500099FB06464146284600F00AFD214600F03F
:103E600091FB82462146404600F002FD294600F0C3
:103E7000CBFD514600F0EEFB044604E02146284607
:103E800000F0E8FB0446014600F0F2FC80464A4997
:103E900000F0EEFC494900F075FB414600F0E8FCFB
:103EA000474900F06FFB414600F0E2FC454900F055
:103EB00069FB414600F0DCFC434900F063FB05462A
:103EC0004146204600F0D4FC294600F0D1FC3146A2
:103ED00000F058FB214600F055FB3946BDE8F0479D
:103EE00000F050BB4FF07F42B2EB400F28BFB2EB67
:103EF000410F03D2BDE8F047FFF70EBF40EA0103D0
:103F00005B0008BF44F0FF410AD0B2EB400F08BF8E
:103F1000B2EB410F06D125F0804024F080410546E8
:103F20000C4613E7B2EB400F12BF5FEA410345F0C6
:103F3000FF4004F000413FF409AFB2EB410F12BF64
:103F40005FEA400205F0004044F0FF413FF4FEAE5E
:103F50004A0092EA40033FF5F9AE002AACBF4FF0A9
:103F60009F464FF03E56314600F082FC05463146F2
:103F7000204600F07DFC044628462146E6E6000087
:103F8000DB0FC9BFDB0FC93FDB0F4940DB0F49C067
:103F90000000C9BF22AAFDB90000C93F22AAFD390D
:103FA0000060ED3EC30ACE37000049C022AA7DBAA8
:103FB0000000494022AA7D3A2DAD65BD8FB8D53DA0
:103FC0000FB511BE61C84C3EA8AAAABE08B5FDF740
:103FD0004DFEFFF769FBFFF767FAFFF79DFAFFF762
:103FE000EFFA4448416941F0010141614069002212
:103FF00000F00100009011460D20FDF795FE0D2008
:10400000FDF784FE002211460F20FDF78DFE0F20E4
:10401000FDF77CFE394838494FF4165500240160FD
:10402000C0E901540C26C460C0E904468461C4613F
:10403000FEF7C4FD08B172B6FEE730483049E438F7
:1040400001603049C0E901144FF48041C0E90341E7
:1040500044618461C4610462FDF74EFB08B172B62D
:10406000FEE72648284944300160C0E90154C46095
:10407000C0E904468461C461FEF7A0FD08B172B6D0
:10408000FEE7FFF74DF91D4800219038FEF79EFB33
:104090001A4804219038FEF799FB18484838FEF773
:1040A00091F91648012219494430FEF755FE4FF0A8
:1040B0007E55164CFDF71AFB00F0C6FBA064616C40
:1040C00000F0ACFCA842F5D1606E00F02FFA024679
:1040D0000A480B460EA1F038FCF782F80749642322
:1040E000F0390A2201F59A70FEF74EFEA06C60646A
:1040F000E0E700000010024000380140900100207D
:1041000000540040A086010000480040000000204C
:104110002566000010B500290AD00878002807D0CD
:1041200005487844FCF738FC002801D0002010BD79
:104130000248784410BD0000960B00008E0B000072
:1041400021F00042A2F16052B2F5801F01F000435D
:1041500028BFD2F17F6C0BD95FEA001C43EAC20290
:1041600042EB507018BF704728BF20F00100704725
:10417000B2F5801FBCBF184670474FEA410C1CF5D2
:10418000001F02D2084600F03ABC70B500F079F981
:1041900000000089FFF7F6BF4FF00040A0F5800057
:1041A000704700002DE9C04130B4DFF8A0C23CEAFE
:1041B000111418BF3CEA131400F0EC8081EA0305E7
:1041C0001CEA111444EAD57418BF1CEA131500F058
:1041D000C780A4EB05044FF0004545EAC12145EA3C
:1041E000C32341EA505143EA525304F17F74994288
:1041F00004F500344FEAC0204FEAC22208BF9042C3
:1042000000F09C804FEA13650FF24016765D4FEA8E
:10421000134506FB05F7C7F1807706FB07F74FEA62
:10422000D737A7FB03687642C8F58038A7FB06CED0
:1042300038BFA8F1010807FB08E64FF0000EA6FB07
:10424000028CE6FB03CEDCF1000CCEF1004E38BF51
:10425000AEF1010EA6FB0C584FF000074FF0000521
:10426000E6FB0E87A1FB08C6A0FB07CE16EB0E06E9
:1042700045F10005E1FB076515F1E04E7EBFA4F5B1
:1042800080345FEA46066D4116F1800745F100056E
:104290004FEA17274FEA066647EA0567A6F1DE46AA
:1042A000B6F1805F4FEA15251FD9384624F0010C7E
:1042B00005EBC471BCF1FE6F01EB0C1102D8F0BC30
:1042C000BDE8008124425CBF01F5801E9EEAC47FE8
:1042D00002D4F0BCBDE80081244238D4F0BCA1F186
:1042E000C041BDE8004100F01AB94FEAD22242EACB
:1042F00043524FEAD323A7FB02864FEAD02040EA7D
:10430000415007FB03661EEA0E0F4FEAD12105FB61
:10431000026658BFA6EB0056B6EB00564FEA520EA7
:104320004EEAC37E18EB0E0E56EB530EBDD518EBBE
:1043300002085E417F1C55F10005B6E74FF4801579
:104340004FF000074FF000064FF00008ADE7F0BC5B
:104350004FF0000001F1C04101F00041BDE80081D3
:1043600011EA0C1F0CEA131500D00CE013EA0C1F25
:1043700000F025804FF00000F0BC81EA030101F05D
:104380000041BDE80081F0BCBDE8004181EA0301C5
:1043900000F0C5B8F0BCBDE8004170B500F071F8A0
:1043A000097EFC3E00F007B881EA03014FF00000EF
:1043B00001F00041704781EA030100F0B0B8F0BCA1
:1043C000BDE800414FF0000021497047FFFDFBF9B7
:1043D000F7F5F4F2F0EEEDEBE9E8E6E4E3E1E0DE38
:1043E000DDDBDAD8D7D5D4D3D1D0CFCDCCCBCAC8AA
:1043F000C7C6C5C4C2C1C0BFBEBDBCBBBAB9B8B7D1
:10440000B6B5B4B3B2B1B0AFAEADACABAAA9A8A8C3
:10441000A7A6A5A4A3A3A2A1A09F9F9E9D9C9C9B91
:104420009A9999989797969595949393929191903C
:104430008F8F8E8E8D8C8C8B8B8A898988888787CD
:104440008685858484838382828181800000FF0742
:104450000000F87F10F0004248BF4042B0FA80F3FD
:1044600010FA03F10AD0C3F11D0303F580634FEA8C
:10447000415002EB035202EBD12170474FF0000094
:1044800070470EF1020E2EF0030E5EF8046B3642FA
:1044900005D4012A43EB030515F5001F12D80128A6
:1044A00041EB010C1CF5001F0CD80ED14FEAD17C5A
:1044B00015F5001F0CEB4C0C0CF1020C08BF4CEB7B
:1044C000D37C04E04FF0080C01E04FEAD37C0CEB06
:1044D0004C0526FA05F606F00706B6F1040C06D2DE
:1044E0000EEB860CBDE870404CF0010C6047DFE835
:1044F0000CF0090B02024FF000414FF00000A1F553
:10450000002170BD19461046012851EB010418BF67
:10451000D4F5001484BF002001F0004170BD0808EC
:10452000A0F500114FEA31017047000043004FEA47
:10453000D30C4FEA3C0C43401FBF40070CF16051C5
:1045400013F0FE4F70471CF0006F03D100200CF0F9
:10455000004170470CF0004343EA507010B540EA48
:10456000CC0000F006FA00BF000000924FEA000104
:10457000FFF7D5BF4FF000414FF00000A1F500213B
:104580007047000090EA010F48BF81F0004100F140
:104590004C82421A3CBF801A89184FEAD0524FF021
:1045A0007F4C1CEA410FA2EBD15318BF9CEA026F6B
:1045B00000F03B804FF0004C4CEA00204CEA012117
:1045C00021FA03FC10EB0C0C1ED202F1FF325FEA61
:1045D0001C2040EBC25038BF70471CF07F0F4FEAE1
:1045E000400C18BFBCF17F4F38BF7047C3F12003A8
:1045F000994008BF20F00100BCF17F4F38BF7047E1
:10460000A0F1C04000F0FBB94FEA3C00000A40EBCB
:10461000C25028BF1CF0FF0F4FEA400CE6D018BF75
:10462000BCF17F4F38BF7047EAE79CEA026F05D0C4
:1046300010EA5C0F08BF00F00040704710B500F0B2
:1046400098F900BF64FBBE3E014800F05EBA00BFAF
:104650000000C07F4FF47F0C1CEAD0121EBF1CEA82
:10466000D11392EA0C0F93EA0C0F00F0858090EAC8
:10467000010F48BF42F4807240F4000C41F4000086
:104680002CF07F4120F07F4000B58142A2EB030275
:104690000FF2081CACEB504EC0F100009EF800E099
:1046A0004FEA4E0E00FB0EFC38BF49004FEA2C1CAF
:1046B00002F5FA020CFB0EF34FEACE1E4FEA112C64
:1046C0004FEAC1210EEB635E42EB22420EFB0CFC73
:1046D0004FEA1C5300FB03114FEA112C4FEA013142
:1046E0000EFB0CFC4FEADC4C00FB0C11C14228BF56
:1046F00009184CEB03335DF804EB10EB410143EB7D
:10470000C250B2F57C0F38BF704729D512F0F00FB8
:104710001CBF00F1C04000F0004070470081828360
:104720008485868788898B8C8D8E8F9192939596C0
:1047300097999A9C9D9FA0A2A3A5A7A8AAACAEB04A
:10474000B2B3B5B7B9BCBEC0C2C5C7C9CCCED1D44F
:10475000D7D9DCDFE2E6E9ECF0F3F7FAFE0000007F
:104760004FEA400C0CF1807CBCF17E4F28BF7047B3
:10477000B0F1C04000F043B990EA010F0CEAD11348
:1047800048BF42F48072624538BF634507D213F4D4
:104790007F0F16D080EA010000F00040704710B58E
:1047A00000F0E7F8097EFC3E00F005B880EA010061
:1047B00000F00040704780EA010000F0004000F087
:1047C0001EB912F47F0F04BF0248704780EA01004F
:1047D00000F015B90000C07FC10DD1F19E0206DBCB
:1047E0004FEA002343F0004323FA02F070470042EF
:1047F00007D54FEA4001B1F1FE4F02D24FF0000061
:10480000704710B500F0B5F8499224800020704739
:104810006FEA20007047000010F0004148BF40429E
:10482000B0FA80F310FA03F2C3F19D030BD051EA02
:10483000C35101EB1220530638BF704700F101004D
:1048400008BF20F001007047B0FA80F310FA03F2BD
:10485000C3F19D030AD0D90501EB1220530638BFDE
:10486000704700F1010008BF20F001007047000010
:104870004FF47F0C1CEAD0121EBF1CEAD11392EA3F
:104880000C0F93EA0C0F00F0478090EA010F48BF2D
:1048900042F480724FF0004C4CEA00204CEA0121B7
:1048A00002EB0302A0FB0113A2F50002002918BFCE
:1048B00043F001035B0028BF4FEA330342EB22427F
:1048C0005FEA132C4CEBC2502EBFBCEB436FB2F52A
:1048D0007C0F70474FEA036CBCF1004F08BF20F01B
:1048E0000100B2F57C0F38BF70470BD582F0FF0294
:1048F00012F5803FC8BF704700F1C040D8BF00F03C
:104900000040704700F5000C5FEA4C0C48BF704750
:10491000B0F1C04000F073B890EA010F0CEAD11377
:1049200048BF42F48072624538BF634504D280EAD2
:10493000010000F00040704710B500F01AF800BF09
:104940008900013E00F007B800F009B85FEA410CA9
:104950005FEA1C6C08D080EA010000F050B85FEA02
:10496000400C5FEA1C6CF6D14FF00040A0F58000CF
:1049700070470EF1020E2EF0030E5EF8044B244237
:1049800004D44FEA4102B2F17F4F11D84FEA4003FD
:10499000B3F17F4F0CD80ED14FEAD07CB2F17F4FEC
:1049A0000CEB4C0C0CF1020C08BF4CEBD17C04E07E
:1049B0004FF0080C01E04FEAD17C0CEB4C0324FAD9
:1049C00003F404F00704B4F1040C06D20EEB840CDB
:1049D000BDE810404CF0010C6047DFE80CF0070820
:1049E00002024FF00040A0F5800010BD08464200D2
:1049F00018BFD2F1807288BF00F0004010BDFF21C7
:104A000041EAD050C005704780F0004090EA010FA5
:104A10007FF5BFAD81F0004100F007B890EA010FCB
:104A200048BF81F000413FF5B4AD421A04D882F08E
:104A30000042A0EB020011444FEAD0524FF07F4CED
:104A40001CEA410FA2EBD15318BF9CEA026F4AD077
:104A50004FF0004C4CEA00204CEA012121FA03FC03
:104A6000B0EB0C0C0FD412F0FE0F36D05FEA4C0006
:104A70001DD5001240EBC25038BF70471CF03F0FED
:104A800018BF70470BE0A2F101025FEA1C2040EB67
:104A9000C25038BF70471CF07F0F18BF7047C3F17A
:104AA0002003994014BF401E20F001007047800889
:104AB0004FEA122308BF7047B0FA80FCA2EB0C0249
:104AC000CCF1280C60FA0CF093EA122F04BF00EB33
:104AD000C25070474FEAC3707047130A5FEADC1098
:104AE00008BF7047F6E79CEA026F04D010EA5C0F3B
:104AF00008BF0020704710B5FFF73BFF40DFF63ED0
:104B000081F000407047FBF7C1BC0CF00F03092B8C
:104B100008BF082000F051800A2B0BD0082B18BFCB
:104B2000704708BF1CF0400F0AD04FF000004FF054
:104B3000000170471CF0400F18BF4FF00040704755
:104B40001CF0100F08D020F0704300F07F4242EAC2
:104B5000D3014FEA4370704700F0604021F07F427C
:104B600042EA000201F07F4040EA727070474FF065
:104B7000FF0212EAD0521CBF92F0FF038B42C2BF69
:104B8000D14200EBC1507047002A0AD0002B0BD055
:104B9000002900F00040A4BF40F0FE4040F40000B7
:104BA000704700F00040704743024FF00B0C18BFF5
:104BB0004CF0806C7FF448AD70471CF4801F11D01E
:104BC0001CF4E02F03D06FEACC31490070474FF05E
:104BD0004050EFF3008222F0704242EA000282F37A
:104BE000008870474FF00000704700000000000090
:104BF000000001020304060708090000000001028A
:104C00000304000002400000000000A000000000BB
:104C100005400000000000C8000000000C4000003B
:104C20000000409C00000000194000000020BCBEB5
:104C30000000000034400000BFC91B8E00000004CB
:104C4000B5400000504BCFD06607E2CF0100000016
:104C50006C4100003E8251AADFEEA7340100000043
:104C6000D9420000DCB5A0E23A301F97FFFFFFFFFA
:104C7000B4450000FD25A0C8E9A3C14FFFFFFFFF19
:104C8000FF3F00000000008000000000FF3F000028
:104C90000000008000000000D44C0008000000204C
:104CA0009000000028010008644D000890000020DA
:104CB00070080000440100081C00000043000000D0
:104CC000F8FFFFFF0C0000000E0000000F000000C6
:104CD0002E000000000000000000000000000000A6
:104CE00000000000000000000000000000000000C4
:104CF000000000000000000000000000A69B443BF4
:104D0000000000006F12833AA69B443B8FC2F53C23
:104D100000000000DB0F4940000000000000000020
:104D20000000344300000000000000000000AF431A
:104D300000008C420000803F00003B430000000068
:104D40000000000000000000000000000000000063
:104D50000000000001000000100000000000000042
:044D60000024F40037
:04000005080000ED02
:00000001FF
